:10009E003C5053325F52454430313A233030355064
:1000AE00303630305432303030215E2444535421B7
:1000BE003E003C5053325F52454430323A2330308A
:1000CE003550323430305432303030215E24445387
:1000DE0054213E003C5053325F52454430333A2354
:1000EE0030303450303630305432303030215E249F
:1000FE00445354213E003C5053325F5245443034F9
:10010E003A233030345032343030543230303021A3
:10011E005E24445354213E003C5053325F524544BA
:10012E0030353A2330303250323430305432303071
:10013E0030215E24445354213E003C5053325F52D2
:10014E00454430363A233030335032343030543226
:10015E00303030215E24445354213E003C50533203
:10016E005F52454430373A233030325030363030DB
:10017E005432303030215E24445354213E003C50E2
:10018E0053325F52454430383A2330303350303694
:10019E0030305432303030215E24445354213E00EE
:1001AE003C5053325F52454430393A24444A52212E
:1001BE003E003C5053325F52454431303A24534D49
:1001CE004F44453130213E003C5053325F5245443E
:1001DE0031313A24534D4F44453130213E003C508D
:1001EE0053325F52454431323A244447533A322116
:1001FE003E003C5053325F52454431333A23303047
:10020E003150303630305432303030215E24445349
:10021E0054213E003C5053325F52454431343A2310
:10022E0030303050303630305432303030215E2461
:10023E00445354213E003C5053325F5245443135B5
:10024E003A23303031503234303054323030302165
:10025E005E24445354213E003C5053325F52454479
:10026E0031363A2330303050323430305432303030
:10027E0030215E24445354213E003C5053325F479C
:10028E00524E30313A24534D4F44453130213E00C9
:10029E003C5053325F47524E30323A24534D4F4406
:1002AE00453130213E003C5053325F47524E303381
:1002BE003A24213E003C5053325F47524E30343A7E
:1002CE0024534D4F444536213E003C5053325F4738
:1002DE00524E30353A24534D4F444534213E003C66
:1002EE005053325F47524E30363A24534D4F4445A9
:1002FE0038213E003C5053325F47524E30373A243D
:10030E00534D4F444535213E003C5053325F4752CA
:10031E004E30383A24534D4F444537213E003C5021
:10032E0053325F47524E30393A24444A52213E00EE
:10033E003C5053325F47524E31303A24534D4F4466
:10034E00453130213E003C5053325F47524E3131E1
:10035E003A24534D4F44453130213E003C505332E8
:10036E005F47524E31323A244447533A32213E00CF
:10037E003C5053325F47524E31333A24534D4F4423
:10038E004530213E003C5053325F47524E31343A95
:10039E0024534D4F444533213E003C5053325F476A
:1003AE00524E31353A24534D4F444531213E003C97
:1003BE005053325F47524E31363A24534D4F4445D7
:1003CE0032213E007B4730303030233030305031D8
:1003DE0035303054313030302123303031503135DA
:1003EE0030305431303030212330303250313530CE
:1003FE0030543130303021233030335031353030BD
:10040E005431303030212330303450313530305487
:10041E003130303021233030355031353030543199
:10042E00303030217D007B4730303031233030305A
:10043E005031353030543135303021233030315059
:10044E003135303054313530302123303032503167
:10045E003530305431353030212330303350313552
:10046E003030543135303021233030345031353046
:10047E003054313530302123303035503135303035
:10048E005430303030217D007B47303030322330D5
:10049E00303050313530305431353030212330301A
:1004AE003150323230305431353030212330303209
:1004BE0050323530305431353030212330303350D6
:1004CE0032303030543135303021233030345031E9
:1004DE0035303054313530302123303035503135D0
:1004EE0030305431353030217D007B473030303361
:1004FE0023303030503135303054313030302123CC
:10050E0030303150313530305431303030212330AD
:10051E00303250313530305431303030212330309C
:10052E003350313530305431303030212330303487
:10053E005031353030543130303021233030355059
:10054E00313030305431303030217D007B47303007
:10055E00303423303030503135303054313030304B
:10056E002123303031503131303054313030302160
:10057E002330303250313630305431303030212348
:10058E00303033503231303054313030302123302E
:10059E00303450313530305431303030212330301A
:1005AE003550313030305430303030217D007B4783
:1005BE0030303035233030305031353030543135E5
:1005CE0030302123303031503130353054313530E8
:1005DE0030212330303250313630305431303030DB
:1005EE0021233030335032313030543130303021DD
:1005FE0023303034503135303054313030302123C7
:10060E0030303550323030305430303030217D0083
:10061E007B47303030362330303050313530305427
:10062E003130303021233030315031383030543188
:10063E003030302123303032503138303054313078
:10064E00303021233030335032313030543130306D
:10065E003021233030345031353030543130303059
:10066E00212330303550323030305430303030215C
:10067E007D007B47303030372330303050303830CB
:10068E00305431303030212330303150313530302C
:10069E0054313030302123303032503135303054F7
:1006AE00313030302123303033503231303054310C
:1006BE0030303021233030345031353030543130F9
:1006CE0030302123303035503230303054303030ED
:1006DE0030217D007B473030303823303030503081
:1006EE0038303054313030302123303031503133C6
:1006FE0030305431303030212330303250313830B8
:10070E0030543130303021233030335032313030AC
:10071E005431303030212330303450313530305474
:10072E00313030302123303035503230303054308B
:10073E00303030217D007B4730303039233030303F
:10074E005030383030543130303021233030315049
:10075E00313330305431303030212330303250315B
:10076E003830305431303030212330303350323144
:10077E003030543130303021233030345031353038
:10078E00305431303030212330303550313030302C
:10079E005430303030217D007B47303031302330C3
:1007AE00303050303830305431303030212330300A
:1007BE0031503136303054313030302123303032F8
:1007CE0050313830305431303030212330303350C6
:1007DE0032313030543130303021233030345031DA
:1007EE0035303054313030302123303035503130C7
:1007FE0030305430303030217D007B473030313155
:10080E0023303030503135303054313530302123B3
:10081E003030315032323030543135303021233097
:10082E003032503235303054313530302123303083
:10083E003350323030305431353030212330303473
:10084E005031353030543135303021233030355041
:10085E00313530305431353030217D007B473030EA
:10086E003132233030305031353030543130303039
:10087E002123303031503135303054313030302149
:10088E002330303250313530305431303030212336
:10089E003030335031353030543130303021233018
:1008AE003034503135303054313030302123303007
:1008BE003550313530305431303030217D007B476A
:1008CE0030303133233030305031353230543130D6
:1008DE0030302123303031503131303054323030DD
:1008EE0030212330303250313835305431303030C1
:1008FE0021233030335032313030543130303021CA
:10090E0023303034503135303054313030302123B3
:10091E0030303550313030305430303030217D0071
:10092E007B47303031342330303050313532305413
:10093E00313030302123303031503131303054327B
:10094E003030302123303032503139303054313064
:10095E00303021233030335032313030543130305A
:10096E003021233030345031353030543130303046
:10097E002123303035503230303054303030302149
:10098E007D007B47303031352330303050313532B9
:10099E003054313030302123303031503138303016
:1009AE0054323030302123303032503230303054E7
:1009BE0031303030212330303350323030305431FA
:1009CE0030303021233030345031353030543130E6
:1009DE0030302123303035503230303054313030D9
:1009EE0030217D007B47303031362330303050316E
:1009FE0035323054313030302123303031503131B6
:100A0E0030305432303030212330303250313830A3
:100A1E00305431303030212330303350323030309A
:100A2E005431303030212330303450313530305461
:100A3E003130303021233030355032303030543177
:100A4E00303030217D007B4730303137233030302D
:100A5E005031353230543130303021233030315036
:100A6E003131303054323030302123303032503149
:100A7E003830305431303030212330303350323032
:100A8E003030543130303021233030345031353025
:100A9E003054313030302123303035503130303019
:100AAE005430303030217D007B47303031382330A8
:100ABE0030305031353030543135303021233030F4
:100ACE0031503232303054313530302123303032E3
:100ADE0050323530305431353030212330303350B0
:100AEE0032303030543135303021233030345031C3
:100AFE0035303054313530302123303035503135AA
:100B0E0030305431353030217D007B473030313933
:100B1E0023303030503135303054313030302123A5
:100B2E003030315031353030543130303021233087
:100B3E003032503135303054313030302123303076
:100B4E003350313530305431303030212330303461
:100B5E005031353030543130303021233030355033
:100B6E00313530305431303030217D007B473030DC
:100B7E003230233030305031353230543130303025
:100B8E002123303031503131303054323030302139
:100B9E00233030325031383530543130303021231B
:100BAE003030335032313030543130303021233008
:100BBE0030345031353030543130303021233030F4
:100BCE003550313030305430303030217D007B475D
:100BDE0030303231233030305031353230543130C4
:100BEE0030302123303031503131303054323030CA
:100BFE0030212330303250313930305431303030B2
:100C0E0021233030335032313030543130303021B6
:100C1E0023303034503135303054313030302123A0
:100C2E0030303550323030305430303030217D005D
:100C3E007B47303032322330303050313532305401
:100C4E003130303021233030315031383030543261
:100C5E003030302123303032503230303054313059
:100C6E003030212330303350323030305431303048
:100C7E003021233030345031353030543130303033
:100C8E002123303035503230303054313030302135
:100C9E007D007B47303032332330303050323230AB
:100CAE003054313030302123303031503138303003
:100CBE0054323030302123303032503230303054D4
:100CCE0031303030212330303350323030305431E7
:100CDE0030303021233030345031353030543130D3
:100CEE0030302123303035503230303054313030C6
:100CFE0030217D007B47303032342330303050325B
:100D0E0032303054313030302123303031503132A6
:100D1E003030543230303021233030325032303097
:100D2E003054313030302123303033503230303087
:100D3E00543130303021233030345031353030544E
:100D4E003130303021233030355032303030543164
:100D5E00303030217D007B4730303235233030301B
:100D6E005032323030543130303021233030315027
:100D7E003132303054323030302123303032503234
:100D8E003030305431303030212330303350323027
:100D9E003030543130303021233030345031353012
:100DAE003054313030302123303035503130303006
:100DBE005430303030217D007B4730303236233096
:100DCE0030305032323030543130303021233030E8
:100DDE0031503138303054323030302123303032CF
:100DEE0050323030305431303030212330303350A7
:100DFE0032303030543130303021233030345031B5
:100E0E0035303054313030302123303035503130A0
:100E1E0030305431303030217D007B473030323726
:100E2E00233030305031353030543135303021238D
:100E3E003030315032323030543135303021233071
:100E4E00303250323530305431353030212330305D
:100E5E00335032303030543135303021233030344D
:100E6E00503135303054313530302123303035501B
:100E7E00313530305431353030217D007B473030C4
:100E8E00323823303030503135303054313030300C
:100E9E002123303031503135303054313030302123
:100EAE002330303250313530305431303030212310
:100EBE0030303350313530305431303030212330F2
:100ECE0030345031353030543130303021233030E1
:100EDE003550313530305431303030217D007B4744
:100EEE0030303239233030305031353230543130A9
:100EFE0030302123303031503131303054323030B7
:100F0E00302123303032503138353054313030309A
:100F1E0021233030335032313030543130303021A3
:100F2E00233030345031353030543130303021238D
:100F3E0030303550313030305430303030217D004B
:100F4E007B473030333023303030503135323054EF
:100F5E003130303021233030315031313030543255
:100F6E00303030212330303250313930305431303E
:100F7E003030212330303350323130305431303034
:100F8E003021233030345031353030543130303020
:100F9E002123303035503230303054303030302123
:100FAE007D007B4730303331233030305031353295
:100FBE0030543130303021233030315031383030F0
:100FCE0054323030302123303032503230303054C1
:100FDE0031303030212330303350323030305431D4
:100FEE0030303021233030345031353030543130C0
:100FFE0030302123303035503230303054313030B3
:10100E0030217D007B47303033322330303050304A
:10101E003830305431303030212330303150313887
:10102E003030543230303021233030325032303084
:10103E003054313030302123303033503230303074
:10104E00543130303021233030345031353030543B
:10105E003130303021233030355032303030543151
:10106E00303030217D007B47303033332330303009
:10107E005030383030543130303021233030315010
:10108E003132303054323030302123303032503221
:10109E003030305431303030212330303350323014
:1010AE0030305431303030212330303450313530FF
:1010BE0030543130303021233030355032303030F2
:1010CE005431303030217D007B4730303334233083
:1010DE0030305030383030543130303021233030D1
:1010EE0031503132303054323030302123303032C2
:1010FE005032303030543130303021233030335094
:10110E0032303030543130303021233030345031A1
:10111E00353030543130303021233030355031308D
:10112E0030305430303030217D007B473030333515
:10113E00233030305030383030543130303021237D
:10114E00303031503138303054323030302123305D
:10115E003032503230303054313030302123303054
:10116E00335032303030543130303021233030343F
:10117E00503135303054313030302123303035500D
:10118E00313030305431303030217D007B473030BB
:10119E0033362330303050313530305431353030F5
:1011AE00212330303150323230305431353030210D
:1011BE0023303032503235303054313530302123F7
:1011CE0030303350323030305431353030212330DE
:1011DE0030345031353030543135303021233030C9
:1011EE003550313530305431353030217D00756118
:1011FE0072743120636865636B206F6B21007561BB
:10120E0072743220636865636B206F6B21007561A9
:10121E0072743420636865636B206F6B21005E000F
:10122E0024002300244453542100233235355044E6
:10123E0053542100244453543A00244453543A2521
:10124E00642100232530336450445354210024522A
:10125E0053542100244347503A00244347503A2523
:10126E00642D25642100244445473A002444454713
:10127E003A25642D25642100244447533A00244422
:10128E0047533A25642100244447543A00244447E6
:10129E00543A25642D25642C2564210024444352A0
:1012AE003A00244443523A25642C256421002444F8
:1012BE0057412100244457442100244341525F46A4
:1012CE002100244341525F422100244341525F4C8E
:1012DE002100244341525F522100244341525F5367
:1012EE00544F502100244A58425F5A484921002445
:1012FE004A58425F57414E210024444A522100234E
:10130E0032353550313530305432303030210024C2
:10131E004A58425F53574954434821002447455485
:10132E004121004141410024474554532100677239
:10133E006F75705F646F5F6F6B3D300067726F75B6
:10134E00705F646F5F6F6B3D310024474554494EAB
:10135E00432100696E632564203D202566200D0A19
:10136E0000244442543A00244442543A25642C2525
:10137E006421002444525321000D0A35314D43554A
:10138E002D494150313557344B363153340D0A0007
:10139E0024534D4F44450024534D4F44452564215D
:1013AE000024534D4152545F53544F50210040433B
:1013BE004C454152205052455F434D44204F4B21E6
:1013CE00003C244447543A25642D25642C25642181
:1013DE003E0040534554205052455F434D44204FEC
:1013EE004B2100450041000D0A00404572617365B6
:1013FE00202564204F4B210040446F47726F75705B
:10140E00202564204F4B210D0A004047726F7570E6
:10141E00446F6E65210041542B42415544380D0AEC
:10142E000041542B5350504E414D455A4C2D3531A1
:10143E002D4254322E300D0A0041542B4C454E4154
:10144E004D455A4C2D35312D4254342E300D0A0057
:10145E0041542B4E414D455A4C2D35312D4254326F
:10146E002E300D0A00FF009EFF00C0FF00E2FF01BC
:10147E0004FF0126FF0148FF016AFF018CFF01AE48
:10148E00FF01C0FF01D6FF01ECFF0200FF0222FFA9
:10149E000244FF0266FF0288FF029EFF02B4FF02B3
:1014AE00C3FF02D8FF02EDFF0302FF0317FF032C59
:1014BE00FF033EFF0354FF036AFF037EFF0393FF08
:1014CE0003A8FF03BDFF03D2FF0434FF0496FF04FD
:1014DE00F8FF055AFF05BCFF061EFF0680FF06E259
:1014EE00FF0744FF07A6FF0808FF086AFF08CCFFA6
:1014FE00092EFF0990FF09F2FF0A54FF0AB6FF0BEF
:10150E0018FF0B7AFF0BDCFF0C3EFF0CA0FF0D0249
:10151E00FF0D64FF0DC6FF0E28FF0E8AFF0EECFFB7
:10152E000F4EFF0FB0FF1012FF1074FF10D6FF11F9
:04153E0038FF119AC7
:104BFC0042043200004204340000410441014404E8
:104C0C0042000000004104460041044700440448AF
:104C1C000000000044044C0000000044045000005C
:104C2C00000049045400000000000000000044048F
:104C3C000C00000000410410004104110044041257
:104C4C0000000BB84404160000000042041A0000D7
:104C5C0042041C000042041E0000420421FFFF41DC
:104C6C000427004404280000000041042C014104E6
:094C7C002D0044042E000000008C
:106A39001200401271F61271F91271FC1271FF12F3
:106A49005F6A12720212001E12714E12705A12708F
:106A5900711270881272081254EF12718A1272053B
:106A69001271E0126BFD126D30125ECB1256EF12ED
:106A79004907126C801268D4126008120046126429
:036A8900D580E3D2
:03004000026A8CC5
:0371F600026FA87D
:0371F900D2A022FF
:0371FC00D2C922D3
:0371FF0002000E7D
:05001E007F0702709F46
:105F6A001271C0126EE6EF64167003EE64EF6004FD
:105F7A00C2C980EF7B017A00797090047AE4F0A3B9
:105F8A0074C0F07F007EF07DFF7CFF1267527FF6BF
:105F9A007EEE7D337C01900070E0F8A3E0F9A3E087
:105FAA00FAA3E0FBC3122A656017900070122AC296
:105FBA000133EEF6900074122AC200000000126F3C
:105FCA005F900127E07004A3E064386030E4900435
:105FDA0040F0900440E0FFC394085018EF25E024F5
:105FEA0017F582E43401F583E4F0A3F0900440E06D
:0E5FFA0004F080DE900127E4F0A37438F0225A
:037202000271D93D
:037205000270DD37
:0F714E007FE87E031269E3E4FDFCFFFE024D685B
:10705A007F007EC27D017C0012681612720E7BFFD1
:07706A007A1179FC026CBDF4
:107071007F007EC27D017C001268761271E67BFF83
:077081007A12790C026F8402
:107088007F007EC27D017C001267B51271EE7BFF26
:077098007A12791C026DD58C
:0372080002712CE4
:106BFD00C2C9C2A07F647E00126FEBD2C9D2A07F42
:106C0D00647E00126FEBC2C9C2A07F647E00126F5A
:106C1D00EBD2C9D2A07F647E00126FEBC2C9C2A0B5
:106C2D007F647E00126FEBD2C9D2A07F647E00021A
:026C3D006FEBFB
:1054EF00E4900440F0900440E0FFC394085076EF3E
:1054FF0025E02417F582E43401F583E0FEA3E024D0
:10550F00DCFDEE3405FC12243B900440E0FB75F00B
:10551F000EA42400F582E43400F583122AB6EB754D
:10552F00F00EA42400F582E43400F583E0FCA3E040
:10553F00FDA3E0FEA3E0FFEB75F00EA42404F582BB
:10554F00E43400F583122AB6EB75F00EA42408F5A7
:10555F0082E43400F583122AC20000000090044058
:10556F00E004F08080900116E0643860030255FD7E
:10557F0078307C017D017B017A007978122C319093
:10558F000078E0B424097B017A00797802155790EE
:10559F0004407410F07B017A0179301270B49004DA
:1055AF0040E0C39FEE6480F8748098503EE0FF2483
:1055BF0030F582E43401F5837430F074312FF582C5
:1055CF00E43401F5837430F074322FF582E4340142
:1055DF00F5837430F074332FF582E43401F583745E
:0F55EF0030F0900440E0240FF080AA122CF62236
:0671E00075B810D2AF22C9
:106D300012715D90040CE0F8A3E0F9A3E0FAA3E07F
:106D4000FBC3EF9BFFEE9AFEED99FDEC98FCE47B14
:106D5000F47A01F9F8D3122A65500B12715D900490
:066D60000C122AB6B2A0DD
:016D6600220A
:105ECB00900334E06048900335E0B401051215519E
:105EDB008025900335E0B402028007900335E0B4CF
:105EEB000305122CF68010900335E0B404097B01F6
:105EFB007A017930124592E4900335F0900334F037
:105F0B007E027F04FD7B017A017930122C4E1271D7
:105F1B006CC004C005C006C00712715DD003D0026F
:105F2B00D001D000C3EF9BFFEE9AFEED99FDEC98EC
:105F3B00FCE47B64FAF9F8C3122A65501090041044
:105F4B00E0701BD28ED2AB04F0E4A3F022900411CC
:0E5F5B00E0700BC28EC2AB900410F0A304F0F5
:015F69002215
:10004600900446E06401603212715D900442E0F86B
:10005600A3E0F9A3E0FAA3E0FBC3EF9BFFEE9AFE51
:10006600ED99FDEC98FC900412E0F8A3E0F9A3E00A
:10007600FAA3E0FBC3122A655011E4900446F0127D
:0B008600715D900442122AB6126F5FF9
:01009100224C
:106C800012715D900416E0F8A3E0F9A3E0FAA3E026
:106C9000FBC3EF9BFFEE9AFEED99FDEC98FCE47BC5
:106CA00014FAF9F8D3122A65501212715D90041685
:0C6CB000122AB67B017A047954125D7040
:016CBC0022B5
:10600800900455E0647360030260A490045CE0FFB0
:10601800C3747F9FFFE49400FEEF7803C333CE334D
:10602800CED8F9FF90045FEEF0FCA3EFF0FD9004EA
:106038005AE0FFC3747F9FFFE49400FEEF7803C328
:1060480033CE33CED8F9FF900461EEF0A3EFF09091
:10605800041AE0B50417A3E0B50512A3E0FEA3E017
:10606800FF900461E06E7003A3E06F602F90045FFF
:10607800E0FEA3E0FFA3E0FCA3E0FD124D6890045E
:106088005FE0FFA3E090041ACFF0A3EFF090046163
:0C609800E0FFA3E090041CCFF0A3EFF0A9
:0160A40022D9
:1068D400900455E0FF900420E06F6019EFF0B4736A
:1068E4000690039D74FFF0E4FDFCFFFE124D6890DA
:1068F400039E7401F0900457E0FF90041EE0B50776
:106904000C900458E0FF90041FE06F601E7B017A36
:10691400047957900455E0FD123D40900457E090EF
:0B692400041EF0900458E090041FF0E7
:01692F002245
:053D400090045FEDF0AE
:103D4500E4900461F09000011227B6FD7C00122773
:103D55009DFEE42DFFEC3EFE900423F0A3EFF090D2
:103D65000421E0FCA3E0FD6F7002EC6E70030240DD
:103D750071A3E0FEA3E0FFA3EEF0A3EFF0EE5CFE7F
:103D8500EF5DFF900423EEF0A3EFF0E4900460F004
:103D9500900460E0FFC39410400302405774017E15
:103DA50000A807088005C333CE33CED8F9FF9004A9
:103DB50023E05EFCA3E05F4C600302404E900421CB
:103DC500E05EFEA3E05F4E7003023EF47E027F04D8
:103DD5007D007B017A017930122C4E90045FE064FE
:103DE50073702EA3E075F003A42473F582E43414F4
:103DF500F583E493FB740193FA740293F91270B49A
:103E0500900460E075F003A42473F582E434148013
:103E15003790045FE06441600302404EA3E075F013
:103E250003A424A3F582E43414F583E493FB74011D
:103E350093FA740293F91270B4900460E075F0037C
:103E4500A424A3F582E43414F583E493FB7401936D
:103E5500FA740293F978307C017D0112277790047A
:103E65007274FFF0A37412F0A3742CF07B017A0135
:103E750079301253D6900461EFF0600CE0242FF5F1
:103E850082E43401F583E4F090047274FFF0A374C6
:103E950012F0A3742EF07B017A0179301253D6EF1C
:103EA5004E601478377C037D017B017A01793B12E2
:103EB5002C31121542802D90047274FFF0A37412F8
:103EC500F0A37430F07B017A0179301253D6EF4EAE
:103ED500601278377C037D017B017A01793B122CD6
:103EE50031122CE774FF900421F0A3F002404E7EBE
:103EF500027F047D007B017A017930122C4E9004FB
:103F05005FE06473702EA3E075F003A42473F5825B
:103F1500E43414F583E493FB740193FA740293F982
:103F25001270B4900460E075F003A42473F582E484
:103F35003414803790045FE06441600302404EA36F
:103F4500E075F003A424A3F582E43414F583E49327
:103F5500FB740193FA740293F91270B4900460E053
:103F650075F003A424A3F582E43414F583E493FBEC
:103F7500740193FA740293F978307C017D0112275C
:103F85007790047274FFF0A37412F0A3742CF07B85
:103F9500017A0179301253D6900461EFF070030273
:103FA500404EE07E002430F9EE3401FA7B019004A6
:103FB5007274FFF0A37412F0A3742EF01253D6EFAF
:103FC5004E6032900461E07E002430F9EE3401FA4F
:103FD5007B0178377C037D01122C317B017A0379D3
:103FE500371270B474362FF58274033EF583E4F00E
:103FF5001215428054900461E07E002430F9EE34BD
:1040050001FA7B0190047274FFF0A37412F0A3749B
:1040150030F01253D6EF4E6030900461E07E0024FC
:1040250030F9EE3401FA7B0178377C037D01122CDF
:10403500317B017A0379371270B474362FF58274A7
:10404500033EF583E4F0122CE7900460E004F002EF
:104055003D95900425E0FFA3E0900421CFF0A3EF68
:0C406500F0C2C97F327E00126FEBD2C99E
:01407100222C
:01009200224B
:1015420078307C017D017B017A037937122C317B63
:05155200017A0179306F
:0B155700900462EBF0A3EAF0A3E9F0BF
:10156200126CBD90047274FFF0A37412F0A3743273
:10157200F0900462E0FBA3E0FAA3E0F91253D690E4
:101582000465EEF0A3EFF04E700302162890039E5E
:101592007401F0E4900467F0A3F0900467E0FAA30A
:1015A200E0FBC39408EA9400506490000875F00EC2
:1015B200EB122AF3EA75F00EA42583F583122AC2F0
:1015C2000000000090000475F00EEB122AF3EA7599
:1015D200F00EA42583F583E0FCA3E0FDA3E0FEA3C7
:1015E200E0FF900467E0FAA3E090000075F00E12AD
:1015F2002AF3EA75F00EA42583F583122AB6900425
:1016020068E004F07094900467E004F0808C7BFF43
:101612007A127938126D9EE4FDFCFFFE124D68903D
:10162200039D74FFF02290047274FFF0A37412F011
:10163200A37442F0900462E0FBA3E0FAA3E0F91283
:1016420053D6900465EEF0A3EFF04E700302170B31
:1016520090047274FFF0A37412F0A37448F0A374A0
:1016620001F0A37404F0A37469F0900462E0FBA398
:10167200E0FAA3E0F9123A6FEF4E700302211990DB
:101682000469E0FAA3E0FB90000875F00E122AF359
:10169200EA75F00EA42583F583122AC20000000029
:1016A20090000475F00EEB122AF3EA75F00EA425F1
:1016B20083F583E0FCA3E0FDA3E0FEA3E0FF90043A
:1016C20069E0FAA3E090000075F00E122AF3EA75C1
:1016D200F00EA42583F583122AB690047674FFF0E7
:1016E200A37412F0A37451F0900469E0FFA3E09098
:1016F2000479CFF0A3EFF07B017A0379371235C872
:101702007B017A037937026D9E90047274FFF0A315
:101712007412F0A3745CF0900462E0FBA3E0FAA3FD
:10172200E0F91253D6900465EEF0A3EFF04E600399
:1017320002009690047274FFF0A37412F0A3746214
:10174200F0900462E0FBA3E0FAA3E0F91253D69012
:101752000465EEF0A3EFF04E604C90047274FFF05B
:10176200A37412F0A37468F0A37401F0A37404F0DC
:10177200A3746BF0A37401F0A37404F0A3746DF06E
:10178200900462E0FBA3E0FAA3E0F9123A6FEF4E95
:10179200700302211990046BE0FEA3E0FFA3E0FCBA
:1017A200A3E0FD025E2090047274FFF0A37412F0B5
:1017B200A37474F0900462E0FBA3E0FAA3E0F912D0
:1017C20053D6900465EEF0A3EFF04E604C90047295
:1017D20074FFF0A37412F0A3747AF0A37401F0A35F
:1017E2007404F0A3746BF0A37401F0A37404F0A367
:1017F200746DF0900462E0FBA3E0FAA3E0F9123A00
:101802006FEF4E700302211990046BE0FEA3E0FF1C
:10181200A3E0FCA3E0FD025A8390047274FFF0A3DC
:101822007412F0A37486F0900462E0FBA3E0FAA3C2
:10183200E0F91253D6900465EEF0A3EFF04E60414A
:1018420090047274FFF0A37412F0A3748CF0A3746A
:1018520001F0A37404F0A3746BF0900462E0FBA3A4
:10186200E0FAA3E0F9123A6FEF4E700302211990E9
:10187200046BE0FEA3E0FF12662090039E7401F069
:101882002290047274FFF0A37412F0A37495F09086
:101892000462E0FBA3E0FAA3E0F91253D6900465D8
:1018A200EEF0A3EFF04E700302193190047274FF50
:1018B200F0A37412F0A3749BF0A37401F0A3740458
:1018C200F0A3743AF0A37401F0A37404F0A3743C7F
:1018D200F0A37401F0A37404F0A3743EF0900462C8
:1018E200E0FBA3E0FAA3E0F9123A6FEF4E700302B5
:1018F200211990043CE0FCA3E0FD90043AE0FEA331
:10190200E0FF6D7002EE6C601D900436EEF0A3EF06
:10191200F090043EE0FDA3E0900438CDF0A3EDF09A
:10192200E490039EF02290039E7401F002202A901C
:10193200047274FFF0A37412F0A374AAF09004620C
:10194200E0FBA3E0FAA3E0F91253D6900465EEF0AF
:10195200A3EFF04E604C90047274FFF0A37412F087
:10196200A374B0F0A37401F0A37404F0A3746BF039
:10197200A37401F0A37404F0A3746DF0900462E008
:10198200FBA3E0FAA3E0F9123A6FEF4E70030221D3
:101992001990046BE0FEA3E0FFA3E0FCA3E0FD02CC
:1019A200211690047274FFF0A37412F0A374BCF0B9
:1019B200900462E0FBA3E0FAA3E0F91253D690048C
:1019C20065EEF0A3EFF04E600D900441E014F0E0FC
:1019D200703804F0803490047274FFF0A37412F033
:1019E200A374C2F0900462E0FBA3E0FAA3E0F91250
:1019F20053D6900465EEF0A3EFF04E6019900441C7
:101A0200E004F0E0B404037403F0C2C97F647E0012
:101A1200126FEBD2C92290047274FFF0A37412F019
:101A2200A374C8F0900462E0FBA3E0FAA3E0F91209
:101A320053D6900465EEF0A3EFF04E600B7DE87C88
:101A4200037FE87E0302211690047274FFF0A374F0
:101A520012F0A374D0F0900462E0FBA3E0FAA3E0DA
:101A6200F91253D6900465EEF0A3EFF04E600B7DB1
:101A7200187CFC7F187EFC02211690047274FFF021
:101A8200A37412F0A374D8F0900462E0FBA3E0FA0E
:101A9200A3E0F91253D6900465EEF0A3EFF04E6086
:101AA2000B7DE87C037F187EFC0221169004727481
:101AB200FFF0A37412F0A374E0F0900462E0FBA3C1
:101AC200E0FAA3E0F91253D6900465EEF0A3EFF02A
:101AD2004E600B7D187CFC7FE87E03022116900489
:101AE2007274FFF0A37412F0A374E8F0900462E041
:101AF200FBA3E0FAA3E0F91253D6900465EEF0A33B
:101B0200EFF04E6008E4FDFCFFFE02211690047225
:101B120074FFF0A37412F0A374F3F0900462E0FB7C
:101B2200A3E0FAA3E0F91253D6900465EEF0A3EF16
:101B3200F04E60077F017E0002202A90047274FF3B
:101B4200F0A37412F0A374FDF0900462E0FBA3E032
:101B5200FAA3E0F91253D6900465EEF0A3EFF04E2B
:101B620060077F027E0002202A90047274FFF0A3B5
:101B72007413F0A37407F0900462E0FBA3E0FAA3ED
:101B8200E0F91253D6900465EEF0A3EFF04E700325
:101B9200021CA07BFF7A13790D126D9EE4900467FC
:101BA200F0A3F0900468E025E0FF900467E033FEC4
:101BB20074172FF58274013EF583E0FEA3E024DC66
:101BC200FDEE3405FC12243B900467E0FAA3E0FB2F
:101BD20090000075F00E122AF3EA75F00EA4258328
:101BE200F583122AB690000C75F00EEB122AF3EA76
:101BF20075F00EA42583F583E0FCA3E0FDEC12242E
:101C02003BE4FBFA79A0784112231BC004C005C053
:101C120006C007900467E0FEA3E0FF90000475F0A1
:101C22000E122AF3EE75F00EA42583F583E0F8A3D5
:101C3200E0F9A3E0FAA3E0FB90000075F00EEF12CA
:101C42002AF3EE75F00EA42583F583E0FCA3E0FDF4
:101C5200A3E0FEA3E0FF12211DD003D002D001D0E9
:101C62000012231B900467E0FAA3E090000875F0CD
:101C72000E122AF3EA75F00EA42583F583122AB612
:101C8200900468E004F07006900467E004F09004A9
:101C920067E07004A3E064086003021BA5229004BD
:101CA2007274FFF0A37413F0A3741DF0900462E049
:101CB200FBA3E0FAA3E0F91253D6900465EEF0A379
:101CC200EFF04E7003021DFC90039E7401F07BFF47
:101CD2007A13790D126D9EE4900467F0A3F09004DC
:101CE20067E0FAA3E0FBC39408EA94004003021DF4
:101CF200D990000075F00EEB122AF3EA75F00EA4EB
:101D02002583F583122AC244BB800090000C75F033
:101D12000EEB122AF3EA75F00EA42583F5837407FD
:101D2200F0A374D0F0900467E0FEA3E090000C757D
:101D3200F00E122AF3EE75F00EA42583F583E0FC73
:101D4200A3E0FDEC12243BE4FBFA79A078411223D4
:101D52001BC004C005C006C007900467E0FEA3E0F4
:101D6200FF90000475F00E122AF3EE75F00EA42512
:101D720083F583E0F8A3E0F9A3E0FAA3E0FB900087
:101D82000075F00EEF122AF3EE75F00EA42583F51E
:101D920083E0FCA3E0FDA3E0FEA3E0FF12211DD03F
:101DA20003D002D001D00012231B900467E0FAA3F3
:101DB200E090000875F00E122AF3EA75F00EA425E1
:101DC20083F583122AB6900468E004F0700690044A
:101DD20067E004F0021CE0900427E060047F0180C9
:101DE200027F027E00126620900427E070047F01C9
:101DF20080027F00900427EFF02290047274FFF0BB
:101E0200A37413F0A3742AF0900462E0FBA3E0FA37
:101E1200A3E0F91253D6900465EEF0A3EFF04E6002
:101E2200097BFF7A13793102205A90047274FFF011
:101E3200A37413F0A37435F0900462E0FBA3E0FAFC
:101E4200A3E0F91253D6900465EEF0A3EFF04E60D2
:101E52001690039EE07BFF70077A13793C02205AAA
:101E62007A13794A02205A90047274FFF0A3741311
:101E7200F0A37458F0900462E0FBA3E0FAA3E0F947
:101E82001253D6900465EEF0A3EFF04E6076E4A311
:101E9200F0A3F090047674FFF0A37413F0A37461BE
:101EA200F0900467E0FEA3E0FD900479EEF0A3ED6C
:101EB200F090000875F00E122AF3EE75F00EA425CC
:101EC20083F583E0FCA3E0FDA3E0FEA3E0FF900422
:101ED2007B122AB67B017A0379371235C87B017AE5
:101EE200037937126CBD900468E004F07006900428
:101EF20067E004F0C3900468E09408900467E094FB
:101F02000040902290047274FFF0A37413F0A37443
:101F12006FF07B017A0179301253D6900465EEF0AE
:101F2200A3EFF04E700302202D90047274FFF0A311
:101F32007413F0A37475F0A37401F0A37404F0A3F6
:101F4200746BF0A37401F0A37404F0A3746DF07BBE
:101F5200017A017930123A6FEF4E70030221199023
:101F6200046BE0FEA3E0FF64014E700F90043AF0B0
:101F7200A304F0A3E4F0A3740A8031EF64024E706C
:101F82001090043AF0A3740BF0A3E4F0A37414804D
:101F92004190046BE0FEA3E0FF64034E70209004C6
:101FA2003AF0A37415F0A3E4F0A3741EF090046D4C
:101FB200E0FDA3E090043ECDF0A3EDF08031EF64AC
:101FC200044E702090043AF0A3741FF0A3E4F0A32F
:101FD2007428F090046DE0FFA3E090043ECFF0A3DC
:101FE200EFF0800BE490043AF0A3F0A3F0A3F0909A
:101FF200043CE0FCA3E0FD90043AE0FEA3E0FF6DA8
:102002007002EE6C6022900436EEF0A3EFF09004C2
:102012003EE0FDA3E0900438CDF0A3EDF0E49003A0
:102022009EF090044704F02202662090047274FF2E
:10203200F0A37413F0A37481F0900462E0FBA3E0B8
:10204200FAA3E0F91253D6900465EEF0A3EFF04E36
:1020520060097BFF7A137987026CBD90047274FF6A
:10206200F0A37413F0A3749EF0900462E0FBA3E06B
:10207200FAA3E0F91253D6900465EEF0A3EFF04E06
:10208200605590047274FFF0A37413F0A374A5F06A
:10209200A37401F0A37404F0A3746BF0900462E0E3
:1020A200FBA3E0FAA3E0F9123A6FEF4E60699004E5
:1020B2006BE0FEA3E0FFC3940AEE64809480505765
:1020C20090039DEFF07D647C007F017E0012698A9F
:1020D200E4FDFCFFFE803D90047274FFF0A37413D4
:1020E200F0A374AFF0900462E0FBA3E0FAA3E0F97E
:1020F2001253D6900465EEF0A3EFF04E60199003F0
:102102009D740AF07D647C007F017E0012698AE47E
:07211200FDFCFFFE124D6809
:0121190022A3
:0B45920090045FEBF0A3EAF0A3E9F057
:10459D00E4A3F0A3F090045FE0FBA3E0FAA3E0F93D
:1045AD009000011227B6B4241A9000021227B6B457
:1045BD002111E4900116F0126F5F7BFF7A1379BC25
:1045CD0002476E90045FE0FBA3E0FAA3E0F99000D0
:1045DD00011227B6642460030246A590047274FF8D
:1045ED00F0A37413F0A374CFF0A37401F0A37404BB
:1045FD00F0A3743AF0A37401F0A37404F0A3743C17
:10460D00F0A37401F0A37404F0A3743EF0123A6F9A
:10461D00EF4E700302477190043CE0FEA3E0FF9063
:10462D00043AE0B5061EA3E0B507197B017A0079BF
:10463D00787F00FEE4FCFD90047A04F0A3E4F01210
:10464D00675280427E007F9F7D007B017A007978E2
:10465D00122C4E90045FE0FBA3E0FAA3E02401F9D5
:10466D00E43AFA78787C007D01122C3190045FE0F9
:10467D00FBA3E0FAA3E0F91270B474762FF58274FF
:10468D00003EF583E4F09001167438F0126F5F7BF5
:10469D00FF7A1379E002476E90045FE0FBA3E0FA26
:1046AD00A3E0F912613B900462EEF0A3EFF0F47019
:1046BD0002EEF4601590045FE0FBA3E0FAA3E0F9CD
:1046CD009000061227B6642360097BFF7A1379F1F7
:1046DD0002476E900463E07B00FA7C107D007F0042
:1046ED00FE122829ED4C70127C10FDFFAE0212282F
:1046FD0029EE3395E0FDFC1265B890045FE0FBA355
:10470D00E0FAA3E0F9900468747BF07D3C12702907
:10471D0090045FE0FBA3E0FAA3E0F9900468747DD8
:10472D00F07D3E12702990045FE0FBA3E0FAA3E058
:10473D00F91270B4EF2401FFE43E90046BF0A3EF87
:10474D00F090045FE0FBA3E0FAA3E0F9900463E0CE
:10475D007F00FE3395E0FDFC1257DB7BFF7A13796A
:04476D00F3126CBD1A
:014771002225
:0B613B00900464EBF0A3EAF0A3E9F08D
:10614600E4A3F0A3F0900464E0FBA3E0FAA3E0F973
:1061560012279D60676447705790046580419004DC
:1061660064E0FBA3E0FAA3E0F912279DFF64236035
:1061760036EF64246031EFFB7A00900467E0FEA3FB
:10618600E0FF7C007D0A122817EF2BFFEA3ECF24A2
:10619600D0CF34FF900467F0A3EFF0900465E47568
:1061A600F00112285F80B7900467E0FEA3E0FF22AB
:1061B600900465E475F00112285F80897EFF7FFFF9
:0161C60022B6
:105E200090046FEEF0A3EFF0A3ECF0A3EDF090047C
:105E300071E0FEA3E0FFD3900470E09FEE6480F871
:105E400090046FE064809840179004767401F0A38A
:105E50007404F0A37471F07B017A04796F126BBA49
:105E6000900471E0FEA3E0FFD3900470E09FEE6425
:105E700080F890046FE0648098504F7E027F047D2C
:105E8000007B017A017930122C4E7B017A01793046
:105E9000900470E07F00FE3395E0FDFC90047A747E
:105EA00001F0A3E4F01267527B017A017930126CA1
:105EB000BD7BFF7A1379F5126CBD900470E004F09D
:0B5EC000709E90046FE004F0809622BA
:0B6BBA00900473EBF0A3EAF0A3E9F0F5
:106BC50012288BFFAEF0900476E0FBA3E0FAA3E079
:106BD500F912288BFD900473E0FBA3E0FAA3E0F91A
:106BE500E5F08DF01228EE900476E0FBA3E0FAA321
:086BF500E0F9EE8FF00228EE3A
:105A830090046FEEF0A3EFF0A3ECF0A3EDF090041D
:105A930071E0FEA3E0FFD3900470E09FEE6480F812
:105AA30090046FE064809840179004767401F0A32B
:105AB3007404F0A37471F07B017A04796F126BBAEA
:105AC300C3900472E0947F900471E06480948040FA
:105AD30006E4F0A3747FF0900471E0FCA3E0FD9072
:105AE300046FE0FEA3E0FFD39DEC6480F8EE6480D6
:105AF300985048EE3395E0FDFC1265B89004767437
:105B0300FFF0A37413F0A374F8F090046FE0FFA305
:105B1300E0900479CFF0A3EFF07B017A0379371299
:105B230035C87B017A037937126CBD900470E004A9
:105B3300F070A490046FE004F0809C900450122A4B
:065B4300C2000000002278
:1066200090046FEEF0A3EFF07E027F047D007B010B
:106630007A017930122C4E7B017A01793090047006
:10664000E07F00FE3395E0FDFC90047A7401F0A336
:10665000E4F0126752122CF690047674FFF0A374E3
:1066600014F0A37406F090046FE0FFA3E0900479A7
:10667000CFF0A3EFF07B017A0379371235C87B01A5
:076680007A037937026CBDBB
:106C3F00900462122AB6E4FFFEFDFC900462E0F8B5
:106C4F00A3E0F9A3E0FAA3E0FB1223B86011400F11
:106C5F00900462E0FCA3E0FDA3E0FEA3E0FF22901E
:106C6F000462E0FCA3E0FDA3E0FEA3E0FF122425F5
:016C7F0022F2
:054A8B0090045FEFF054
:104A900075F00EA42408F582E43400F583E0FCA34D
:104AA000E0FDA3E0FEA3E0FFE4FBFAF9F81223B86F
:104AB0007003024BFB90045FE075F00EA42400F538
:104AC00082E43400F583E0FCA3E0FDA3E0FEA3E074
:104AD000FF122474900460EEF0A3EFF0D394C4EEC0
:104AE00064809489400C9004607409F0A374C4F04D
:104AF0008018C3900461E094F4900460E0648094B2
:104B00008150077401F0A374F4F0900460E0FCA3FA
:104B1000E0FDEC12243B90045FE075F00EA4240449
:104B2000F582E43400F583E0F8A3E0F9A3E0FAA30A
:104B3000E0FB12211D126C3FC004C005C006C00777
:104B400090045FE075F00EA42408F582E43400F5CB
:104B500083E0FCA3E0FDA3E0FEA3E0FFA804A90519
:104B6000AA06FB122121126C3FA804A905AA06ABD4
:104B700007D007D006D005D0041223B840379004E0
:104B800060E0FCA3E0FDEC12243B90045FE0FB75C9
:104B9000F00EA42404F582E43400F583122AB6EB67
:104BA00075F00EA42408F582E43400F583122AC2BD
:104BB000000000002290045FE075F00EA42404F5CC
:104BC00082E43400F583C083C082E0FCA3E0FDA34F
:104BD000E0FEA3E0FF90045FE075F00EA42408F56A
:104BE00082E43400F583E0F8A3E0F9A3E0FAA3E05F
:0B4BF000FB122121D082D083122AB6D4
:014BFB002297
:1056EF0090039BE0600D90039CE0FF124A8BE490C7
:1056FF00039BF0126360EF60030257DA90039EE0A2
:10570F0060030257DA900436E0FEA3E0FF12662032
:10571F0090043CE0FEA3E0FF90043AE0FCA3E0FD20
:10572F00C39FEC9E5047900436E0B50631A3E0B519
:10573F00072C900436ECF0A3EDF090043EE07002DD
:10574F00A3E070030257DA900439E024FFF09004CD
:10575F0038E034FFF0E07002A3E0706F80519004E6
:10576F0037E004F07065900436E004F02290043CBA
:10577F00E0FEA3E0FF900436E06E7003A3E06F70CD
:10578F003C90043AE0FFA3E0900436CFF0A3EFF093
:10579F0090043EE07002A3E06031900439E024FFF2
:1057AF00F0900438E034FFF0E07002A3E0701C903A
:1057BF00039E04F07BFF7A147918026CBD900437B6
:0C57CF00E024FFF0900436E034FFF022EC
:10636000900463122AC200000000E4900461F0A3CC
:10637000F0900461E0FEA3E0FFC39408EE64809413
:1063800080505AA3E0F8A3E0F9A3E0FAA3E0FB9061
:10639000000875F00EEF122AF3EE75F00EA42583B7
:1063A000F583E0FCA3E0FDA3E0FEA3E0FF122121C2
:1063B000900463122AB6900463E0FCA3E0FDA3E01E
:1063C000FEA3E0FFEC4D4E4F60037F01229004627C
:0F63D000E004F0709C900461E004F080947F0082
:0163DF00229B
:102CE70078307C017D017B017A037937122C317BA7
:052CF700017A017930B3
:0B2CFC00900471EBF0A3EAF0A3E9F0F4
:102D0700126D9E7BFF7A1379F5126D9E900471E028
:102D1700FBA3E0FAA3E0F912279D64236003022FC7
:102D2700C59000041227B664506003022FC59000B7
:102D3700051227B664536003022FC59000061227B9
:102D4700B664436003022FC59000071227B6644B91
:102D57006003022FC590000C1227B664216003029E
:102D67002FC59000021227B624D0FFE434FFFE7C63
:102D7700007D0A122817C006C0079000011227B667
:102D870024D0FFE434FFFE7D64122817D0E02FFF24
:102D9700D0E03EFE9000031227B624D0FDEC34FFAE
:102DA700CD2FFFED3E900474F0A3EFF090000A12D0
:102DB70027B624D0FFE434FFFE7D0A122817C00689
:102DC700C0079000091227B624D0FFE434FFFE7D28
:102DD70064122817D0E02FFFD0E03EFE90000B12C0
:102DE70027B624D0FDEC34FFCD2FFFED3EFE900437
:102DF7007EF0A3EFF0C3940CEE6480947E50030240
:102E0700356290047EE0FEA3E0FFD394F4EE648085
:102E170094814003023562C3900475E094089004DE
:102E270074E0940040030235629000081227B6FD53
:102E3700642B6011EDB42D0DC3E49FFFE49E900455
:102E47007EF0A3EFF0900474E0FEA3E09000047519
:102E5700F00E122AF3EE75F00EA42583F583E0FC3D
:102E6700A3E0FDA3E0FEA3E0FF7B637AF07930786F
:102E77003D122121C004C005C006C007900475E0BB
:102E870025E0FF900474E033FE74172FF582740178
:102E97003EF583E0FCA3E0FDEC12243BA804A90562
:102EA700AA06AB07D007D006D005D00412211DC053
:102EB70004C005C006C00790047EE0FCA3E0FDEC5B
:102EC70012243BD003D002D001D00012212190045C
:102ED70084122AB690047EE0FCA3E0FD900475E01E
:102EE70025E0FF900474E033FE74172FF582740118
:102EF7003EF583ECF0A3EDF07F007E107D1C7C4552
:102F0700900484E0F8A3E0F9A3E0FAA3E0FB12231E
:102F1700B8600E400C900484122AC2451C10008031
:102F270024E4FFFE7DFA7C43900484E0F8A3E0F9F3
:102F3700A3E0FAA3E0FB1223B8500A900484122AF4
:102F4700C243FA0000900484E0FCA3E0FDA3E0FE86
:102F5700A3E0FF900474E0FAA3E0FB90000075F093
:102F67000E122AF3EA75F00EA42583F583122AB60A
:102F7700900484E0FCA3E0FDA3E0FEA3E0FF900043
:102F87000475F00EEB122AF3EA75F00EA42583F50B
:102F970083122AB690000875F00EEB122AF3EA7531
:102FA700F00EA42583F583122AC2000000001271D7
:102FB7005D900442122AB69004467401F0229004F0
:102FC70071E0FBA3E0FAA3E0F912279D64236003F5
:102FD7000230C09000041227B6645060030230C06C
:102FE7009000051227B6644460030230C0900006C3
:102FF7001227B6645360030230C09000071227B649
:10300700645460030230C09000021227B624D0FF38
:10301700E434FFFE7C007D0A122817C006C0079023
:1030270000011227B624D0FFE434FFFE7D64122886
:1030370017D0E02FFFD0E03EFE9000031227B62402
:10304700D0FDEC34FFCD2FFFED3EFE900474F0A3CE
:10305700EFF0C39408EE94004003023562900474C5
:10306700E0FAA3E0FB90000475F00E122AF3EA756C
:10307700F00EA42583F583E0FCA3E0FDA3E0FEA307
:10308700E0FF90000075F00EEB122AF3EA75F00EE0
:10309700A42583F583122AB6900474E0FEA3E0907A
:1030A700000875F00E122AF3EE75F00EA42583F5CD
:1030B70083122AC20000000022E4900478F0A3F0F3
:1030C70090047CF0A3F0900471E0FBA3E0FAA3E086
:1030D700F9900478E0FEA3E0F5828E831227B6FF0D
:1030E700700302356264237076900478A3E0FFA32F
:1030F700EEF0A3EFF0E4900474F0A3F0900479E00D
:1031070004F07006900478E004F0900471E0FBA3EB
:10311700E0FAA3E0F9900478E0FEA3E0F5828E835D
:103127001227B6FF60A06450609CEFFB7A00900402
:1031370074E0FEA3E0FF7C007D0A122817EF2BFF47
:10314700EA3ECF24D0CF34FF900474F0A3EFF09081
:103157000479E004F070B3900478E004F080AB9059
:103167000471E0FBA3E0FAA3E0F9900478E0FEA382
:10317700E0F5828E831227B66450600302322190F5
:103187000480122AC200000000900479E004F07065
:1031970006900478E004F0900471E0FBA3E0FAA342
:1031A700E0F9900478E0FEA3E0F5828E831227B65B
:1031B700FF70030230CD645470030230CD90047861
:1031C700A3E0F5828E831227B6FCE4122440C004E4
:1031D700C005C006C007E4FFFE7D207C4190048047
:1031E700E0F8A3E0F9A3E0FAA3E0FB122212D00370
:1031F700D002D001D000122121E4FBFA794078C235
:10320700122121900480122AB6900479E004F0700C
:1032170086900478E004F002319E900471E0FBA3ED
:10322700E0FAA3E0F9900478E0FEA3E0F5828E834C
:103237001227B664546003023551900476F0A3F068
:10324700900479E004F07006900478E004F09004AC
:1032570071E0FBA3E0FAA3E0F9900478E0FEA3E0B5
:10326700F5828E831227B6FF603964216035EFFB44
:103277007A00900476E0FEA3E0FF7C007D0A122826
:1032870017EF2BFFEA3ECF24D0CF34FF900476F020
:10329700A3EFF0900479E004F070B3900478E004B1
:1032A700F080ABC3900475E09408900474E0940038
:1032B70040030230CD7F007E407D1C7C459004801A
:1032C700E0F8A3E0F9A3E0FAA3E0FB1223B8600556
:1032D70040030230CDE4FFFE7DFA7C43900480E09A
:1032E700F8A3E0F9A3E0FAA3E0FB1223B850030226
:1032F70030CD900477E09410900476E09427400353
:103307000230CD900474E0FEA3E090000475F00E47
:10331700122AF3EE75F00EA42583F583E0FCA3E0F3
:10332700FDA3E0FEA3E0FF900480E0F8A3E0F9A38B
:10333700E0FAA3E0FB1223B8701F900480E0FCA31F
:10334700E0FDA3E0FEA3E0FF7B5F7A29794B783BA2
:10335700122121900480122AB6900480E0F8A3E09D
:10336700F9A3E0FAA3E0FBC000C001C002C00390CC
:103377000475E025E0FF900474E033FE74172FF521
:103387008274013EF583E0FCA3E0FDEC12243BD000
:1033970003D002D001D000122121900480122AB656
:1033A7007F007E107D1C7C45900480E0F8A3E0F947
:1033B700A3E0FAA3E0FB1223B8600C400A90048054
:1033C700122AC2451C1000E4FFFE7DFA7C439004DC
:1033D70080E0F8A3E0F9A3E0FAA3E0FB1223B850DA
:1033E7000A900480122AC243FA0000C3900477E0CF
:1033F7009414900476E09400900480E0FC5067A356
:10340700E0FDA3E0FEA3E0FF900474E0FAA3E0FB75
:1034170090000075F00E122AF3EA75F00EA42583CA
:10342700F583122AB6900480E0FCA3E0FDA3E0FE3A
:10343700A3E0FF90000475F00EEB122AF3EA75F093
:103447000EA42583F583122AB690000875F00EEBBB
:10345700122AF3EA75F00EA42583F583122AC20017
:103467000000000230CDA3E0FDA3E0FEA3E0FF9043
:103477000474E0FAA3E0FB90000075F00E122AF343
:10348700EA75F00EA42583F583122AB6900476E038
:10349700FEA3E0FF90000C75F00EEB122AF3EA751D
:1034A700F00EA42583F583EEF0A3EFF090000C75E2
:1034B700F00EEB122AF3EA75F00EA42583F583E0EC
:1034C700FCA3E0FDEC12243BE4FBFA79A07841125F
:1034D700231BC004C005C006C007900474E0FEA308
:1034E700E0FF90000475F00E122AF3EE75F00EA4BB
:1034F7002583F583E0F8A3E0F9A3E0FAA3E0FB90C6
:10350700000075F00EEF122AF3EE75F00EA4258376
:10351700F583E0FCA3E0FDA3E0FEA3E0FF12211D7D
:10352700D003D002D001D00012231B900474E0FA1C
:10353700A3E090000875F00E122AF3EA75F00EA4C6
:103547002583F583122AB60230CD900479E004F082
:0B3557007006900478E004F00230CD14
:013562002246
:1070290012279D6013B50507900468E01227E374E1
:097039000129F9E43AFA80E82289
:1066EE0012715D900428E0F8A3E0F9A3E0FAA3E0AC
:1066FE00FBC3EF9BFFEE9AFEED99FDEC98FCE47B5D
:10670E00F47A01F9F8D3122A65503812715D9004AB
:10671E0028122AB67F07126F10900432EEF0A3EF04
:10672E00F0FDAC06E412243B7B007AC0797F7844FE
:10673E0012231BE4FBFA79A078411222129004482E
:03674E00122AB656
:016751002225
:106F5F007FFF7EFF7DFF7CFF1265B87B017A007992
:106F6F007090046BE4F0A374C0F07F007EF07DFF9F
:056F7F007CFF0257DB5E
:1049070090042CE07003024A8A12715D90042EE035
:10491700F8A3E0F9A3E0FAA3E0FBC3EF9BFFEE9A4D
:10492700FEED99FDEC98FCE47BF47A01F9F8C312EB
:104937002A65502690042DE0702012715D90042E98
:10494700122AB67F807E257D007C001267B5127122
:10495700EE7BFF7A1479240249EB12715D90042EE5
:10496700E0F8A3E0F9A3E0FAA3E0FBC3EF9BFFEEB7
:104977009AFEED99FDEC98FCE47BF47A01F9F8C313
:10498700122A65501E90042DE0B4011712715D9034
:10499700042E122AB67F007EC27D017C001267B505
:1049A700024A3412715D90042EE0F8A3E0F9A3E007
:1049B700FAA3E0FBC3EF9BFFEE9AFEED99FDEC989F
:1049C700FCE47BF47A01F9F8C3122A65501B9004C2
:1049D7002DE0B4021412715D90042E122AB67BFFEB
:1049E7007A14792F126DD5804412715D90042EE0F0
:1049F700F8A3E0F9A3E0FAA3E0FBC3EF9BFFEE9A6D
:104A0700FEED99FDEC98FCE47BF47A01F9F8C3120A
:104A17002A65502090042DE0B4031912715D9004AB
:104A27002E122AB67BFF7A147947126DD590042D82
:104A3700E004F02212715D90042EE0F8A3E0F9A3E0
:104A4700E0FAA3E0FBC3EF9BFFEE9AFEED99FDECC6
:104A570098FCE47BF47A01F9F8C3122A6550249094
:104A6700042DE0B4041D12715D90042E122AB67B4A
:104A7700FF7A14795E126DD590042DE004F0E4906E
:034A8700042CF00C
:014A8A002209
:0400960075C76022A8
:10709F007401A807088002C333D8FCF59DE4F5BD41
:0570AF0075BC80FF220A
:106F1000AE0712709FEE4488F5BC00000000E5BC8F
:106F200030E4FB53BCEFAFBDEF75F004A4ADBE7C05
:086F3000002DFFEC35F0FE22FC
:0B719600EF1FAC0670011E4C70F622CB
:10711900EF1FAA0670011E4A60087D031DED60F08D
:0271290080FAEA
:01712B002241
:106FEB00E4FDFCC3ED9FEC9E5015E4FBFA0BBB00DC
:0F6FFB00010ABA03F8BBE8F50DBD00010C80E4F4
:01700A002263
:104C850041039B0041039C0041039DFF41039E019D
:054C950042039F000036
:106A8C00E4FBEB75F00EA42400F582E43400F583EE
:106A9C00122AC244BBA000EB75F00EA42404F582AC
:106AAC00E43400F583122AC244BBA000EB75F00E4F
:106ABC00A42408F582E43400F583122AC2000000F5
:0F6ACC00000BEBB408BCE4900334F0A3F0A3F08C
:016ADB002298
:0B53D60090046FEBF0A3EAF0A3E9F0F5
:1053E100900475EBF0A3EAF0A3E9F0900472E0F900
:1053F100A3E0FAA3E0900478C9F0A3EAF0A3E9F0EE
:10540100900475E0FBA3E0FAA3E0F912279DFF7079
:10541100030254EB900478E0FBA3E0FAA3E0F91255
:10542100279D6F60030254DE900478E0FBA3E0FA4D
:10543100A3E0F912279D6078900478A3E475F00148
:10544100122875A9F0FA12279DFF900475E0FBA3BD
:10545100E475F001122875A9F0FA12279D6F60C852
:10546100900472A3E0FAA3E0AE02FF900478A3E0F7
:10547100FAA3E0C39FFFEA9EFE900475E0FBA3E060
:10548100FAA3E0C39FF9EA9EFAE92401F9E43AFAA2
:10549100900475EBF0A3EAF0A3E9F0900472E0F94F
:1054A100A3E0FAA3E0900478C9F0A3EAF0A3E9F03D
:1054B100900478E0FBA3E0FAA3E0F912279D6003D2
:1054C10002540190046FA3E0FAA3E0AE02FF90043E
:1054D10075A3E0FAA3E0C39FFFEA9EFE2290047643
:0D54E100E475F00112285F025401E4FEFFA3
:0154EE00229B
:08501F00900464ECF0A3EDF035
:10502700E4A3F0A3F0900465E024FFFF900464E09C
:1050370034FFFEC3900467E09FEE6480F890046637
:10504700E0648098400302515DE0FEA3E0FF900416
:105057006AEEF0A3EFF02401FFE43E900468F0A3AA
:10506700EFF0900464E0FEA3E0FF900468E0FCA387
:10507700E0FDC39FEE6480F8EC648098504DED2509
:10508700E0FFEC338F82F5831228B6FDACF0900475
:105097006BE025E0FF90046AE0338F82F5831228E6
:1050A700B6D39DEC6480F8E5F0648098400D9004D9
:1050B70068E0FFA3E0A3CFF0A3EFF0900469E0045A
:1050C700F0709F900468E004F08097900466E0FE1B
:1050D700A3E0FF90046AE0FCA3E0FD6F7002EC6EB2
:1050E7006060ED25E0FFEC338F82F5831228B6FF71
:1050F70090046CE5F0F0A3EFF0900467E025E0FF83
:10510700900466E0338F82F5831228B6FD90046B16
:10511700E025E0FF90046AE0338F82F583E5F08DA8
:10512700F012290D90046CE0FCA3E0FD900467E009
:1051370025E0FF900466E0338F82F583EC8DF01253
:10514700290D900467E004F0600302502C90046678
:06515700E004F002502C00
:01515D00222F
:1070C900D3EF9400EE64809480400122C3E49FFFD3
:0470D900E49EFE2211
:106FA800E4F593759430F591F592F59575961EF57F
:106FB800B175B290F5B3F5B4F5C975CA0CD280D2E3
:026FC800C422E1
:0D000E00D2C8D2B4D284D2CBD285D2CA22BD
:106CF800EF14601614601914601C14601F146022CD
:106D080024057023ED24FF92C822ED24FF92B422BB
:106D1800ED24FF928422ED24FF92CB22ED24FF92F2
:086D28008522ED24FF92CA222E
:0E698A0090046FEEF0A3EFF0A3ECF0A3EDF09D
:10699800E4A3F0A3F090046FE0FEA3E0FFC390042B
:1069A80074E09FEE6480F8900473E0648098502A45
:1069B800C2C9900471E0FEA3E0FF126FEBD2C99048
:1069C8000471E0FEA3E0FF126FEB900474E004F0A2
:0A69D80070C3900473E004F080BB6C
:0169E2002292
:0771D900D2A7D2C5D2A62205
:0963E000F9EF1227F512279DFFC9
:1063E900900463EFF0E4900462F0900464F0900488
:1063F90064E0FFC39408505574017E00A807088023
:1064090005C333CE33CED8F9FF900463E0FDEF5DC9
:1064190024FF92C5D2A6C2A67F0A7E00127196D227
:10642900A630C21A900462E0FF900464E0FE740191
:10643900A806088002C333D8FC4F900462F07F0A93
:106449007E00127196900464E004F080A1900462C9
:02645900E0FF62
:01645B00221E
:105D700090045FEBF0A3EAF0A3E9F0C2A77F011261
:105D800063E990045FE0FBA3E0FAA3E0F9EF1227D8
:105D9000E37F421263E990045FE0FBA3E0FAA3E033
:105DA0009000011263E090045FE0FBA3E0FAA3E03F
:105DB0009000021263E090045FE0FBA3E0FAA3E02E
:105DC000F99000031263E190045FE0FBA3E0FAA303
:105DD000E0F99000041263E190045FE0FBA3E0FAB5
:105DE000A3E0F99000051263E190045FE0FBA3E0FB
:105DF000FAA3E0F99000061263E190045FE0FBA3D0
:105E0000E0FAA3E0F99000071263E190045FE0FB81
:105E1000A3E0FAA3E0F9900008EF1227F5D2A72239
:104D6800900471ECF0A3EDF090046FEEF0A3EFF077
:104D7800C394E8EE64809483400C90046F7403F04D
:104D8800A374E7F0802990046FE0FEA3E0FFD394BA
:104D980018EE6480947C500C90046F74FCF0A3743B
:104DA80019F0800BEF4E700790046FF0A304F09099
:104DB8000471E0FEA3E0FFC394E8EE6480948340AE
:104DC8000C9004717403F0A374E7F08022D3EF947D
:104DD80018EE6480947C500C90047174FCF0A374F9
:104DE80019F0800BEF4E7007900471F0A304F09057
:104DF800046FE0FEA3E0FFC3E49FFFE49EFE90047F
:104E08006FF0A3EFF0A3E0FCA3E0FDC3E49DFDE495
:104E18009C900471F0A3EDF0D3EF94E2EE648094DB
:104E28007F4014900470E0941E90046FE0648094B6
:104E3800805004E4F0A3F0900471E0FEA3E0FFD3F7
:104E480094E2EE6480947F4011EF941EEE648094A7
:104E5800805007E4900471F0A3F0900471E0FEA381
:104E6800E0FFD39400EE648094804007126E65E4FE
:104E7800FF8014E4FFFE126E65900471E0FEA3E06B
:104E8800FFC3E49FFFE49EFE126E3A90046FE0FEBB
:104E9800A3E0FFD39400EE648094804007126E90E4
:104EA800E4FF8014E4FFFE126E9090046FE0FEA30E
:0C4EB800E0FFC3E49FFFE49EFE126EBB0F
:014EC40022CB
:1069E30043BA8090FFF2741FF090FFF0EEF0A3EF34
:1069F300F090FF00E4F0A304F0A3E4F0A3F0A3F00D
:106A030090FF10F0A304F0A3E4F0A3F0A3F090FF31
:106A130020F0A304F0A3E4F0A3F0A3F090FF30F080
:106A2300A304F0A3E4F0A3F0A3F0F5F175F50F438D
:066A3300F58053BA7F223A
:106E3A00EF4E700653F5FEC2B722C3EF94E8EE9404
:106E4A0003400653F5FED2B72243BA8090FF00EE04
:0B6E5A00F0A3EFF053BA7F43F50122D4
:106E6500EF4E700653F5FDC2A122C3EF94E8EE94F0
:106E750003400653F5FDD2A12243BA8090FF10EEE0
:0B6E8500F0A3EFF053BA7F43F50222A8
:106E9000EF4E700653F5FBC2A222C3EF94E8EE94C6
:106EA00003400653F5FBD2A22243BA8090FF20EEA6
:0B6EB000F0A3EFF053BA7F43F504227B
:106EBB00EF4E700653F5F7C2A322C3EF94E8EE949E
:106ECB0003400653F5F7D2A32243BA8090FF30EE6E
:0B6EDB00F0A3EFF053BA7F43F508224C
:10645C004E6F20436F6C6F72210047657420436F41
:10646C006C6F722100726564203D20256420677278
:10647C006E203D20256420626C75203D2025640D26
:10648C000A00244447543A332D31312C3121006118
:10649C0064635F79737362203D2025640D0A0024C8
:1064AC004447543A31322D31382C312100244447A1
:1064BC00543A31392D32372C312100244447543A87
:0964CC0032382D33362C31210049
:104C9A004A03A1000000000000000000004A03AB24
:104CAA00000000000000000000004203B500004AB6
:104CBA0003B9000000000000000000004403C50022
:104CCA000000004403C9000000004403CD000000B6
:104CDA00004403D1000000004103D5004103D6007F
:104CEA004403D8000000004403DC00000000440331
:104CFA00E2000000004403E6000000004203EA006C
:104D0A00004403EC000000004403F00000003241BC
:104D1A0003F4004103F5004103F7004403F80000DF
:104D2A0000004403FC0000000044040000000000EE
:01009A002243
:017214002257
:03720B00027042CC
:105C0A007F0212709F900129E0642960257429F0AF
:105C1A00900406E4F0A37484F0A3E4F0A374A8F05B
:105C2A00A3E4F0A374B4F0126F5F7BFF7A64795C2B
:105C3A00803390012AE0FFA3E0900406CFF0A3EF9F
:105C4A00F090012CE0FFA3E0900408CFF0A3EFF05E
:105C5A0090012EE0FFA3E090040ACFF0A3EFF07BBF
:105C6A00FF7A647966126CBD90047674FFF0A374AF
:105C7A0064F0A37471F0900406E0FFA3E090047945
:105C8A00CFF0A3EFF0900408E0FFA3E090047BCFED
:105C9A00F0A3EFF090040AE0FFA3E090047DCFF0B8
:105CAA00A3EFF07B017A0179301235C87B017A01C2
:055CBA007930026CBD11
:0C718A0012009A12721412720B025C0ABE
:1064D50090039DE0700302693090039DE0B40103D1
:1064E5000255FE90039DE0B4020302668790039D6A
:1064F500E0B4030302407290039DE0B40403026517
:106505004C90039DE0B405030260A590039DE0B4A3
:106515000603026B2790039DE0B4070302433A90FC
:10652500039DE0B40803025B4990039DE0B40903B1
:1065350002477290039DE0B40A0C90039E7401F02B
:0765450090039D74FFF0229A
:105CBF007F02126F10AC06AD079003B6E025E0FF30
:105CCF009003B5E033FE74A12FF58274033EF58384
:105CDF00ECF0A3EDF074A12FF58274033EF583E091
:105CEF00FCA3E0FD74AB2FF58274033EF583ECF05B
:105CFF00A3EDF09003B6E004F070069003B5E00456
:105D0F00F09003B5E07004A3E0640570069003B54E
:105D1F00F0A3F07B017A0379A17D057C0012501F5F
:105D2F009003A5E0FFA3E09003B7CFF0A3EFF0E45B
:105D3F00FFEF25E024ABF582E43403F583E0FCA309
:105D4F00E0FDEF25E024A1F582E43403F583ECF0C8
:105D5F00A3EDF00FEFB405D99003B7E0FEA3E0FF7A
:015D6F002211
:10625300E4FFFEFDFC7B7890039FF0A3F0F58BF544
:106263008DD296AA031BEA70FAC2963091FDD28EA4
:106273002091FDC28E90039FE0FEA3E0FFE4FCFDAE
:10628300FBFA7901F812293AA804A905AA06AB0773
:10629300AF8DEFFEAD8B7C00E42DFFEC3EFEE4FD05
:1062A300EB2FFFEA3EFEED39FDEC38FC1224367B82
:1062B300687A2F7939783D122212122474AD07AC13
:1062C30006E412243B7B7B7A14792E783E12221249
:0A62D300E4F58BF58DC28F122474E0
:0162DD00229E
:036B7100122AB62F
:106B7400E4900463F0126253900463E025E024B9C6
:106B8400F582E43403F583EEF0A3EFF0900463E0C0
:106B940004F0E0C3940540DD7B017A0379B97D05F7
:106BA4007C0012501F9003BDE0FEA3E0FF9003C3DE
:056BB400EEF0A3EFF07C
:016BB90022B9
:106930009004617402F0A37458F020861A3087170F
:10694000900461E0FCA3E0FD24C8FFE43CFEED24DC
:1069500038FDEC34FF802E30861030870D900461B6
:10696000E0FCA3E0FDFFAE04801C30861C208719EC
:10697000900461E0FCA3E0FD2438FFEC34FFFEED61
:0969800024C8FDE43CFC124D6842
:0169890022EB
:106B270012715D9003C5E0F8A3E0F9A3E0FAA3E0D2
:106B3700FBC3EF9BFFEE9AFEED99FDEC98FCE47B1F
:106B470032FAF9F8C3122A65501F12715D9003C516
:106B5700126B71C3EF94FAEE648094805008E4FDE1
:096B6700FCFFFE024D68126930CA
:016B70002202
:1060A50090045F7402F0A37458F012715D9003C9F7
:1060B500E0F8A3E0F9A3E0FAA3E0FBC3EF9BFFEE52
:1060C5009AFEED99FDEC98FCE47B14FAF9F8C312FD
:1060D5002A65506112715D9003C9126B719004615C
:1060E500EEF0A3EFF0D3942CEE64809481401AE097
:1060F50094BC900461E064809482500D90045FE04C
:10610500FCA3E0FDFFAE048029C3900462E094C8BF
:10611500900461E064809480501390045FE0FEA3D6
:10612500E0FFC3E49FFDE49EFCAF058004E4FDFCB5
:05613500FFFE124D68A1
:01613A002242
:1066870090045F7403F0A37484F012715D9003CDDE
:10669700E0F8A3E0F9A3E0FAA3E0FBC3EF9BFFEE6A
:1066A7009AFEED99FDEC98FCE47B64FAF9F8C312C5
:1066B7002A65503212715D9003CD122AB6126B749F
:1066C700C3EF94F4EE6480948190045FE0500DFE74
:1066D700A3E0FFC3E49FFDE49EFC8007FCA3E0FD6D
:0666E700FFAE04124D6835
:0166ED00228A
:10654C0090039EE06065126360EF705F12715D9066
:10655C0003D1E0F8A3E0F9A3E0FAA3E0FBC3EF9BBF
:10656C00FFEE9AFEED99FDEC98FCE47B14FAF9F839
:10657C00C3122A65503512715D9003D1122AB612DE
:10658C006B74D3EF9482EE64809480401EEF94AAD7
:10659C00EE6480948050147BFF7A64798E121557C8
:0B65AC007D647C007F017E0012698A84
:0165B70022C1
:1040720090039EE07003024339126360EF60030213
:10408200433912715D9003DCE0F8A3E0F9A3E0FA92
:10409200A3E0FBC3EF9BFFEE9AFEED99FDEC98FCCB
:1040A200E47B14FAF9F8C3122A65502812715D9064
:1040B20003DC122AB69003D5E004F0125CBF900331
:1040C200E0EEF0A3EFF09003D5E0C394054005E4E1
:1040D200F0A304F012715D9003D8E0F8A3E0F9A315
:1040E200E0FAA3E0FBC3EF9BFFEE9AFEED99FDEC35
:1040F20098FCE47B64FAF9F8C3122A654003024390
:10410200399003D6E06401600302433912715D9075
:1041120003D8122AB6E49003D6F090047674FFF026
:10412200A37464F0A3749BF09003E0E0FFA3E0901B
:104132000479CFF0A3EFF07B017A0179301235C810
:104142007B017A017930126CBD900406E0FEA3E097
:10415200FF24F6FDEE34FFFC9003E0E0FAA3E0FB5F
:10416200D39DEC6480F8EA64809850030241EEEF3C
:10417200240AFFE43EFEC3EB9FEE6480F8EA64800B
:10418200985069E49003D7F0125CBF9003E0EEF020
:10419200A3EFF07F147E00126FEB9003D7E004F0E0
:1041A200E0C3940540E2900406E0FEA3E0FF24F69B
:1041B200FDEE34FFFC9003E0E0FAA3E0FBD39DECBC
:1041C2006480F8EA6480985003024339EF240AFFBE
:1041D200E43EFEC3EB9FEE6480F8EA6480984003FD
:1041E2000243397BFF7A6479AB02432B900408E0E7
:1041F200FEA3E0FF24F6FDEE34FFFC9003E0E0FABC
:10420200A3E0FBD39DEC6480F8EA6480985003023B
:104212004291EF240AFFE43EFEC3EB9FEE6480F876
:10422200EA6480985069E49003D7F0125CBF90036F
:10423200E0EEF0A3EFF07F147E00126FEB9003D755
:10424200E004F0E0C3940540E2900408E0FEA3E03D
:10425200FF24F6FDEE34FFFC9003E0E0FAA3E0FB5E
:10426200D39DEC6480F8EA6480985003024339EFEE
:10427200240AFFE43EFEC3EB9FEE6480F8EA64800A
:104282009840030243397BFF7A6479B902432B9049
:10429200040AE0FEA3E0FF24F6FDEE34FFFC9003E7
:1042A200E0E0FAA3E0FBD39DEC6480F8EA64809836
:1042B2005003024339EF240AFFE43EFEC3EB9FEEB4
:1042C2006480F8EA648098506EE49003D7F0125C40
:1042D200BF9003E0EEF0A3EFF07F147E00126FEBCD
:1042E2009003D7E004F0E0C3940540E290040AE0B2
:1042F200FEA3E0FF24F6FDEE34FFFC9003E0E0FABB
:10430200A3E0FBD39DEC6480F8EA6480984028EF38
:10431200240AFFE43EFEC3EB9FEE6480F8EA648069
:104322009850147BFF7A6479C71215577D647C001C
:074332007F017E0012698A81
:014339002261
:1055FE0090039EE070030256EE126360EF600302AA
:10560E0056EE12715D9003E2E0F8A3E0F9A3E0FA22
:10561E00A3E0FBC3EF9BFFEE9AFEED99FDEC98FC29
:10562E00E47B0AFAF9F8C3122A65503212715D90C2
:10563E0003E2122AB62090269003EBE004F07006E7
:10564E009003EAE004F03090FD9003EAE07004A3CA
:10565E00E06401700912715D9003E6122AB61271B0
:10566E005D9003E6E0F8A3E0F9A3E0FAA3E0FBC344
:10567E00EF9BFFEE9AFEED99FDEC98FCE47BE87A49
:10568E0003F9F8C3122A65505712715D9003E612A2
:10569E002AB6D39003EBE094019003EAE064809481
:1056AE008040117BFF7A6479C71215577D647C00A8
:1056BE007F028020D39003EBE094009003EAE06435
:1056CE0080948040147BFF7A6479B91215577D64FB
:1056DE007C007F017E0012698AE49003EAF0A3F059
:0156EE002299
:105B490090039EE07003025C09126360EF60030238
:105B59005C09126B7490045FEEF0A3EFF012715DB3
:105B69009003ECE0F8A3E0F9A3E0FAA3E0FBC3EFAC
:105B79009BFFEE9AFEED99FDEC98FCA3E0F8A3E0FB
:105B8900F9A3E0FAA3E0FBC3122A65507312715D11
:105B99009003EC122AB6E47FD07E07FDFC9003F057
:105BA900E0F8A3E0F9A3E0FAA3E0FBD3122A6540E9
:105BB9000B7D2C7C017F017E0012698A90045FE0D5
:105BC900FEA3E0FFD39455EE648094804025EF94C2
:105BD90073EE64809480501BE4FDFCFFFE124D6857
:105BE9009003F0122AC2000027107BFF7A64798E95
:105BF9000215571269309003F0122AC200000032D0
:015C09002278
:10433A0090039EE07003024591126360EF600302EE
:10434A00459112715D9003FCE0F8A3E0F9A3E0FA4D
:10435A00A3E0FBC3EF9BFFEE9AFEED99FDEC98FC00
:10436A00E47B14FAF9F8C3122A65502812715D9099
:10437A0003FC122AB69003F4E004F0125CBF900426
:10438A0004EEF0A3EFF09003F4E0C394054005E4D3
:10439A00F0A304F012715D9003F8E0F8A3E0F9A32A
:1043AA00E0FAA3E0FBC3EF9BFFEE9AFEED99FDEC6A
:1043BA0098FCE47B64FAF9F8C3122A6540030245C3
:1043CA00559003F5E06401600302455512715D9052
:1043DA0003F8122AB6E49003F5F0900406E0FEA36F
:1043EA00E0FF24F6FDEE34FFFC900404E0FAA3E0BB
:1043FA00FBD39DEC6480F8EA6480985003024495EC
:10440A00EF240AFFE43EFEC3EB9FEE6480F8EA6401
:10441A0080985077E4FDFCFFFE124D68E49003F6A5
:10442A00F0125CBF900404EEF0A3EFF07F147E005C
:10443A00126FEB9003F6E004F0E0C3940540E290BB
:10444A000406E0FEA3E0FF24F6FDEE34FFFC900430
:10445A0004E0FAA3E0FBD39DEC6480F8EA64809858
:10446A005003024555EF240AFFE43EFEC3EB9FEEDC
:10447A006480F8EA64809840030245559003F77413
:10448A0001F07BFF7A6479B902454090040AE0FEA4
:10449A00A3E0FF24F6FDEE34FFFC900404E0FAA347
:1044AA00E0FBD39DEC6480F8EA64809850030245EF
:1044BA0050EF240AFFE43EFEC3EB9FEE6480F8EA65
:1044CA006480984003024550E4FDFCFFFE124D68EB
:1044DA00E49003F6F0125CBF900404EEF0A3EFF050
:1044EA007F147E00126FEB9003F6E004F0E0C394B1
:1044FA000540E290040AE0FEA3E0FF24F6FDEE3454
:10450A00FFFC900404E0FAA3E0FBD39DEC6480F87E
:10451A00EA6480984035EF240AFFE43EFEC3EB9F2D
:10452A00EE6480F8EA64809850219003F77401F0F1
:10453A007BFF7A6479C71215577D647C007F017E00
:10454A000012698A8005E49003F7F09003F7E0709F
:10455A003612715D900400E0F8A3E0F9A3E0FAA333
:10456A00E0FBC3EF9BFFEE9AFEED99FDEC98FCE4AD
:10457A007B32FAF9F8C3122A65500C12715D900465
:07458A0000122AB61269308D
:014591002207
:104772007DE87C037F017E0012698AE4900461F087
:10478200A3F0125CBF90045FEEF0A3EFF07F0A7E0D
:1047920000126FEB900462E004F07006900461E096
:1047A20004F0C3900462E094F4900461E094014048
:1047B200D190045FE0FFA3E0900406CFF0A3EFF0F6
:1047C2007DE87C037F017E0012698A7D2C7C017F5B
:1047D200027E0012698AE4900461F0A3F0125CBFC9
:1047E20090045FEEF0A3EFF07F0A7E00126FEB9071
:1047F2000462E004F07006900461E004F0C39004E7
:1048020062E094F4900461E0940140D190045FE08E
:10481200FFA3E0900408CFF0A3EFF07DE87C037FD4
:10482200017E0012698A7DC87C007F037E001269C6
:104832008AE4900461F0A3F0125CBF90045FEEF092
:10484200A3EFF07F0A7E00126FEB900462E004F0A7
:104852007006900461E004F0C3900462E094F49066
:104862000461E0940140D190045FE0FFA3E0900472
:104872000ACFF0A3EFF07DE87C037F017E0012698E
:104882008A900406E0FFA3E090012ACFF0A3EFF0A4
:10489200900408E0FFA3E090012CCFF0A3EFF0908A
:1048A200040AE0FFA3E090012ECFF0A3EFF0126F15
:1048B2005F90047674FFF0A37464F0A37471F090B7
:1048C2000406E0FFA3E0900479CFF0A3EFF0900498
:1048D20008E0FFA3E090047BCFF0A3EFF090040A7E
:1048E200E0FFA3E090047DCFF0A3EFF07B017A011B
:1048F20079301235C87B017A017930126CBD900390
:044902009D740AF0A6
:01490600228E
:0B4D3A004404C1000000004104C00060
:10704200438E805389F0438901758AAA758CAAC23E
:087052008DD28CD2A9D2AF222D
:1070DD00438E4053890FE4F58BF58DC28FD28ED23E
:0470ED00ABD2AF2251
:10712C0043D10275D59A75D4A943D10843AF20D267
:02713C00AF2280
:106D670090045DEEF0A3EFF0FDAC06EC12243B7B44
:106D77009A7A9979A57841122212A804A905AA0638
:106D8700AB077F007EFF7D7F7C4712211D12247495
:076D97008F8AEEFF8F8C22B2
:0F715D009004C1E0FCA3E0FDA3E0FEA3E0FF224D
:03000B000259ABEC
:1059AB00C0E0C0F0C083C082C0D075D000C000C0C2
:0D59BB0001C002C003C004C005C006C00743
:1059C80090039CE0C394084002E4F09004C0E070A7
:1059D8003490039CE075F00EA42404F582E43400AE
:1059E800F583E0FCA3E0FDA3E0FEA3E0FF1224742E
:1059F800126D6790039CE0FF7D01126CF890039B89
:105A08007401F0804A90039CE075F00EA42404F51C
:105A180082E43400F583E0FCA3E0FDA3E0FEA3E00C
:105A2800FF122474C374C49FFF74099EFEC3EF94CD
:105A380014EE6480948050047E007F14126D679089
:105A4800039CE0FFE4FD126CF890039CE004F090E6
:105A580004C0E070047F0180027F009004C0EFF072
:105A6800D007D006D005D004D003D002D001D00092
:0B5A7800D0D0D082D083D0F0D0E0323C
:03009B00026ADC1A
:106ADC00C0E0C0F0C083C082C0D075D000C000C080
:106AEC0004C005C006C0079004C1E0FCA3E0FDA3F0
:106AFC00E0FEA3E02401FFE43EFEE43DFDE43CFCAB
:106B0C009004C1122AB6D007D006D005D004D0000C
:0B6B1C00D0D0D082D083D0F0D0E03287
:03001B00026FCAA7
:106FCA00C0E0C083C082758B00758D009003A0E07D
:106FDA0004F0700690039FE004F0D082D083D0E0E2
:016FEA003274
:104D45004104AD004104AE004404AF000000004240
:104D550004A300004104A6004204A700004204AADF
:024D650000004C
:0F716C009004AFE0FCA3E0FDA3E0FEA3E0FF2250
:1068160090045F122AB643985090045FE0F8A3E014
:10682600F9A3E0FAA3E0FB7F007E607D547C0012B2
:1068360029C5EFF404F5D790045FE0F8A3E0F9A3C7
:10684600E0FAA3E0FB7F007E607D547C001229C540
:10685600C3E49FFFE49EFE74019DFDE49CFC780862
:10686600122A768FD6438E15E4F587D2AFD2AC22A4
:1068760090045F122AB6759A5090045FE0F8A3E080
:10688600F9A3E0FAA3E0FB7F007E607D547C001252
:1068960029C5EFF404F5D790045FE0F8A3E0F9A367
:1068A600E0FAA3E0FB7F007E607D547C001229C5E0
:1068B600C3E49FFFE49EFE74019DFDE49CFC780802
:0E68C600122A768FD675AF0143BA01D2AF22E7
:1067B50090045F122AB653BAFB75841090045FE00B
:1067C500F8A3E0F9A3E0FAA3E0FB7F007E607D5427
:1067D5007C001229C5EFF404F5D790045FE0F8A317
:1067E500E0F9A3E0FAA3E0FB7F007E607D547C0026
:1067F5001229C5C3E49FFFE49EFE74019DFDE49C40
:10680500FC7808122A768FD6438E1443AF10D2AF88
:016815002260
:03720E00D2AC22DD
:03721100C2AC22EA
:0471E60043AF012290
:0471EA0053AFFE227F
:0471EE0043AF102279
:0471F20053AFEF2286
:080003008F993099FDC299228A
:0F002600A3E475F001122875A9F0FA12279DFFC7
:0B0035008F9BE59A30E1FB539AFD22FF
:0B71A1008F85E58430E1FB5384FD2264
:106CBD00900473EBF0A3EAF0A3E9F0C28CC2A990A3
:106CCD000473E0FBA3E0FAA3E0F912279D6017908F
:106CDD000473A3E475F001122875A9F0FA12279D2B
:0B6CED00FF12000380D9D28CD2A92234
:106F840090045FEBF0A3EAF0A3E9F090045FE0FB68
:106F9400A3E0FAA3E0F912279D600890045F1200B1
:046FA4002680E82239
:106DD50090045FEBF0A3EAF0A3E9F090045FE0FB19
:106DE500A3E0FAA3E0F912279D601790045FA3E4DE
:106DF50075F001122875A9F0FA12279DFF1271A1ED
:036E050080D9220F
:106D9E00900488EBF0A3EAF0A3E9F0C28CC2A990AC
:106DAE0003347401F0900488E0FBA3E0FAA3E0F949
:106DBE0012279D600890048812002680E8E4900354
:076DCE0034F0D28CD2A9229F
:03002300024EC5C5
:0D4EC500C0E0C0F0C083C082C0D075D0082E
:104ED200209803025014C2989004A5E599F0E0FFCF
:104EE200700FA3E004F0E0C3940F400A75C760801E
:104EF200059004A6E4F0900334E06003025014EF3E
:104F0200B43C189003357404F09004A3E4F0A3F0C9
:104F120012715D9004AF122AB6804B900335E07097
:104F2200459004A5E0FFB424089003357401F08095
:104F32002EEFB423089003357402F08022EFB47B85
:104F4200119003357403F012715D9004AF122AB60A
:104F5200800D9004A5E0B43C069003357404F090F3
:104F620004A3E4F0A3F09004A5E0FF9004A3E47589
:104F7200F001122875FC743025F0F58274013CF5BD
:104F820083EFF0900335E0FEB40415EF643E7075D4
:104F92009004A3E0FCA3E02430F58274013C805528
:104FA200EEB401179004A5E0B421109004A3E0FE32
:104FB200A3E02430F58274013E803A900335E0B4D8
:104FC20002179004A5E0B421109004A3E0FEA3E030
:104FD2002430F58274013E801C900335E0B4032531
:104FE2009004A5E0B47D1E9004A3E0FEA3E024306B
:104FF200F58274013EF583E4F090033404F09004EA
:10500200A3E4F0A3F0C39004A3E094024004E4F00C
:02501200A3F009
:0B501400D0D0D082D083D0F0D0E032AA
:0300430002515E09
:0D515E00C0E0C0F0C083C082C0D075D00892
:10516B00E59A20E00302528F9004A9E59BF0539A35
:10517B00FE900334E0600302528F9004A9E0B43C2C
:10518B00189003357404F09004A7E4F0A3F01271A7
:10519B005D9004AF122AB6803F900335E0703990D2
:1051AB0004A9E0FFB424089003357401F08022EFCA
:1051BB00B423089003357402F08016EFB47B08908B
:1051CB0003357403F0800AEFB43C06900335740486
:1051DB00F09004A7E4F0A3F09004A9E0FF9004A7DB
:1051EB00E475F001122875FC743025F0F58274011A
:1051FB003CF583EFF0900335E0FEB40415EF643E0D
:10520B0070759004A7E0FCA3E02430F58274013C98
:10521B008055EEB401179004A9E0B421109004A7B7
:10522B00E0FEA3E02430F58274013E803A90033512
:10523B00E0B402179004A9E0B421109004A7E0FE9B
:10524B00A3E02430F58274013E801C900335E0B45A
:10525B0003259004A9E0B47D1E9004A7E0FEA3E013
:10526B002430F58274013EF583E4F090033404F0AE
:10527B009004A7E4F0A3F0C39004A7E094024004C9
:04528B00E4F0A3F0B8
:0B528F00D0D0D082D083D0F0D0E0322D
:0300930002529A7C
:0D529A00C0E0C0F0C083C082C0D075D00855
:1052A700E58420E0030253CB5384FE9004ACE585EC
:1052B700F0900334E060030253CB9004ACE0B43CBD
:1052C700189003357404F09004AAE4F0A3F0127167
:1052D7005D9004AF122AB6803F900335E070399095
:1052E70004ACE0FFB424089003357401F08022EF8A
:1052F700B423089003357402F08016EFB47B08904E
:1053070003357403F0800AEFB43C06900335740448
:10531700F09004AAE4F0A3F09004ACE0FF9004AA94
:10532700E475F001122875FC743025F0F5827401DC
:105337003CF583EFF0900335E0FEB40415EF643ECF
