:10009E003C5053325F52454430313A233030355064
:1000AE00303630305432303030215E2444535421B7
:1000BE003E003C5053325F52454430323A2330308A
:1000CE003550323430305432303030215E24445387
:1000DE0054213E003C5053325F52454430333A2354
:1000EE0030303450303630305432303030215E249F
:1000FE00445354213E003C5053325F5245443034F9
:10010E003A233030345032343030543230303021A3
:10011E005E24445354213E003C5053325F524544BA
:10012E0030353A2330303250323430305432303071
:10013E0030215E24445354213E003C5053325F52D2
:10014E00454430363A233030335032343030543226
:10015E00303030215E24445354213E003C50533203
:10016E005F52454430373A233030325030363030DB
:10017E005432303030215E24445354213E003C50E2
:10018E0053325F52454430383A2330303350303694
:10019E0030305432303030215E24445354213E00EE
:1001AE003C5053325F52454430393A24444A52212E
:1001BE003E003C5053325F52454431303A24534D49
:1001CE004F44453130213E003C5053325F5245443E
:1001DE0031313A24534D4F44453130213E003C508D
:1001EE0053325F52454431323A244447533A322116
:1001FE003E003C5053325F52454431333A23303047
:10020E003150303630305432303030215E24445349
:10021E0054213E003C5053325F52454431343A2310
:10022E0030303050303630305432303030215E2461
:10023E00445354213E003C5053325F5245443135B5
:10024E003A23303031503234303054323030302165
:10025E005E24445354213E003C5053325F52454479
:10026E0031363A2330303050323430305432303030
:10027E0030215E24445354213E003C5053325F479C
:10028E00524E30313A24534D4F44453130213E00C9
:10029E003C5053325F47524E30323A24534D4F4406
:1002AE00453130213E003C5053325F47524E303381
:1002BE003A24213E003C5053325F47524E30343A7E
:1002CE0024534D4F444536213E003C5053325F4738
:1002DE00524E30353A24534D4F444534213E003C66
:1002EE005053325F47524E30363A24534D4F4445A9
:1002FE0038213E003C5053325F47524E30373A243D
:10030E00534D4F444535213E003C5053325F4752CA
:10031E004E30383A24534D4F444537213E003C5021
:10032E0053325F47524E30393A24444A52213E00EE
:10033E003C5053325F47524E31303A24534D4F4466
:10034E00453130213E003C5053325F47524E3131E1
:10035E003A24534D4F44453130213E003C505332E8
:10036E005F47524E31323A244447533A32213E00CF
:10037E003C5053325F47524E31333A24534D4F4423
:10038E004530213E003C5053325F47524E31343A95
:10039E0024534D4F444533213E003C5053325F476A
:1003AE00524E31353A24534D4F444531213E003C97
:1003BE005053325F47524E31363A24534D4F4445D7
:1003CE0032213E007B4730303030233030305031D8
:1003DE0035303054313030302123303031503135DA
:1003EE0030305431303030212330303250313530CE
:1003FE0030543130303021233030335031353030BD
:10040E005431303030212330303450313530305487
:10041E003130303021233030355031353030543199
:10042E00303030217D007B4730303031233030305A
:10043E005031353030543135303021233030315059
:10044E003135303054313530302123303032503167
:10045E003530305431353030212330303350313552
:10046E003030543135303021233030345031353046
:10047E003054313530302123303035503135303035
:10048E005430303030217D007B47303030322330D5
:10049E00303050313530305431353030212330301A
:1004AE003150323230305431353030212330303209
:1004BE0050323530305431353030212330303350D6
:1004CE0032303030543135303021233030345031E9
:1004DE0035303054313530302123303035503135D0
:1004EE0030305431353030217D007B473030303361
:1004FE0023303030503135303054313030302123CC
:10050E0030303150313530305431303030212330AD
:10051E00303250313530305431303030212330309C
:10052E003350313530305431303030212330303487
:10053E005031353030543130303021233030355059
:10054E00313030305431303030217D007B47303007
:10055E00303423303030503135303054313030304B
:10056E002123303031503131303054313030302160
:10057E002330303250313630305431303030212348
:10058E00303033503231303054313030302123302E
:10059E00303450313530305431303030212330301A
:1005AE003550313030305430303030217D007B4783
:1005BE0030303035233030305031353030543135E5
:1005CE0030302123303031503130353054313530E8
:1005DE0030212330303250313630305431303030DB
:1005EE0021233030335032313030543130303021DD
:1005FE0023303034503135303054313030302123C7
:10060E0030303550323030305430303030217D0083
:10061E007B47303030362330303050313530305427
:10062E003130303021233030315031383030543188
:10063E003030302123303032503138303054313078
:10064E00303021233030335032313030543130306D
:10065E003021233030345031353030543130303059
:10066E00212330303550323030305430303030215C
:10067E007D007B47303030372330303050303830CB
:10068E00305431303030212330303150313530302C
:10069E0054313030302123303032503135303054F7
:1006AE00313030302123303033503231303054310C
:1006BE0030303021233030345031353030543130F9
:1006CE0030302123303035503230303054303030ED
:1006DE0030217D007B473030303823303030503081
:1006EE0038303054313030302123303031503133C6
:1006FE0030305431303030212330303250313830B8
:10070E0030543130303021233030335032313030AC
:10071E005431303030212330303450313530305474
:10072E00313030302123303035503230303054308B
:10073E00303030217D007B4730303039233030303F
:10074E005030383030543130303021233030315049
:10075E00313330305431303030212330303250315B
:10076E003830305431303030212330303350323144
:10077E003030543130303021233030345031353038
:10078E00305431303030212330303550313030302C
:10079E005430303030217D007B47303031302330C3
:1007AE00303050303830305431303030212330300A
:1007BE0031503136303054313030302123303032F8
:1007CE0050313830305431303030212330303350C6
:1007DE0032313030543130303021233030345031DA
:1007EE0035303054313030302123303035503130C7
:1007FE0030305430303030217D007B473030313155
:10080E0023303030503135303054313530302123B3
:10081E003030315032323030543135303021233097
:10082E003032503235303054313530302123303083
:10083E003350323030305431353030212330303473
:10084E005031353030543135303021233030355041
:10085E00313530305431353030217D007B473030EA
:10086E003132233030305031353030543130303039
:10087E002123303031503135303054313030302149
:10088E002330303250313530305431303030212336
:10089E003030335031353030543130303021233018
:1008AE003034503135303054313030302123303007
:1008BE003550313530305431303030217D007B476A
:1008CE0030303133233030305031353230543130D6
:1008DE0030302123303031503131303054323030DD
:1008EE0030212330303250313835305431303030C1
:1008FE0021233030335032313030543130303021CA
:10090E0023303034503135303054313030302123B3
:10091E0030303550313030305430303030217D0071
:10092E007B47303031342330303050313532305413
:10093E00313030302123303031503131303054327B
:10094E003030302123303032503139303054313064
:10095E00303021233030335032313030543130305A
:10096E003021233030345031353030543130303046
:10097E002123303035503230303054303030302149
:10098E007D007B47303031352330303050313532B9
:10099E003054313030302123303031503138303016
:1009AE0054323030302123303032503230303054E7
:1009BE0031303030212330303350323030305431FA
:1009CE0030303021233030345031353030543130E6
:1009DE0030302123303035503230303054313030D9
:1009EE0030217D007B47303031362330303050316E
:1009FE0035323054313030302123303031503131B6
:100A0E0030305432303030212330303250313830A3
:100A1E00305431303030212330303350323030309A
:100A2E005431303030212330303450313530305461
:100A3E003130303021233030355032303030543177
:100A4E00303030217D007B4730303137233030302D
:100A5E005031353230543130303021233030315036
:100A6E003131303054323030302123303032503149
:100A7E003830305431303030212330303350323032
:100A8E003030543130303021233030345031353025
:100A9E003054313030302123303035503130303019
:100AAE005430303030217D007B47303031382330A8
:100ABE0030305031353030543135303021233030F4
:100ACE0031503232303054313530302123303032E3
:100ADE0050323530305431353030212330303350B0
:100AEE0032303030543135303021233030345031C3
:100AFE0035303054313530302123303035503135AA
:100B0E0030305431353030217D007B473030313933
:100B1E0023303030503135303054313030302123A5
:100B2E003030315031353030543130303021233087
:100B3E003032503135303054313030302123303076
:100B4E003350313530305431303030212330303461
:100B5E005031353030543130303021233030355033
:100B6E00313530305431303030217D007B473030DC
:100B7E003230233030305031353230543130303025
:100B8E002123303031503131303054323030302139
:100B9E00233030325031383530543130303021231B
:100BAE003030335032313030543130303021233008
:100BBE0030345031353030543130303021233030F4
:100BCE003550313030305430303030217D007B475D
:100BDE0030303231233030305031353230543130C4
:100BEE0030302123303031503131303054323030CA
:100BFE0030212330303250313930305431303030B2
:100C0E0021233030335032313030543130303021B6
:100C1E0023303034503135303054313030302123A0
:100C2E0030303550323030305430303030217D005D
:100C3E007B47303032322330303050313532305401
:100C4E003130303021233030315031383030543261
:100C5E003030302123303032503230303054313059
:100C6E003030212330303350323030305431303048
:100C7E003021233030345031353030543130303033
:100C8E002123303035503230303054313030302135
:100C9E007D007B47303032332330303050323230AB
:100CAE003054313030302123303031503138303003
:100CBE0054323030302123303032503230303054D4
:100CCE0031303030212330303350323030305431E7
:100CDE0030303021233030345031353030543130D3
:100CEE0030302123303035503230303054313030C6
:100CFE0030217D007B47303032342330303050325B
:100D0E0032303054313030302123303031503132A6
:100D1E003030543230303021233030325032303097
:100D2E003054313030302123303033503230303087
:100D3E00543130303021233030345031353030544E
:100D4E003130303021233030355032303030543164
:100D5E00303030217D007B4730303235233030301B
:100D6E005032323030543130303021233030315027
:100D7E003132303054323030302123303032503234
:100D8E003030305431303030212330303350323027
:100D9E003030543130303021233030345031353012
:100DAE003054313030302123303035503130303006
:100DBE005430303030217D007B4730303236233096
:100DCE0030305032323030543130303021233030E8
:100DDE0031503138303054323030302123303032CF
:100DEE0050323030305431303030212330303350A7
:100DFE0032303030543130303021233030345031B5
:100E0E0035303054313030302123303035503130A0
:100E1E0030305431303030217D007B473030323726
:100E2E00233030305031353030543135303021238D
:100E3E003030315032323030543135303021233071
:100E4E00303250323530305431353030212330305D
:100E5E00335032303030543135303021233030344D
:100E6E00503135303054313530302123303035501B
:100E7E00313530305431353030217D007B473030C4
:100E8E00323823303030503135303054313030300C
:100E9E002123303031503135303054313030302123
:100EAE002330303250313530305431303030212310
:100EBE0030303350313530305431303030212330F2
:100ECE0030345031353030543130303021233030E1
:100EDE003550313530305431303030217D007B4744
:100EEE0030303239233030305031353230543130A9
:100EFE0030302123303031503131303054323030B7
:100F0E00302123303032503138353054313030309A
:100F1E0021233030335032313030543130303021A3
:100F2E00233030345031353030543130303021238D
:100F3E0030303550313030305430303030217D004B
:100F4E007B473030333023303030503135323054EF
:100F5E003130303021233030315031313030543255
:100F6E00303030212330303250313930305431303E
:100F7E003030212330303350323130305431303034
:100F8E003021233030345031353030543130303020
:100F9E002123303035503230303054303030302123
:100FAE007D007B4730303331233030305031353295
:100FBE0030543130303021233030315031383030F0
:100FCE0054323030302123303032503230303054C1
:100FDE0031303030212330303350323030305431D4
:100FEE0030303021233030345031353030543130C0
:100FFE0030302123303035503230303054313030B3
:10100E0030217D007B47303033322330303050304A
:10101E003830305431303030212330303150313887
:10102E003030543230303021233030325032303084
:10103E003054313030302123303033503230303074
:10104E00543130303021233030345031353030543B
:10105E003130303021233030355032303030543151
:10106E00303030217D007B47303033332330303009
:10107E005030383030543130303021233030315010
:10108E003132303054323030302123303032503221
:10109E003030305431303030212330303350323014
:1010AE0030305431303030212330303450313530FF
:1010BE0030543130303021233030355032303030F2
:1010CE005431303030217D007B4730303334233083
:1010DE0030305030383030543130303021233030D1
:1010EE0031503132303054323030302123303032C2
:1010FE005032303030543130303021233030335094
:10110E0032303030543130303021233030345031A1
:10111E00353030543130303021233030355031308D
:10112E0030305430303030217D007B473030333515
:10113E00233030305030383030543130303021237D
:10114E00303031503138303054323030302123305D
:10115E003032503230303054313030302123303054
:10116E00335032303030543130303021233030343F
:10117E00503135303054313030302123303035500D
:10118E00313030305431303030217D007B473030BB
:10119E0033362330303050313530305431353030F5
:1011AE00212330303150323230305431353030210D
:1011BE0023303032503235303054313530302123F7
:1011CE0030303350323030305431353030212330DE
:1011DE0030345031353030543135303021233030C9
:1011EE003550313530305431353030217D00756118
:1011FE0072743120636865636B206F6B21007561BB
:10120E0072743220636865636B206F6B21007561A9
:10121E0072743420636865636B206F6B21005E000F
:10122E0024002300244453542100233235355044E6
:10123E0053542100244453543A00244453543A2521
:10124E00642100232530336450445354210024522A
:10125E0053542100244347503A00244347503A2523
:10126E00642D25642100244445473A002444454713
:10127E003A25642D25642100244447533A00244422
:10128E0047533A25642100244447543A00244447E6
:10129E00543A25642D25642C2564210024444352A0
:1012AE003A00244443523A25642C256421002444F8
:1012BE0057412100244457442100244341525F46A4
:1012CE002100244341525F422100244341525F4C8E
:1012DE002100244341525F522100244341525F5367
:1012EE00544F502100244A58425F5A484921002445
:1012FE004A58425F57414E210024444A522100234E
:10130E0032353550313530305432303030210024C2
:10131E004A58425F53574954434821002447455485
:10132E004121004141410024474554532100677239
:10133E006F75705F646F5F6F6B3D300067726F75B6
:10134E00705F646F5F6F6B3D310024474554494EAB
:10135E00432100696E632564203D202566200D0A19
:10136E0000244442543A00244442543A25642C2525
:10137E006421002444525321000D0A35314D43554A
:10138E002D494150313557344B363153340D0A0007
:10139E0024534D4F44450024534D4F44452564215D
:1013AE000024534D4152545F53544F50210040433B
:1013BE004C454152205052455F434D44204F4B21E6
:1013CE00003C244447543A25642D25642C25642181
:1013DE003E0040534554205052455F434D44204FEC
:1013EE004B2100450041000D0A00404572617365B6
:1013FE00202564204F4B210040446F47726F75705B
:10140E00202564204F4B210D0A004047726F7570E6
:10141E00446F6E65210041542B42415544380D0AEC
:10142E000041542B5350504E414D455A4C2D3531A1
:10143E002D4254322E300D0A0041542B4C454E4154
:10144E004D455A4C2D35312D4254342E300D0A0057
:10145E0041542B4E414D455A4C2D35312D4254326F
:10146E002E300D0A00FF009EFF00C0FF00E2FF01BC
:10147E0004FF0126FF0148FF016AFF018CFF01AE48
:10148E00FF01C0FF01D6FF01ECFF0200FF0222FFA9
:10149E000244FF0266FF0288FF029EFF02B4FF02B3
:1014AE00C3FF02D8FF02EDFF0302FF0317FF032C59
:1014BE00FF033EFF0354FF036AFF037EFF0393FF08
:1014CE0003A8FF03BDFF03D2FF0434FF0496FF04FD
:1014DE00F8FF055AFF05BCFF061EFF0680FF06E259
:1014EE00FF0744FF07A6FF0808FF086AFF08CCFFA6
:1014FE00092EFF0990FF09F2FF0A54FF0AB6FF0BEF
:10150E0018FF0B7AFF0BDCFF0C3EFF0CA0FF0D0249
:10151E00FF0D64FF0DC6FF0E28FF0E8AFF0EECFFB7
:10152E000F4EFF0FB0FF1012FF1074FF10D6FF11F9
:04153E0038FF119AC7
:104C000042043200004204340000410441014404E3
:104C100042000000004104460041044700440448AB
:104C20000000000044044C00000000440450000058
:104C3000000049045400000000000000000044048B
:104C40000C00000000410410004104110044041253
:104C500000000BB84404160000000042041A0000D3
:104C600042041C000042041E0000420421FFFF41D8
:104C70000427004404280000000041042C014104E2
:094C80002D0044042E0000000088
:1069290012717E12718112718412718712718A1229
:106939005EA912718D12001E1270D6126FE2126FCB
:10694900F91270101271931254C4127112127190CB
:10695900127168126B8E126CC112607A1256CD12C6
:10696900490B126C1112681E125F4712004612641D
:036979002580E393
:03717E000269CFD4
:03718100020026E3
:03718400D2A02274
:03718700D2C92248
:03718A0002000EF2
:05001E007F07027027BE
:105EA900127148126E76EF64167003EE64EF6004A7
:105EB900C2C980EF7B017A00797090047AE4F0A37B
:105EC90074C0F07F007EF07DFF7CFF12669C7FF638
:105ED9007EEE7D337C01900070E0F8A3E0F9A3E049
:105EE900FAA3E0FBC3121E996017900070121EF608
:105EF9000133EEF6900074121EF600000000126ED7
:105F0900EF900127E07004A3E064386030E4900466
:105F190040F0900440E0FFC394085018EF25E024B6
:105F290017F582E43401F583E4F0A3F0900440E02E
:0E5F390004F080DE900127E4F0A37438F0221B
:03718D000271612B
:0371900002706525
:0F70D6007FE87E031268D3E4FDFCFFFE02527DCB
:106FE2007F007EC27D017C001267601271997BFF77
:076FF2007A1179FC026C4EDC
:106FF9007F007EC27D017C001267C012716E7BFF2B
:077009007A12790C026F14EA
:107010007F007EC27D017C001266FF1271767BFFCD
:077020007A12791C026D6574
:037193000270B4D3
:106B8E00C2C9C2A07F647E00126F59D2C9D2A07F43
:106B9E00647E00126F59C2C9C2A07F647E00126F5C
:106BAE0059D2C9D2A07F647E00126F59C2C9C2A049
:106BBE007F647E00126F59D2C9D2A07F647E00021C
:026BCE006F59FD
:1054C4007E027F047D007B017A0179301220827B89
:1054D400017A01793090047A7401F0A3E4F0FF7E3C
:1054E40002FDFC12669C900130E0647B7068A3E0CE
:1054F40064477062900136E06423705A90044074EB
:1055040010F07B017A01793012703C900440E0C3C2
:105514009FE49E503EE0FF2430F582E43401F5839D
:105524007430F074312FF582E43401F5837430F073
:1055340074322FF582E43401F5837430F074332F20
:10554400F582E43401F5837430F0900440E0240FD4
:10555400F080AF122CFA900116E06438707978303C
:105564007C017D017B017A007978122065900078B6
:10557400E0B424097B017A00797802213090044058
:105584007410F07B017A01793012703C900440E091
:10559400C39FE49E503EE0FF2430F582E43401F5DD
:1055A400837430F074312FF582E43401F583743060
:1055B400F074322FF582E43401F5837430F07433DF
:1055C4002FF582E43401F5837430F0900440E02434
:0855D4000FF080AF122CFA2247
:0671680075B810D2AF2241
:106CC1001270E590040CE0F8A3E0F9A3E0FAA3E068
:106CD100FBC3EF9BFFEE9AFEED99FDEC98FCE47B84
:106CE100F47A01F9F8D3121E99500B1270E5900451
:066CF1000C121EEAB2A025
:016CF700227A
:10607A00900334E0603A900335E0B4010512212A16
:10608A008025900335E0B402028007900335E0B41E
:10609A000305122CFA8010900335E0B404097B0141
:1060AA007A017930124596E4900335F0900334F082
:1060BA001270F4C004C005C006C0071270E5D00310
:1060CA00D002D001D000C3EF9BFFEE9AFEED99FDFE
:1060DA00EC98FCE47B64FAF9F8C3121E995010900C
:1060EA000410E0701BD28ED2AB04F0E4A3F022902D
:1060FA000411E0700BC28EC2AB900410F0A304F03E
:01610A002272
:10004600900446E0B401431270E5900442E0F8A340
:10005600E0F9A3E0FAA3E0FBC3EF9BFFEE9AFEED07
:1000660099FDEC98FC900412E0F8A3E0F9A3E0FAFD
:10007600A3E0FBC3121E995011E4900446F01270DF
:0A008600E5900442121EEA126EEF2C
:01009000224D
:106C11001270E5900416E0F8A3E0F9A3E0FAA3E00E
:106C2100FBC3EF9BFFEE9AFEED99FDEC98FCE47B34
:106C310014FAF9F8D3121E9950121270E590041645
:0C6C4100121EEA7B017A047954125D4EA9
:016C4D002224
:105F4700900455E064736003025FE390045CE0FF34
:105F5700C3747F9FFFE49400FEEF7803C333CE330F
:105F6700CED8F9FF90045FEEF0FCA3EFF0FD9004AC
:105F77005AE0FFC3747F9FFFE49400FEEF7803C3EA
:105F870033CE33CED8F9FF900461EEF0A3EFF09053
:105F9700041AE0B50417A3E0B50512A3E0FEA3E0D9
:105FA700FF900461E06E7003A3E06F602F90045FC1
:105FB700E0FEA3E0FFA3E0FCA3E0FD12527D900406
:105FC7005FE0FFA3E090041ACFF0A3EFF090046125
:0C5FD700E0FFA3E090041CCFF0A3EFF06B
:015FE300229B
:10681E00900455E0FF900420E06F6019EFF0B47320
:10682E000690039D74FFF0E4FDFCFFFE12527D9076
:10683E00039E7401F0900457E0FF90041EE0B5072C
:10684E000C900458E0FF90041FE06F601E7B017AED
:10685E00047957900455E0FD123D44900457E090A2
:0B686E00041EF0900458E090041FF09E
:0168790022FC
:053D440090045FEDF0AA
:103D4900E4900461F0900001121BEAFD7C00121B53
:103D5900D1FEE42DFFEC3EFE900423F0A3EFF0909A
:103D69000421E0FCA3E0FD6F7002EC6E70030240D9
:103D790075A3E0FEA3E0FFA3EEF0A3EFF0EE5CFE77
:103D8900EF5DFF900423EEF0A3EFF0E4900460F000
:103D9900900460E0FFC39410400302405B74017E0D
:103DA90000A807088005C333CE33CED8F9FF9004A5
:103DB90023E05EFCA3E05F4C6003024052900421C3
:103DC900E05EFEA3E05F4E7003023EF87E027F04D0
:103DD9007D007B017A01793012208290045FE064D2
:103DE90073702EA3E075F003A42473F582E43414F0
:103DF900F583E493FB740193FA740293F912703C0E
:103E0900900460E075F003A42473F582E43414800F
:103E19003790045FE064416003024052A3E075F00B
:103E290003A424A3F582E43414F583E493FB740119
:103E390093FA740293F912703C900460E075F003F0
:103E4900A424A3F582E43414F583E493FB74019369
:103E5900FA740293F978307C017D01121BAB90044E
:103E69007274FFF0A37412F0A3742CF07B017A0131
:103E790079301253AB900461EFF0600CE0242FF518
:103E890082E43401F583E4F090047274FFF0A374C2
:103E990012F0A3742EF07B017A0179301253ABEF43
:103EA9004E601478377C037D017B017A01793B12DE
:103EB900206512211B802D90047274FFF0A37412E7
:103EC900F0A37430F07B017A0179301253ABEF4ED5
:103ED900601278377C037D017B017A01793B1220DE
:103EE90065122CEB74FF900421F0A3F00240527E7E
:103EF900027F047D007B017A0179301220829004CF
:103F09005FE06473702EA3E075F003A42473F58257
:103F1900E43414F583E493FB740193FA740293F97E
:103F290012703C900460E075F003A42473F582E4F8
:103F39003414803790045FE064416003024052A367
:103F4900E075F003A424A3F582E43414F583E49323
:103F5900FB740193FA740293F912703C900460E0C7
:103F690075F003A424A3F582E43414F583E493FBE8
:103F7900740193FA740293F978307C017D01121B64
:103F8900AB90047274FFF0A37412F0A3742CF07B4D
:103F9900017A0179301253AB900461EFF07003029A
:103FA9004052E07E002430F9EE3401FA7B0190049E
:103FB9007274FFF0A37412F0A3742EF01253ABEFD6
:103FC9004E6032900461E07E002430F9EE3401FA4B
:103FD9007B0178377C037D011220657B017A0379A7
:103FE9003712703C74362FF58274033EF583E4F082
:103FF90012211B8054900461E07E002430F9EE34D4
:1040090001FA7B0190047274FFF0A37412F0A37497
:1040190030F01253ABEF4E6030900461E07E002423
:1040290030F9EE3401FA7B0178377C037D011220E7
:10403900657B017A03793712703C74362FF58274E7
:10404900033EF583E4F0122CEB900460E004F002E7
:104059003D99900425E0FFA3E0900421CFF0A3EF60
:0C406900F0C2C97F327E00126F59D2C92C
:014075002228
:01009100224C
:10211B0078307C017D017B017A0379371220657B56
:05212B00017A0179308A
:0B213000900462EBF0A3EAF0A3E9F0DA
:10213B00126C4E90047274FFF0A37412F0A37432FD
:10214B00F0900462E0FBA3E0FAA3E0F91253AB902A
:10215B000465EEF0A3EFF04E700302220190039E94
:10216B007401F0E4900467F0A3F0900467E0FAA325
:10217B00E0FBC39408EA9400506490000875F00EDD
:10218B00EB121F27EA75F00EA42583F583121EF6BA
:10219B000000000090000475F00EEB121F27EA758B
:1021AB00F00EA42583F583E0FCA3E0FDA3E0FEA3E2
:1021BB00E0FF900467E0FAA3E090000075F00E12C8
:1021CB001F27EA75F00EA42583F583121EEA9004EF
:1021DB0068E004F07094900467E004F0808C7BFF5F
:1021EB007A127938126CF8E4FDFCFFFE12527D90E6
:1021FB00039D740AF02290047274FFF0A37412F022
:10220B00A37442F0900462E0FBA3E0FAA3E0F9129E
:10221B0053AB900465EEF0A3EFF04E70030222E493
:10222B0090047274FFF0A37412F0A37448F0A374BB
:10223B0001F0A37404F0A37469F0900462E0FBA3B3
:10224B00E0FAA3E0F9123A73EF4E7003022CEA9016
:10225B000469E0FAA3E0FB90000875F00E121F274B
:10226B00EA75F00EA42583F583121EF6000000001C
:10227B0090000475F00EEB121F27EA75F00EA425E3
:10228B0083F583E0FCA3E0FDA3E0FEA3E0FF900455
:10229B0069E0FAA3E090000075F00E121F27EA75B3
:1022AB00F00EA42583F583121EEA90047674FFF0DA
:1022BB00A37412F0A37451F0900469E0FFA3E090B3
:1022CB000479CFF0A3EFF07B017A0379371235CC89
:1022DB007B017A037937026CF890047274FFF0A3D8
:1022EB007412F0A3745CF0900462E0FBA3E0FAA319
:1022FB00E0F91253AB900465EEF0A3EFF04E6003E0
:10230B0002009690047274FFF0A37412F0A374622F
:10231B00F0900462E0FBA3E0FAA3E0F91253AB9058
:10232B000465EEF0A3EFF04E604C90047274FFF076
:10233B00A37412F0A37468F0A37401F0A37404F0F7
:10234B00A3746BF0A37401F0A37404F0A3746DF089
:10235B00900462E0FBA3E0FAA3E0F9123A73EF4EAC
:10236B007003022CEA90046BE0FEA3E0FFA3E0FCF9
:10237B00A3E0FD025DFE90047274FFF0A37412F0F3
:10238B00A37474F0900462E0FBA3E0FAA3E0F912EB
:10239B0053AB900465EEF0A3EFF04E604C900472DB
:1023AB0074FFF0A37412F0A3747AF0A37401F0A37A
:1023BB007404F0A3746BF0A37401F0A37404F0A382
:1023CB00746DF0900462E0FBA3E0FAA3E0F9123A1B
:1023DB0073EF4E7003022CEA90046BE0FEA3E0FF58
:1023EB00A3E0FCA3E0FD025A6190047274FFF0A31A
:1023FB007412F0A37486F0900462E0FBA3E0FAA3DE
:10240B00E0F91253AB900465EEF0A3EFF04E604190
:10241B0090047274FFF0A37412F0A3748CF0A37485
:10242B0001F0A37404F0A3746BF0900462E0FBA3BF
:10243B00E0FAA3E0F9123A73EF4E7003022CEA9024
:10244B00046BE0FEA3E0FF12656A90039E7401F03B
:10245B002290047274FFF0A37412F0A37495F090A1
:10246B000462E0FBA3E0FAA3E0F91253AB9004651E
:10247B00EEF0A3EFF04E700302250A90047274FF86
:10248B00F0A37412F0A3749BF0A37401F0A3740473
:10249B00F0A3743AF0A37401F0A37404F0A3743C9A
:1024AB00F0A37401F0A37404F0A3743EF0900462E3
:1024BB00E0FBA3E0FAA3E0F9123A73EF4E700302CC
:1024CB002CEA90043CE0FCA3E0FD90043AE0FEA370
:1024DB00E0FF6D7002EE6C601D900436EEF0A3EF22
:1024EB00F090043EE0FDA3E0900438CDF0A3EDF0B6
:1024FB00E490039EF02290039E7401F0022BFB905C
:10250B00047274FFF0A37412F0A374AAF090046227
:10251B00E0FBA3E0FAA3E0F91253AB900465EEF0F5
:10252B00A3EFF04E604C90047274FFF0A37412F0A2
:10253B00A374B0F0A37401F0A37404F0A3746BF054
:10254B00A37401F0A37404F0A3746DF0900462E023
:10255B00FBA3E0FAA3E0F9123A73EF4E7003022CDF
:10256B00EA90046BE0FEA3E0FFA3E0FCA3E0FD0216
:10257B002CE790047274FFF0A37412F0A374BCF0F8
:10258B00900462E0FBA3E0FAA3E0F91253AB9004D2
:10259B0065EEF0A3EFF04E600D900441E014F0E017
:1025AB00703804F0803490047274FFF0A37412F04E
:1025BB00A374C2F0900462E0FBA3E0FAA3E0F9126B
:1025CB0053AB900465EEF0A3EFF04E60199004410D
:1025DB00E004F0E0B404037403F0C2C97F647E002E
:1025EB00126F59D2C92290047274FFF0A37412F0C7
:1025FB00A374C8F0900462E0FBA3E0FAA3E0F91225
:10260B0053AB900465EEF0A3EFF04E600B7DE87CCE
:10261B00037FE87E03022CE790047274FFF0A3742F
:10262B0012F0A374D0F0900462E0FBA3E0FAA3E0F5
:10263B00F91253AB900465EEF0A3EFF04E600B7DF7
:10264B00187CFC7F187EFC022CE790047274FFF060
:10265B00A37412F0A374D8F0900462E0FBA3E0FA29
:10266B00A3E0F91253AB900465EEF0A3EFF04E60CC
:10267B000B7DE87C037F187EFC022CE790047274C0
:10268B00FFF0A37412F0A374E0F0900462E0FBA3DC
:10269B00E0FAA3E0F91253AB900465EEF0A3EFF070
:1026AB004E600B7D187CFC7FE87E03022CE79004C8
:1026BB007274FFF0A37412F0A374E8F0900462E05C
:1026CB00FBA3E0FAA3E0F91253AB900465EEF0A381
:1026DB00EFF04E6008E4FDFCFFFE022CE790047265
:1026EB0074FFF0A37412F0A374F3F0900462E0FB98
:1026FB00A3E0FAA3E0F91253AB900465EEF0A3EF5D
:10270B00F04E60077F017E00022BFB90047274FF7A
:10271B00F0A37412F0A374FDF0900462E0FBA3E04D
:10272B00FAA3E0F91253AB900465EEF0A3EFF04E71
:10273B0060077F027E00022BFB90047274FFF0A3F4
:10274B007413F0A37407F0900462E0FBA3E0FAA308
:10275B00E0F91253AB900465EEF0A3EFF04E70036B
:10276B000228777BFF7A13790D126CF8E4900467DB
:10277B00F0A3F0900467E0FAA3E0FBC39408EA949B
:10278B00004003022CEA90000075F00EEB121F279D
:10279B00EA75F00EA42583F583121EF644BB800068
:1027AB0090000C75F00EEB121F27EA75F00EA425A6
:1027BB0083F5837407F0A374D0F0900467E0FEA355
:1027CB00E090000C75F00E121F27EE75F00EA4258D
:1027DB0083F583E0FCA3E0FDEC12186FE4FBFA79C0
:1027EB00A07841121743C004C005C006C00790046F
:1027FB0067E0FEA3E0FF90000475F00E121F27EEBA
:10280B0075F00EA42583F583E0F8A3E0F9A3E0FAB5
:10281B00A3E0FB90000075F00EEF121F27EE75F092
:10282B000EA42583F583E0FCA3E0FDA3E0FEA3E06B
:10283B00FF121545D003D002D001D00012174390E0
:10284B000467E0FAA3E090000875F00E121F27EA68
:10285B0075F00EA42583F583121EEA900468E0043C
:10286B00F07006900467E004F002277E9004727407
:10287B00FFF0A37413F0A3741DF0900462E0FBA3AC
:10288B00E0FAA3E0F91253AB900465EEF0A3EFF07E
:10289B004E70030229CD7BFF7A13790D126CF8E48D
:1028AB00900467F0A3F0900467E0FAA3E0FBC394F5
:1028BB0008EA940040030229AA90000075F00EEB81
:1028CB00121F27EA75F00EA42583F583121EF6441A
:1028DB00BB800090000C75F00EEB121F27EA75F011
:1028EB000EA42583F5837407F0A374D0F0900467CE
:1028FB00E0FEA3E090000C75F00E121F27EE75F0B2
:10290B000EA42583F583E0FCA3E0FDEC12186FE425
:10291B00FBFA79A07841121743C004C005C006C06A
:10292B0007900467E0FEA3E0FF90000475F00E1221
:10293B001F27EE75F00EA42583F583E0F8A3E0F9CD
:10294B00A3E0FAA3E0FB90000075F00EEF121F2737
:10295B00EE75F00EA42583F583E0FCA3E0FDA3E068
:10296B00FEA3E0FF121545D003D002D001D0001218
:10297B001743900467E0FAA3E090000875F00E127D
:10298B001F27EA75F00EA42583F583121EEA900427
:10299B0068E004F07006900467E004F00228B19040
:1029AB000427E060047F0180027F027E0012656ACB
:1029BB00900427E070047F0180027F00900427EFD2
:1029CB00F02290047274FFF0A37413F0A3742AF036
:1029DB00900462E0FBA3E0FAA3E0F91253AB90047E
:1029EB0065EEF0A3EFF04E60097BFF7A13793102AD
:1029FB002C2B90047274FFF0A37413F0A37435F0B6
:102A0B00900462E0FBA3E0FAA3E0F91253AB90044D
:102A1B0065EEF0A3EFF04E601690039EE07BFF7027
:102A2B00077A13793C022C2B7A13794A022C2B90C0
:102A3B00047274FFF0A37413F0A37458F090046243
:102A4B00E0FBA3E0FAA3E0F91253AB900465EEF0C0
:102A5B00A3EFF04E6076E4A3F0A3F090047674FF3E
:102A6B00F0A37413F0A37461F0900467E0FEA3E08D
:102A7B00FD900479EEF0A3EDF090000875F00E12C6
:102A8B001F27EE75F00EA42583F583E0FCA3E0FD74
:102A9B00A3E0FEA3E0FF90047B121EEA7B017A0306
:102AAB0079371235CC7B017A037937126C4E90044F
:102ABB0068E004F07006900467E004F0C3900468CB
:102ACB00E09408900467E0940040902290047274A4
:102ADB00FFF0A37413F0A3746FF07B017A017930CC
:102AEB001253AB900465EEF0A3EFF04E7003022B84
:102AFB00FE90047274FFF0A37413F0A37475F0A32B
:102B0B007401F0A37404F0A3746BF0A37401F0A32D
:102B1B007404F0A3746DF07B017A017930123A736F
:102B2B00EF4E7003022CEA90046BE0FEA3E0FF640F
:102B3B00014E700F90043AF0A304F0A3E4F0A374D9
:102B4B000A8031EF64024E701090043AF0A3740BBC
:102B5B00F0A3E4F0A37414804190046BE0FEA3E0B7
:102B6B00FF64034E702090043AF0A37415F0A3E4B5
:102B7B00F0A3741EF090046DE0FDA3E090043ECD35
:102B8B00F0A3EDF08031EF64044E702090043AF026
:102B9B00A3741FF0A3E4F0A37428F090046DE0FF7E
:102BAB00A3E090043ECFF0A3EFF0800BE490043A47
:102BBB00F0A3F0A3F0A3F090043CE0FCA3E0FD90A5
:102BCB00043AE0FEA3E0FF6D7002EE6C602290040D
:102BDB0036EEF0A3EFF090043EE0FDA3E090043856
:102BEB00CDF0A3EDF0E490039EF090044704F022A7
:102BFB0002656A90047274FFF0A37413F0A37481DE
:102C0B00F0900462E0FBA3E0FAA3E0F91253AB905F
:102C1B000465EEF0A3EFF04E60097BFF7A13798722
:102C2B00026C4E90047274FFF0A37413F0A3749EA5
:102C3B00F0900462E0FBA3E0FAA3E0F91253AB902F
:102C4B000465EEF0A3EFF04E605590047274FFF044
:102C5B00A37413F0A374A5F0A37401F0A37404F090
:102C6B00A3746BF0900462E0FBA3E0FAA3E0F9120B
:102C7B003A73EF4E606990046BE0FEA3E0FFC394E0
:102C8B000AEE64809480505790039DEFF07D647C36
:102C9B00007F017E0012687AE4FDFCFFFE803D9010
:102CAB00047274FFF0A37413F0A374AFF09004627A
:102CBB00E0FBA3E0FAA3E0F91253AB900465EEF04E
:102CCB00A3EFF04E601990039D740AF07D647C00B5
:0F2CDB007F017E0012687AE4FDFCFFFE12527D3D
:012CEA0022C7
:0B45960090045FEBF0A3EAF0A3E9F053
:1045A100E4A3F0A3F090045FE0FBA3E0FAA3E0F939
:1045B100900001121BEAB4241A900002121BEAB403
:1045C1002111E4900116F0126EEF7BFF7A1379BC92
:1045D10002477290045FE0FBA3E0FAA3E0F99000C8
:1045E10001121BEA642460030246A990047274FF5D
:1045F100F0A37413F0A374CFF0A37401F0A37404B7
:10460100F0A3743AF0A37401F0A37404F0A3743C12
:10461100F0A37401F0A37404F0A3743EF0123A7392
:10462100EF4E700302477590043CE0FEA3E0FF905B
:10463100043AE0B5061EA3E0B507197B017A0079BB
:10464100787F00FEE4FCFD90047A04F0A3E4F0120C
:10465100669C80427E007F9F7D007B017A00797895
:1046610012208290045FE0FBA3E0FAA3E02401F9A9
:10467100E43AFA78787C007D0112206590045FE0CD
:10468100FBA3E0FAA3E0F912703C74762FF5827473
:10469100003EF583E4F09001167438F0126EEF7B62
:1046A100FF7A1379E002477290045FE0FBA3E0FA1E
:1046B100A3E0F912610B900462EEF0A3EFF0F47045
:1046C10002EEF4601590045FE0FBA3E0FAA3E0F9C9
:1046D100900006121BEA642360097BFF7A1379F1CB
:1046E100024772900463E07B00FA7C107D007F003A
:1046F100FE121C5DED4C70127C10FDFFAE02121C0F
:104701005DEE3395E0FDFC12650290045FE0FBA3D2
:10471100E0FAA3E0F9900468747BF07D3C126FB17C
:1047210090045FE0FBA3E0FAA3E0F9900468747DD4
:10473100F07D3E126FB190045FE0FBA3E0FAA3E0CD
:10474100F912703CEF2401FFE43E90046BF0A3EFFB
:10475100F090045FE0FBA3E0FAA3E0F9900463E0CA
:104761007F00FE3395E0FDFC1257B97BFF7A137988
:04477100F3126C4E85
:014775002221
:0B610B00900464EBF0A3EAF0A3E9F0BD
:10611600E4A3F0A3F0900464E0FBA3E0FAA3E0F9A3
:10612600121BD160676447705790046580419004E4
:1061360064E0FBA3E0FAA3E0F9121BD1FF6423603D
:1061460036EF64246031EFFB7A00900467E0FEA32B
:10615600E0FF7C007D0A121C4BEF2BFFEA3ECF24AA
:10616600D0CF34FF900467F0A3EFF0900465E47598
:10617600F001121C9380B7900467E0FEA3E0FF22B3
:10618600900465E475F001121C9380897EFF7FFF01
:0161960022E6
:105DFE0090046FEEF0A3EFF0A3ECF0A3EDF090049F
:105E0E0071E0FEA3E0FFD3900470E09FEE6480F893
:105E1E0090046FE064809840179004767401F0A3AC
:105E2E007404F0A37471F07B017A04796F126B4BDA
:105E3E00900471E0FEA3E0FFD3900470E09FEE6447
:105E4E0080F890046FE0648098504F7E027F047D4E
:105E5E00007B017A0179301220827B017A01793040
:105E6E00900470E07F00FE3395E0FDFC90047A74A0
:105E7E0001F0A3E4F012669C7B017A017930126C7A
:105E8E004E7BFF7A1379F5126C4E900470E004F09D
:0B5E9E00709E90046FE004F0809622DC
:0B6B4B00900473EBF0A3EAF0A3E9F064
:106B5600121CBFFFAEF0900476E0FBA3E0FAA3E0C0
:106B6600F9121CBFFD900473E0FBA3E0FAA3E0F961
:106B7600E5F08DF0121D22900476E0FBA3E0FAA367
:086B8600E0F9EE8FF0021D2280
:105A610090046FEEF0A3EFF0A3ECF0A3EDF090043F
:105A710071E0FEA3E0FFD3900470E09FEE6480F834
:105A810090046FE064809840179004767401F0A34D
:105A91007404F0A37471F07B017A04796F126B4B7B
:105AA100C3900472E0947F900471E064809480401C
:105AB10006E4F0A3747FF0900471E0FCA3E0FD9094
:105AC100046FE0FEA3E0FFD39DEC6480F8EE6480F8
:105AD100985048EE3395E0FDFC126502900476740F
:105AE100FFF0A37413F0A374F8F090046FE0FFA328
:105AF100E0900479CFF0A3EFF07B017A03793712BC
:105B010035CC7B017A037937126C4E900470E00436
:105B1100F070A490046FE004F0809C900450121E79
:065B2100F6000000002266
:10656A0090046FEEF0A3EFF07E027F047D007B01C2
:10657A007A0179301220827B017A01793090047095
:10658A00E07F00FE3395E0FDFC90047A7401F0A3ED
:10659A00E4F012669C122CFA90047674FFF0A3744D
:1065AA0014F0A37406F090046FE0FFA3E09004795E
:1065BA00CFF0A3EFF07B017A0379371235CC7B0158
:0765CA007A037937026C4EE1
:106BD000900462121EEAE4FFFEFDFC900462E0F8FD
:106BE000A3E0F9A3E0FAA3E0FB1217E06011400F65
:106BF000900462E0FCA3E0FDA3E0FEA3E0FF22908E
:106C00000462E0FCA3E0FDA3E0FEA3E0FF1218593C
:016C10002261
:054A8F0090045FEFF050
:104A940075F00EA42408F582E43400F583E0FCA349
:104AA400E0FDA3E0FEA3E0FFE4FBFAF9F81217E04F
:104AB4007003024BFF90045FE075F00EA42400F530
:104AC40082E43400F583E0FCA3E0FDA3E0FEA3E070
:104AD400FF1218A8900460EEF0A3EFF0D394C4EE94
:104AE40064809489400C9004607409F0A374C4F049
:104AF4008018C3900461E094F4900460E0648094AE
:104B04008150077401F0A374F4F0900460E0FCA3F6
:104B1400E0FDEC12186F90045FE075F00EA424041D
:104B2400F582E43400F583E0F8A3E0F9A3E0FAA306
:104B3400E0FB121545126BD0C004C005C006C007C7
:104B440090045FE075F00EA42408F582E43400F5C7
:104B540083E0FCA3E0FDA3E0FEA3E0FFA804A90515
:104B6400AA06FB121549126BD0A804A905AA06AB24
:104B740007D007D006D005D0041217E040379004C0
:104B840060E0FCA3E0FDEC12186F90045FE0FB759D
:104B9400F00EA42404F582E43400F583121EEAEB3B
:104BA40075F00EA42408F582E43400F583121EF691
:104BB400000000002290045FE075F00EA42404F5C8
:104BC40082E43400F583C083C082E0FCA3E0FDA34B
:104BD400E0FEA3E0FF90045FE075F00EA42408F566
:104BE40082E43400F583E0F8A3E0F9A3E0FAA3E05B
:0B4BF400FB121549D082D083121EEA8C
:014BFF002293
:1056CD0090039BE0600D90039CE0FF124A8FE490E5
:1056DD00039BF012697CEF60030257B890039EE0C4
:1056ED0060030257B8900436E0FEA3E0FF12656A2E
:1056FD0090043CE0FEA3E0FF90043AE0FCA3E0FD43
:10570D00C39FEC9E5047900436E0B50631A3E0B53B
:10571D00072C900436ECF0A3EDF090043EE07002FF
:10572D00A3E070030257B8900439E024FFF0900411
:10573D0038E034FFF0E07002A3E0706F8051900408
:10574D0037E004F07065900436E004F02290043CDC
:10575D00E0FEA3E0FF900436E06E7003A3E06F70EF
:10576D003C90043AE0FFA3E0900436CFF0A3EFF0B5
:10577D0090043EE07002A3E06031900439E024FF14
:10578D00F0900438E034FFF0E07002A3E0701C905C
:10579D00039E04F07BFF7A147918026C4E90043747
:0C57AD00E024FFF0900436E034FFF0220E
:10697C00E4900461F0A3F0900461E0FEA3E0FFC397
:10698C009408EE64809480503790000875F00EEFF8
:10699C00121F27EE75F00EA42583F583E0FCA3E00F
:1069AC00FDA3E0FEA3E0FFEC4D4E4F60037F012200
:1069BC00900462E004F070BF900461E004F080B7D2
:0269CC007F004A
:0169CE0022A6
:102CEB0078307C017D017B017A0379371220657B7B
:052CFB00017A017930AF
:0B2D0000900471EBF0A3EAF0A3E9F0EF
:102D0B00126CF87BFF7A1379F5126CF8900471E072
:102D1B00FBA3E0FAA3E0F9121BD164236003022F9B
:102D2B00C9900004121BEA64506003022FC9900083
:102D3B0005121BEA64536003022FC9900006121B95
:102D4B00EA64436003022FC9900007121BEA644B2D
:102D5B006003022FC990000C121BEA64216003026E
:102D6B002FC9900002121BEA24D0FFE434FFFE7C33
:102D7B00007D0A121C4BC006C007900001121BEA13
:102D8B0024D0FFE434FFFE7D64121C4BD0E02FFFF8
:102D9B00D0E03EFE900003121BEA24D0FDEC34FF82
:102DAB00CD2FFFED3E900474F0A3EFF090000A12CC
:102DBB001BEA24D0FFE434FFFE7D0A121C4BC00635
:102DCB00C007900009121BEA24D0FFE434FFFE7DFC
:102DDB0064121C4BD0E02FFFD0E03EFE90000B1294
:102DEB001BEA24D0FDEC34FFCD2FFFED3EFE90040B
:102DFB007EF0A3EFF0C3940CEE6480947E5003023C
:102E0B00356690047EE0FEA3E0FFD394F4EE64807D
:102E1B0094814003023566C3900475E094089004D6
:102E2B0074E094004003023566900008121BEAFD23
:102E3B00642B6011EDB42D0DC3E49FFFE49E900451
:102E4B007EF0A3EFF0900474E0FEA3E09000047515
:102E5B00F00E121F27EE75F00EA42583F583E0FC10
:102E6B00A3E0FDA3E0FEA3E0FF7B637AF07930786B
:102E7B003D121549C004C005C006C007900475E09B
:102E8B0025E0FF900474E033FE74172FF582740174
:102E9B003EF583E0FCA3E0FDEC12186FA804A90536
:102EAB00AA06AB07D007D006D005D004121545C033
:102EBB0004C005C006C00790047EE0FCA3E0FDEC57
:102ECB0012186FD003D002D001D000121549900414
:102EDB0084121EEA90047EE0FCA3E0FD900475E0F2
:102EEB0025E0FF900474E033FE74172FF582740114
:102EFB003EF583ECF0A3EDF07F007E107D1C7C454E
:102F0B00900484E0F8A3E0F9A3E0FAA3E0FB121726
:102F1B00E0600E400C900484121EF6451C100080DD
:102F2B0024E4FFFE7DFA7C43900484E0F8A3E0F9EF
:102F3B00A3E0FAA3E0FB1217E0500A900484121EE0
:102F4B00F643FA0000900484E0FCA3E0FDA3E0FE4E
:102F5B00A3E0FF900474E0FAA3E0FB90000075F08F
:102F6B000E121F27EA75F00EA42583F583121EEAB5
:102F7B00900484E0FCA3E0FDA3E0FEA3E0FF90003F
:102F8B000475F00EEB121F27EA75F00EA42583F5DE
:102F9B0083121EEA90000875F00EEB121F27EA75DC
:102FAB00F00EA42583F583121EF6000000001270AC
:102FBB00E5900442121EEA9004467401F02290043C
:102FCB0071E0FBA3E0FAA3E0F9121BD164236003C9
:102FDB000230C4900004121BEA645060030230C438
:102FEB00900005121BEA644460030230C490000693
:102FFB00121BEA645360030230C4900007121BEAF1
:10300B00645460030230C4900002121BEA24D0FF08
:10301B00E434FFFE7C007D0A121C4BC006C00790F7
:10302B000001121BEA24D0FFE434FFFE7D64121C66
:10303B004BD0E02FFFD0E03EFE900003121BEA24A2
:10304B00D0FDEC34FFCD2FFFED3EFE900474F0A3CA
:10305B00EFF0C39408EE94004003023566900474BD
:10306B00E0FAA3E0FB90000475F00E121F27EA753F
:10307B00F00EA42583F583E0FCA3E0FDA3E0FEA303
:10308B00E0FF90000075F00EEB121F27EA75F00EB3
:10309B00A42583F583121EEA900474E0FEA3E0904E
:1030AB00000875F00E121F27EE75F00EA42583F5A0
:1030BB0083121EF60000000022E4900478F0A3F0C7
:1030CB0090047CF0A3F0900471E0FBA3E0FAA3E082
:1030DB00F9900478E0FEA3E0F5828E83121BEAFFE1
:1030EB00700302356664237076900478A3E0FFA327
:1030FB00EEF0A3EFF0E4900474F0A3F0900479E009
:10310B0004F07006900478E004F0900471E0FBA3E7
:10311B00E0FAA3E0F9900478E0FEA3E0F5828E8359
:10312B00121BEAFF60A06450609CEFFB7A009004D6
:10313B0074E0FEA3E0FF7C007D0A121C4BEF2BFF1B
:10314B00EA3ECF24D0CF34FF900474F0A3EFF0907D
:10315B000479E004F070B3900478E004F080AB9055
:10316B000471E0FBA3E0FAA3E0F9900478E0FEA37E
:10317B00E0F5828E83121BEA6450600302322590C5
:10318B000480121EF600000000900479E004F07039
:10319B0006900478E004F0900471E0FBA3E0FAA33E
:1031AB00E0F9900478E0FEA3E0F5828E83121BEA2F
:1031BB00FF70030230D1645470030230D190047855
:1031CB00A3E0F5828E83121BEAFCE4121874C00490
:1031DB00C005C006C007E4FFFE7D207C4190048043
:1031EB00E0F8A3E0F9A3E0FAA3E0FB12163AD00350
:1031FB00D002D001D000121549E4FBFA794078C215
:10320B00121549900480121EEA900479E004F070C4
:10321B0086900478E004F00231A2900471E0FBA3E5
:10322B00E0FAA3E0F9900478E0FEA3E0F5828E8348
:10323B00121BEA64546003023555900476F0A3F038
:10324B00900479E004F07006900478E004F09004A8
:10325B0071E0FBA3E0FAA3E0F9900478E0FEA3E0B1
:10326B00F5828E83121BEAFF603964216035EFFB18
:10327B007A00900476E0FEA3E0FF7C007D0A121C2E
:10328B004BEF2BFFEA3ECF24D0CF34FF900476F0E8
:10329B00A3EFF0900479E004F070B3900478E004AD
:1032AB00F080ABC3900475E09408900474E0940034
:1032BB0040030230D17F007E407D1C7C4590048012
:1032CB00E0F8A3E0F9A3E0FAA3E0FB1217E0600536
:1032DB0040030230D1E4FFFE7DFA7C43900480E092
:1032EB00F8A3E0F9A3E0FAA3E0FB1217E050030206
:1032FB0030D1900477E09410900476E0942740034B
:10330B000230D1900474E0FEA3E090000475F00E3F
:10331B00121F27EE75F00EA42583F583E0FCA3E0C6
:10332B00FDA3E0FEA3E0FF900480E0F8A3E0F9A387
:10333B00E0FAA3E0FB1217E0701F900480E0FCA3FF
:10334B00E0FDA3E0FEA3E0FF7B5F7A29794B783B9E
:10335B00121549900480121EEA900480E0F8A3E055
:10336B00F9A3E0FAA3E0FBC000C001C002C00390C8
:10337B000475E025E0FF900474E033FE74172FF51D
:10338B008274013EF583E0FCA3E0FDEC12186FD0D4
:10339B0003D002D001D000121549900480121EEA0E
:1033AB007F007E107D1C7C45900480E0F8A3E0F943
:1033BB00A3E0FAA3E0FB1217E0600C400A90048034
:1033CB00121EF6451C1000E4FFFE7DFA7C439004B0
:1033DB0080E0F8A3E0F9A3E0FAA3E0FB1217E050BA
:1033EB000A900480121EF643FA0000C3900477E0A3
:1033FB009414900476E09400900480E0FC5067A352
:10340B00E0FDA3E0FEA3E0FF900474E0FAA3E0FB71
:10341B0090000075F00E121F27EA75F00EA425839D
:10342B00F583121EEA900480E0FCA3E0FDA3E0FE0E
:10343B00A3E0FF90000475F00EEB121F27EA75F066
:10344B000EA42583F583121EEA90000875F00EEB8F
:10345B00121F27EA75F00EA42583F583121EF600C2
:10346B000000000230D1A3E0FDA3E0FEA3E0FF903B
:10347B000474E0FAA3E0FB90000075F00E121F2716
:10348B00EA75F00EA42583F583121EEA900476E00C
:10349B00FEA3E0FF90000C75F00EEB121F27EA75F0
:1034AB00F00EA42583F583EEF0A3EFF090000C75DE
:1034BB00F00EEB121F27EA75F00EA42583F583E0BF
:1034CB00FCA3E0FDEC12186FE4FBFA79A078411233
:1034DB001743C004C005C006C007900474E0FEA3E8
:1034EB00E0FF90000475F00E121F27EE75F00EA48E
:1034FB002583F583E0F8A3E0F9A3E0FAA3E0FB90C2
:10350B00000075F00EEF121F27EE75F00EA4258349
:10351B00F583E0FCA3E0FDA3E0FEA3E0FF1215455D
:10352B00D003D002D001D000121743900474E0FAFC
:10353B00A3E090000875F00E121F27EA75F00EA499
:10354B002583F583121EEA0230D1900479E004F052
:0B355B007006900478E004F00230D10C
:013566002242
:106FB100121BD16013B50507900468E0121C177409
:096FC1000129F9E43AFA80E82202
:106638001270E5900428E0F8A3E0F9A3E0FAA3E0DB
:10664800FBC3EF9BFFEE9AFEED99FDEC98FCE47B13
:10665800F47A01F9F8D3121E9950381270E59004B3
:1066680028121EEA7F07126EA0900432EEF0A3EF04
:10667800F0FDAC06E412186F7B007AC0797F78448D
:10668800121743E4FBFA79A0784112163A900448AD
:03669800121EEAE5
:01669B0022DC
:106EEF007FFF7EFF7DFF7CFF1265027B017A0079B9
:106EFF007090046BE4F0A374C0F07F007EF07DFF10
:056F0F007CFF0257B9F0
:10490B0090042CE07003024A8E1270E590042EE0A6
:10491B00F8A3E0F9A3E0FAA3E0FBC3EF9BFFEE9A49
:10492B00FEED99FDEC98FCE47BF47A01F9F8C312E7
:10493B001E99502690042DE070201270E590042EE5
:10494B00121EEA7F807E257D007C001266FF1271AD
:10495B00767BFF7A1479240249EF1270E590042ECE
:10496B00E0F8A3E0F9A3E0FAA3E0FBC3EF9BFFEEB3
:10497B009AFEED99FDEC98FCE47BF47A01F9F8C30F
:10498B00121E99501E90042DE0B401171270E59081
:10499B00042E121EEA7F007EC27D017C001266FF90
:1049AB00024A381270E590042EE0F8A3E0F9A3E078
:1049BB00FAA3E0FBC3EF9BFFEE9AFEED99FDEC989B
:1049CB00FCE47BF47A01F9F8C3121E99501B900496
:1049DB002DE0B402141270E590042E121EEA7BFF38
:1049EB007A14792F126D6580441270E590042EE0D5
:1049FB00F8A3E0F9A3E0FAA3E0FBC3EF9BFFEE9A69
:104A0B00FEED99FDEC98FCE47BF47A01F9F8C31206
:104A1B001E99502090042DE0B403191270E59004F8
:104A2B002E121EEA7BFF7A147947126D6590042DC6
:104A3B00E004F0221270E590042EE0F8A3E0F9A355
:104A4B00E0FAA3E0FBC3EF9BFFEE9AFEED99FDECC2
:104A5B0098FCE47BF47A01F9F8C3121E9950249068
:104A6B00042DE0B4041D1270E590042E121EEA7B97
:104A7B00FF7A14795E126D6590042DE004F0E490DA
:034A8B00042CF008
:014A8E002205
:0400960075C76022A8
:107027007401A807088002C333D8FCF59DE4F5BDB9
:0570370075BC80FF2282
:106EA000AE07127027EE4488F5BC00000000E5BC78
:106EB00030E4FB53BCEFAFBDEF75F004A4ADBE7C76
:086EC000002DFFEC35F0FE226D
:0B711E00EF1FAC0670011E4C70F62243
:1070A100EF1FAA0670011E4A60087D031DED60F006
:0270B10080FA63
:0170B30022BA
:106F5900E4FDFCC3ED9FEC9E5015E4FBFA0BBB006E
:0F6F6900010ABA03F8BBE8F50DBD00010C80E486
:016F780022F6
:104C890041039B0041039C0041039DFF41039E0199
:054C990042039F000032
:1069CF00E4FBEB75F00EA42400F582E43400F583AC
:1069DF00121EF644BBA000EB75F00EA42404F58242
:1069EF00E43400F583121EF644BBA000EB75F00EE5
:1069FF00A42408F582E43400F583121EF60000008B
:0F6A0F00000BEBB408BCE4900334F0A3F0A3F049
:016A1E002255
:0B53AB0090046FEBF0A3EAF0A3E9F020
:1053B600900475EBF0A3EAF0A3E9F0900472E0F92B
:1053C600A3E0FAA3E0900478C9F0A3EAF0A3E9F019
:1053D600900475E0FBA3E0FAA3E0F9121BD1FF707D
:1053E600030254C0900478E0FBA3E0FAA3E0F912AC
:1053F6001BD16F60030254B3900478E0FBA3E0FA7C
:10540600A3E0F9121BD16078900478A3E475F0014B
:10541600121CA9A9F0FA121BD1FF900475E0FBA398
:10542600E475F001121CA9A9F0FA121BD16F60C82D
:10543600900472A3E0FAA3E0AE02FF900478A3E022
:10544600FAA3E0C39FFFEA9EFE900475E0FBA3E08B
:10545600FAA3E0C39FF9EA9EFAE92401F9E43AFACD
:10546600900475EBF0A3EAF0A3E9F0900472E0F97A
:10547600A3E0FAA3E0900478C9F0A3EAF0A3E9F068
:10548600900478E0FBA3E0FAA3E0F9121BD16003D5
:105496000253D690046FA3E0FAA3E0AE02FF900495
:1054A60075A3E0FAA3E0C39FFFEA9EFE229004766E
:0D54B600E475F001121C930253D6E4FEFFD2
:0154C30022C6
:084EC600900464ECF0A3EDF090
:104ECE00E4A3F0A3F0900465E024FFFF900464E0F7
:104EDE0034FFFEC3900467E09FEE6480F890046692
:104EEE00E06480984003025004E0FEA3E0FF9004CB
:104EFE006AEEF0A3EFF02401FFE43E900468F0A305
:104F0E00EFF0900464E0FEA3E0FF900468E0FCA3E1
:104F1E00E0FDC39FEE6480F8EC648098504DED2563
:104F2E00E0FFEC338F82F583121CEAFDACF09004A7
:104F3E006BE025E0FF90046AE0338F82F583121C4C
:104F4E00EAD39DEC6480F8E5F0648098400D9004FF
:104F5E0068E0FFA3E0A3CFF0A3EFF0900469E004B4
:104F6E00F0709F900468E004F08097900466E0FE75
:104F7E00A3E0FF90046AE0FCA3E0FD6F7002EC6E0C
:104F8E006060ED25E0FFEC338F82F583121CEAFFA3
:104F9E0090046CE5F0F0A3EFF0900467E025E0FFDD
:104FAE00900466E0338F82F583121CEAFD90046B49
:104FBE00E025E0FF90046AE0338F82F583E5F08D03
:104FCE00F0121D4190046CE0FCA3E0FD900467E03C
:104FDE0025E0FF900466E0338F82F583EC8DF012AE
:104FEE001D41900467E004F06003024ED390046606
:064FFE00E004F0024ED3B6
:015004002289
:10705100D3EF9400EE64809480400122C3E49FFF4B
:04706100E49EFE2289
:10002600E4F593759430F591F592F59575961EF570
:0D003600B175B290F5B3F5B4D280D2C422FA
:0D000E00D2C8D2B4D284D2CBD285D2CA22BD
:106C8900EF14601614601914601C14601F1460223C
:106C990024057023ED24FF92C822ED24FF92B4222B
:106CA900ED24FF928422ED24FF92CB22ED24FF9262
:086CB9008522ED24FF92CA229E
:0E687A0090046FEEF0A3EFF0A3ECF0A3EDF0AE
:10688800E4A3F0A3F090046FE0FEA3E0FFC390043C
:1068980074E09FEE6480F8900473E0648098502A56
:1068A800C2C9900471E0FEA3E0FF126F59D2C990EB
:1068B8000471E0FEA3E0FF126F59900474E004F045
:0A68C80070C3900473E004F080BB7D
:0168D20022A3
:07716100D2A7D2C5D2A6227D
:09633000F9EF121C29121BD1FF28
:10633900900463EFF0E4900462F0900464F0900438
:1063490064E0FFC39408505574017E00A8070880D3
:1063590005C333CE33CED8F9FF900463E0FDEF5D7A
:1063690024FF92C5D2A6C2A67F0A7E0012711ED250
:10637900A630C21A900462E0FF900464E0FE740142
:10638900A806088002C333D8FC4F900462F07F0A44
:106399007E0012711E900464E004F080A1900462F2
:0263A900E0FF13
:0163AB0022CF
:105D4E0090045FEBF0A3EAF0A3E9F0C2A77F011283
:105D5E00633990045FE0FBA3E0FAA3E0F9EF121CB5
:105D6E00177F4212633990045FE0FBA3E0FAA3E0D1
:105D7E0090000112633090045FE0FBA3E0FAA3E011
:105D8E0090000212633090045FE0FBA3E0FAA3E000
:105D9E00F990000312633190045FE0FBA3E0FAA3D5
:105DAE00E0F990000412633190045FE0FBA3E0FA87
:105DBE00A3E0F990000512633190045FE0FBA3E0CD
:105DCE00FAA3E0F990000612633190045FE0FBA3A2
:105DDE00E0FAA3E0F990000712633190045FE0FB54
:105DEE00A3E0FAA3E0F9900008EF121C29D2A72233
:10527D00900471ECF0A3EDF090046FEEF0A3EFF05D
:10528D00C394E8EE64809483400C90046F7403F033
:10529D00A374E7F0802990046FE0FEA3E0FFD394A0
:1052AD0018EE6480947C500C90046F74FCF0A37421
:1052BD0019F0800BEF4E700790046FF0A304F0907F
:1052CD000471E0FEA3E0FFC394E8EE648094834094
:1052DD000C9004717403F0A374E7F08022D3EF9463
:1052ED0018EE6480947C500C90047174FCF0A374DF
:1052FD0019F0800BEF4E7007900471F0A304F0903D
:10530D00046FE0FEA3E0FFC3E49FFFE49E90046FF3
:10531D00F0A3EFF0A3E0FEA3E0FFC3E49FFFE49E44
:10532D00FE900471F0A3EFF0D39400EE64809480AE
:10533D004014E024FFFF900471E034FFFE126DF580
:10534D007F017E0080177F017E00126DF590047144
:10535D00E0FEA3E0FFC374019FFFE49EFE126DCA41
:10536D0090046FE0FEA3E0FFD39400EE6480948080
:10537D004011EF24FFFFEE34FFFE126E207F017E01
:10538D000080177F017E00126E2090046FE0FEA357
:0E539D00E0FFC374019FFFE49EFE126E4B22E0
:1068D30043BA8090FFF2741FF090FFF0EEF0A3EF45
:1068E300F090FF00E4F0A304F0A3E4F0A3F0A3F01E
:1068F30090FF10F0A304F0A3E4F0A3F0A3F090FF43
:1069030020F0A304F0A3E4F0A3F0A3F090FF30F091
:10691300A304F0A3E4F0A3F0A3F0F5F175F50F439E
:06692300F58053BA7F224B
:106DCA00EF4E700653F5FEC2B722C3EF94E8EE9475
:106DDA0003400653F5FED2B72243BA8090FF00EE75
:0B6DEA00F0A3EFF053BA7F43F5012245
:106DF500EF4E700653F5FDC2A122C3EF94E8EE9461
:106E050003400653F5FDD2A12243BA8090FF10EE50
:0B6E1500F0A3EFF053BA7F43F5022218
:106E2000EF4E700653F5FBC2A222C3EF94E8EE9436
:106E300003400653F5FBD2A22243BA8090FF20EE16
:0B6E4000F0A3EFF053BA7F43F50422EB
:106E4B00EF4E700653F5F7C2A322C3EF94E8EE940E
:106E5B0003400653F5F7D2A32243BA8090FF30EEDE
:0B6E6B00F0A3EFF053BA7F43F50822BC
:1063AC004E6F20436F6C6F72210047657420436FF2
:1063BC006C6F722100726564203D20256420677229
:1063CC006E203D20256420626C75203D2025640DD7
:1063DC000A00244447543A332D31312C31210061C9
:1063EC0064635F79737362203D2025640D0A002479
:1063FC004447543A31322D31382C31210024444752
:10640C00543A31392D32372C312100244447543A37
:09641C0032382D33362C312100F9
:104C9E004A03A1000000000000000000004A03AB20
:104CAE00000000000000000000004203B500004AB2
:104CBE0003B9000000000000000000004403C5001E
:104CCE000000004403C9000000004403CD000000B2
:104CDE00004403D1000000004103D5004103D6007B
:104CEE004403D8000000004403DC0000000044032D
:104CFE00E2000000004403E6000000004203EA0068
:104D0E00004403EC000000004403F00000003241B8
:104D1E0003F4004103F5004103F7004403F80000DB
:104D2E0000004403FC0000000044040000000000EA
:01009200224B
:01009A002243
:03719600026FCABB
:105BE8007F02127027900129E0642960257429F04A
:105BF800900406E4F0A37484F0A3E4F0A374A8F07E
:105C0800A3E4F0A374B4F0126EEF7BFF7A6379AC6F
:105C1800803390012AE0FFA3E0900406CFF0A3EFC1
:105C2800F090012CE0FFA3E0900408CFF0A3EFF080
:105C380090012EE0FFA3E090040ACFF0A3EFF07BE1
:105C4800FF7A6379B6126C4E90047674FFF0A374F1
:105C580063F0A374C1F0900406E0FFA3E090047918
:105C6800CFF0A3EFF0900408E0FFA3E090047BCF0F
:105C7800F0A3EFF090040AE0FFA3E090047DCFF0DA
:105C8800A3EFF07B017A0179301235CC7B017A01E0
:055C98007930026C4EA2
:0C71120012009212009A127196025BE8C3
:1064250090039DE07003026A1F90039DE0B4010391
:106435000255DC90039DE0B402030265D190039DF3
:10644500E0B4030302407690039DE0B404030264C4
:106455009690039DE0B40503025FE490039DE0B4CC
:106465000603026AB890039DE0B4070302433E9019
:10647500039DE0B40803025B2790039DE0B4090384
:1064850002477690039DE0B40A0690039E7401F0DE
:0164950022E4
:105C9D007F02126EA0AC06AD079003B6E025E0FFC3
:105CAD009003B5E033FE74A12FF58274033EF583A6
:105CBD00ECF0A3EDF074A12FF58274033EF583E0B3
:105CCD00FCA3E0FD74AB2FF58274033EF583ECF07D
:105CDD00A3EDF09003B6E004F070069003B5E00478
:105CED00F09003B5E07004A3E0640570069003B571
:105CFD00F0A3F07B017A0379A17D057C00124EC6DD
:105D0D009003A5E0FFA3E09003B7CFF0A3EFF0E47D
:105D1D00FFEF25E024ABF582E43403F583E0FCA32B
:105D2D00E0FDEF25E024A1F582E43403F583ECF0EA
:105D3D00A3EDF00FEFB405D99003B7E0FEA3E0FF9C
:015D4D002233
:10622300E4FFFEFDFC7B7890039FF0A3F0F58BF574
:106233008DD296AA031BEA70FAC2963091FDD28ED4
:106243002091FDC28E90039FE0FEA3E0FFE4FCFDDE
:10625300FBFA7901F8121D6EA804A905AA06AB077B
:10626300AF8DEFFEAD8B7C00E42DFFEC3EFEE4FD35
:10627300EB2FFFEA3EFEED39FDEC38FC12186A7B8A
:10628300687A2F7939783D12163A1218A8AD07ACFF
:1062930006E412186F7B7B7A14792E783E12163A35
:0A62A300E4F58BF58DC28F1218A8E8
:0162AD0022CE
:036B0200121EEA76
:106B0500E4900463F0126223900463E025E024B965
:106B1500F582E43403F583EEF0A3EFF0900463E02F
:106B250004F0E0C3940540DD7B017A0379B97D0566
:106B35007C00124EC69003BDE0FEA3E0FF9003C3A8
:056B4500EEF0A3EFF0EB
:016B4A002228
:106A1F009004617401F0A374F4F020861330871092
:106A2F00E024C8FF900461E03400FEE4FDFC802AFE
:106A3F0030861030870D900461E0FCA3E0FDFFAEBF
:106A4F00048017308617208714900462E024C8FD55
:0D6A5F00900461E03400FCE4FFFE12527D63
:016A6C002207
:106AB8001270E59003C5E0F8A3E0F9A3E0FAA3E0BB
:106AC800FBC3EF9BFFEE9AFEED99FDEC98FCE47B8F
:106AD80032FAF9F8C3121E99501F1270E59003C5D7
:106AE800126B02C3EF94FAEE648094805008E4FDC0
:096AF800FCFFFE02527D126A1F30
:016B01002271
:105FE40090045F7402F0A37458F01270E59003C932
:105FF400E0F8A3E0F9A3E0FAA3E0FBC3EF9BFFEE14
:106004009AFEED99FDEC98FCE47B14FAF9F8C312BE
:106014001E9950611270E59003C9126B02900461DD
:10602400EEF0A3EFF0D3942CEE64809481401AE058
:1060340094BC900461E064809482500D90045FE00D
:10604400FCA3E0FDFFAE048029C3900462E094C881
:10605400900461E064809480501390045FE0FEA398
:10606400E0FFC3E49FFDE49EFCAF058004E4FDFC77
:05607400FFFE12527D49
:016079002204
:1065D10090045F7403F0A37484F01270E59003CD0E
:1065E100E0F8A3E0F9A3E0FAA3E0FBC3EF9BFFEE21
:1065F1009AFEED99FDEC98FCE47B64FAF9F8C3127C
:106601001E9950321270E59003CD121EEA126B05ED
:10661100C3EF94F4EE6480948190045FE0500DFE2A
:10662100A3E0FFC3E49FFDE49EFC8007FCA3E0FD23
:06663100FFAE0412527DD1
:016637002240
:1064960090039EE0606512697CEF705F1270E59074
:1064A60003D1E0F8A3E0F9A3E0FAA3E0FBC3EF9B76
:1064B600FFEE9AFEED99FDEC98FCE47B14FAF9F8F0
:1064C600C3121E9950351270E59003D1121EEA12BE
:1064D6006B05D3EF9482EE64809480401EEF94AAFD
:1064E600EE6480948050147BFF7A6379DE1221304B
:0B64F6007D647C007F017E0012687A4C
:016501002277
:1040760090039EE0700302433D12697CEF600302E9
:10408600433D1270E59003DCE0F8A3E0F9A3E0FA03
:10409600A3E0FBC3EF9BFFEE9AFEED99FDEC98FCC7
:1040A600E47B14FAF9F8C3121E9950281270E590B1
:1040B60003DC121EEA9003D5E004F0125C9D900327
:1040C600E0EEF0A3EFF09003D5E0C394054005E4DD
:1040D600F0A304F01270E59003D8E0F8A3E0F9A38A
:1040E600E0FAA3E0FBC3EF9BFFEE9AFEED99FDEC31
:1040F60098FCE47B64FAF9F8C3121E994003024364
:104106003D9003D6E06401600302433D1270E590E2
:1041160003D8121EEAE49003D6F090047674FFF0FA
:10412600A37463F0A374EBF09003E0E0FFA3E090C8
:104136000479CFF0A3EFF07B017A0179301235CC08
:104146007B017A017930126C4E900406E0FEA3E002
:10415600FF24F6FDEE34FFFC9003E0E0FAA3E0FB5B
:10416600D39DEC6480F8EA64809850030241F2EF34
:10417600240AFFE43EFEC3EB9FEE6480F8EA648007
:10418600985069E49003D7F0125C9D9003E0EEF03E
:10419600A3EFF07F147E00126F599003D7E004F06E
:1041A600E0C3940540E2900406E0FEA3E0FF24F697
:1041B600FDEE34FFFC9003E0E0FAA3E0FBD39DECB8
:1041C6006480F8EA648098500302433DEF240AFFB6
:1041D600E43EFEC3EB9FEE6480F8EA6480984003F9
:1041E60002433D7BFF7A6379FB02432F900408E08C
:1041F600FEA3E0FF24F6FDEE34FFFC9003E0E0FAB8
:10420600A3E0FBD39DEC6480F8EA64809850030237
:104216004295EF240AFFE43EFEC3EB9FEE6480F86E
:10422600EA6480985069E49003D7F0125C9D90038D
:10423600E0EEF0A3EFF07F147E00126F599003D7E3
:10424600E004F0E0C3940540E2900408E0FEA3E039
:10425600FF24F6FDEE34FFFC9003E0E0FAA3E0FB5A
:10426600D39DEC6480F8EA648098500302433DEFE6
:10427600240AFFE43EFEC3EB9FEE6480F8EA648006
:1042860098400302433D7BFF7A64790902432F90ED
:10429600040AE0FEA3E0FF24F6FDEE34FFFC9003E3
:1042A600E0E0FAA3E0FBD39DEC6480F8EA64809832
:1042B600500302433DEF240AFFE43EFEC3EB9FEEAC
:1042C6006480F8EA648098506EE49003D7F0125C3C
:1042D6009D9003E0EEF0A3EFF07F147E00126F597D
:1042E6009003D7E004F0E0C3940540E290040AE0AE
:1042F600FEA3E0FF24F6FDEE34FFFC9003E0E0FAB7
:10430600A3E0FBD39DEC6480F8EA6480984028EF34
:10431600240AFFE43EFEC3EB9FEE6480F8EA648065
:104326009850147BFF7A6479171221307D647C00E3
:074336007F017E0012687A8E
:01433D00225D
:1055DC0090039EE070030256CC12697CEF600302CC
:1055EC0056CC1270E59003E2E0F8A3E0F9A3E0FAE0
:1055FC00A3E0FBC3EF9BFFEE9AFEED99FDEC98FC4C
:10560C00E47B0AFAF9F8C3121E9950321270E59035
:10561C0003E2121EEA2090269003EBE004F07006E1
:10562C009003EAE004F03090FD9003EAE07004A3EC
:10563C00E0640170091270E59003E6121EEA127024
:10564C00E59003E6E0F8A3E0F9A3E0FAA3E0FBC3DE
:10565C00EF9BFFEE9AFEED99FDEC98FCE47BE87A6B
:10566C0003F9F8C3121E9950571270E59003E61215
:10567C001EEAD39003EBE094019003EAE06480947B
:10568C008040117BFF7A6479171221307D647C0095
:10569C007F028020D39003EBE094009003EAE06457
:1056AC0080948040147BFF7A6479091221307D64E8
:1056BC007C007F017E0012687AE49003EAF0A3F08C
:0156CC0022BB
:105B270090039EE07003025BE712697CEF6003025B
:105B37005BE7126B0590045FEEF0A3EFF01270E5E0
:105B47009003ECE0F8A3E0F9A3E0FAA3E0FBC3EFCE
:105B57009BFFEE9AFEED99FDEC98FCA3E0F8A3E01D
:105B6700F9A3E0FAA3E0FBC3121E9950731270E584
:105B77009003EC121EEAE47FD07E07FDFC9003F051
:105B8700E0F8A3E0F9A3E0FAA3E0FBD3121E9940E3
:105B97000B7D2C7C017F017E0012687A90045FE008
:105BA700FEA3E0FFD39455EE648094804025EF94E4
:105BB70073EE64809480501BE4FDFCFFFE12527D5F
:105BC7009003F0121EF6000027107BFF7A6379DE40
:105BD700022130126A1F9003F0121EF600000032F5
:015BE700229B
:10433E0090039EE0700302459512697CEF600302C4
:10434E0045951270E59003FCE0F8A3E0F9A3E0FABE
:10435E00A3E0FBC3EF9BFFEE9AFEED99FDEC98FCFC
:10436E00E47B14FAF9F8C3121E9950281270E590E6
:10437E0003FC121EEA9003F4E004F0125C9D90041C
:10438E0004EEF0A3EFF09003F4E0C394054005E4CF
:10439E00F0A304F01270E59003F8E0F8A3E0F9A39F
:1043AE00E0FAA3E0FBC3EF9BFFEE9AFEED99FDEC66
:1043BE0098FCE47B64FAF9F8C3121E994003024597
:1043CE00599003F5E0640160030245591270E590BF
:1043DE0003F8121EEAE49003F5F0900406E0FEA343
:1043EE00E0FF24F6FDEE34FFFC900404E0FAA3E0B7
:1043FE00FBD39DEC6480F8EA6480985003024499E4
:10440E00EF240AFFE43EFEC3EB9FEE6480F8EA64FD
:10441E0080985077E4FDFCFFFE12527DE49003F687
:10442E00F0125C9D900404EEF0A3EFF07F147E007A
:10443E00126F599003F6E004F0E0C3940540E29049
:10444E000406E0FEA3E0FF24F6FDEE34FFFC90042C
:10445E0004E0FAA3E0FBD39DEC6480F8EA64809854
:10446E005003024559EF240AFFE43EFEC3EB9FEED4
:10447E006480F8EA64809840030245599003F7740B
:10448E0001F07BFF7A64790902454490040AE0FE4C
:10449E00A3E0FF24F6FDEE34FFFC900404E0FAA343
:1044AE00E0FBD39DEC6480F8EA64809850030245EB
:1044BE0054EF240AFFE43EFEC3EB9FEE6480F8EA5D
:1044CE006480984003024554E4FDFCFFFE12527DC9
:1044DE00E49003F6F0125C9D900404EEF0A3EFF06E
:1044EE007F147E00126F599003F6E004F0E0C3943F
:1044FE000540E290040AE0FEA3E0FF24F6FDEE3450
:10450E00FFFC900404E0FAA3E0FBD39DEC6480F87A
:10451E00EA6480984035EF240AFFE43EFEC3EB9F29
:10452E00EE6480F8EA64809850219003F77401F0ED
:10453E007BFF7A6479171221307D647C007F017EC7
:10454E000012687A8005E49003F7F09003F7E070AC
:10455E00361270E5900400E0F8A3E0F9A3E0FAA3A8
:10456E00E0FBC3EF9BFFEE9AFEED99FDEC98FCE4A9
:10457E007B32FAF9F8C3121E99500C1270E59004B2
:07458E0000121EEA126A1F71
:014595002203
:104776007DE87C037F017E0012687AE4900461F094
:10478600A3F0125C9D90045FEEF0A3EFF07F0A7E2B
:1047960000126F59900462E004F07006900461E024
:1047A60004F0C3900462E094F4900461E094014044
:1047B600D190045FE0FFA3E0900406CFF0A3EFF0F2
:1047C6007DE87C037F017E0012687A7D2C7C017F68
:1047D600027E0012687AE4900461F0A3F0125C9DF8
:1047E60090045FEEF0A3EFF07F0A7E00126F5990FF
:1047F6000462E004F07006900461E004F0C39004E3
:1048060062E094F4900461E0940140D190045FE08A
:10481600FFA3E0900408CFF0A3EFF07DE87C037FD0
:10482600017E0012687A7DC87C007F037E001268D4
:104836007AE4900461F0A3F0125C9D90045FEEF0C0
:10484600A3EFF07F0A7E00126F59900462E004F035
:104856007006900461E004F0C3900462E094F49062
:104866000461E0940140D190045FE0FFA3E090046E
:104876000ACFF0A3EFF07DE87C037F017E0012688B
:104886007A900406E0FFA3E090012ACFF0A3EFF0B0
:10489600900408E0FFA3E090012CCFF0A3EFF09086
:1048A600040AE0FFA3E090012ECFF0A3EFF0126E12
:1048B600EF90047674FFF0A37463F0A374C1F090D4
:1048C6000406E0FFA3E0900479CFF0A3EFF0900494
:1048D60008E0FFA3E090047BCFF0A3EFF090040A7A
:1048E600E0FFA3E090047DCFF0A3EFF07B017A0117
:1048F60079301235CC7B017A017930126C4E9003F7
:044906009D740AF0A2
:01490A00228A
:0B4D3E004404C1000000004104C0005C
:106FCA00438E805389F0438901758AAA758CAAC2B7
:086FDA008DD28CD2A9D2AF22A6
:10706500438E4053890FE4F58BF58DC28FD28ED2B6
:04707500ABD2AF22C9
:1070B40043D10275D59A75D4A943D10843AF20D2E0
:0270C400AF22F9
:106D2F0090045DEEF0A3EFF0FDAC06EC12186FE4EB
:106D3F00FBFA79A4784112163AA804A905AA06AB62
:106D4F00077F007EFF7D7F7C471215451218A88FA5
:066D5F008AEEFF8F8C227A
:0F70E5009004C1E0FCA3E0FDA3E0FEA3E0FF22C6
:03000B000259890E
:10598900C0E0C0F0C083C082C0D075D000C000C0E4
:0D59990001C002C003C004C005C006C00765
:1059A60090039CE0C394084002E4F09004C0E070C9
:1059B6003490039CE075F00EA42404F582E43400D0
:1059C600F583E0FCA3E0FDA3E0FEA3E0FF1218A828
:1059D600126D2F90039CE0FF7D01126C8990039B52
:1059E6007401F0804A90039CE075F00EA42404F53F
:1059F60082E43400F583E0FCA3E0FDA3E0FEA3E02F
:105A0600FF1218A8C374C49FFF74099EFEC3EF94C7
:105A160014EE6480948050047E007F14126D2F90E3
:105A2600039CE0FFE4FD126C8990039CE004F09077
:105A360004C0E070047F0180027F009004C0EFF094
:105A4600D007D006D005D004D003D002D001D000B4
:0B5A5600D0D0D082D083D0F0D0E0325E
:03009B00026A6D89
:106A6D00C0E0C0F0C083C082C0D075D000C000C0EF
:106A7D0004C005C006C0079004C1E0FCA3E0FDA35F
:106A8D00E0FEA3E02401FFE43EFEE43DFDE43CFC1A
:106A9D009004C1121EEAD007D006D005D004D00054
:0B6AAD00D0D0D082D083D0F0D0E032F7
:03001B00026F3839
:106F3800C0E0C083C082758B00758D009003A0E00F
:106F480004F0700690039FE004F0D082D083D0E074
:016F58003206
:104D49004104AD004104AE004404AF00000000423C
:104D590004A300004104A6004204A700004204AADB
:024D6900000048
:0F70F4009004AFE0FCA3E0FDA3E0FEA3E0FF22C9
:1067600090045F121EEA43985090045FE0F8A3E0A3
:10677000F9A3E0FAA3E0FB7F007E607D547C001269
:106780001DF9EFF404F5D790045FE0F8A3E0F9A356
:10679000E0FAA3E0FB7F007E607D547C00121DF9CF
:1067A000C3E49FFFE49EFE74019DFDE49CFC780819
:1067B000121EAA8FD6438E15E4F587D2AFD2AC2233
:1067C00090045F121EEA759A5090045FE0F8A3E00F
:1067D000F9A3E0FAA3E0FB7F007E607D547C001209
:1067E0001DF9EFF404F5D790045FE0F8A3E0F9A3F6
:1067F000E0FAA3E0FB7F007E607D547C00121DF96F
:10680000C3E49FFFE49EFE74019DFDE49CFC7808B8
:0E681000121EAA8FD675AF0143BA01D2AF2275
:1066FF0090045F121EEA53BAFB75841090045FE09A
:10670F00F8A3E0F9A3E0FAA3E0FB7F007E607D54DD
:10671F007C00121DF9EFF404F5D790045FE0F8A3A5
:10672F00E0F9A3E0FAA3E0FB7F007E607D547C00DC
:10673F00121DF9C3E49FFFE49EFE74019DFDE49CCE
:10674F00FC7808121EAA8FD6438E1443AF10D2AF17
:01675F002217
:03719900D2AC2253
:03719C00C2AC2260
:04716E0043AF012208
:0471720053AFFE22F7
:0471760043AF1022F1
:04717A0053AFEF22FE
:080003008F993099FDC299228A
:0F6F9700A3E475F001121CA9A9F0FA121BD1FF97
:0B6FA6008F9BE59A30E1FB539AFD221F
:0B7129008F85E58430E1FB5384FD22DC
:106C4E00900473EBF0A3EAF0A3E9F0C28CC2A99012
:106C5E000473E0FBA3E0FAA3E0F9121BD1601790D6
:106C6E000473A3E475F001121CA9A9F0FA121BD14A
:0B6C7E00FF12000380D9D28CD2A922A3
:106F140090045FEBF0A3EAF0A3E9F090045FE0FBD8
:106F2400A3E0FAA3E0F9121BD1600890045F126F8A
:046F34009780E82238
:106D650090045FEBF0A3EAF0A3E9F090045FE0FB89
:106D7500A3E0FAA3E0F9121BD1601790045FA3E426
:106D850075F001121CA9A9F0FA121BD1FF12712985
:036D950080D92280
:106CF800900488EBF0A3EAF0A3E9F0C28CC2A99053
:106D080003347401F0900488E0FBA3E0FAA3E0F9EF
:106D1800121BD16008900488126F9780E8E49003F2
:076D280034F0D28CD2A92245
:03002300024D6C1F
:0D4D6C00C0E0C0F0C083C082C0D075D00888
:104D7900209803024EBBC2989004A5E599F0E0FF84
:104D8900700FA3E004F0E0C3940F400A75C7608078
:104D9900059004A6E4F0900334E06003024EBBEFF3
:104DA900B43C189003357404F09004A3E4F0A3F024
:104DB9001270E59004AF121EEA804B900335E07043
:104DC900459004A5E0FFB424089003357401F080F0
:104DD9002EEFB423089003357402F08022EFB47BE0
:104DE900119003357403F01270E59004AF121EEAB6
:104DF900800D9004A5E0B43C069003357404F0904E
:104E090004A3E4F0A3F09004A5E0FF9004A3E475E3
:104E1900F001121CA9FC743025F0F58274013CF5EF
:104E290083EFF0900335E0FEB40415EF643E70752E
:104E39009004A3E0FCA3E02430F58274013C805582
:104E4900EEB401179004A5E0B421109004A3E0FE8C
:104E5900A3E02430F58274013E803A900335E0B432
:104E690002179004A5E0B421109004A3E0FEA3E08A
:104E79002430F58274013E801C900335E0B403258B
:104E89009004A5E0B47D1E9004A3E0FEA3E02430C5
:104E9900F58274013EF583E4F090033404F0900444
:104EA900A3E4F0A3F0C39004A3E094024004E4F067
:024EB900A3F064
:0B4EBB00D0D0D082D083D0F0D0E03205
:0300430002500563
:0D500500C0E0C0F0C083C082C0D075D008EC
:10501200E59A20E0030251369004A9E59BF0539AE9
:10502200FE900334E060030251369004A9E0B43CE0
:10503200189003357404F09004A7E4F0A3F0127002
:10504200E59004AF121EEA803F900335E07039907C
:1050520004A9E0FFB424089003357401F08022EF24
:10506200B423089003357402F08016EFB47B0890E5
:1050720003357403F0800AEFB43C069003357404E0
:10508200F09004A7E4F0A3F09004A9E0FF9004A735
:10509200E475F001121CA9FC743025F0F58274014C
:1050A2003CF583EFF0900335E0FEB40415EF643E67
:1050B20070759004A7E0FCA3E02430F58274013CF3
:1050C2008055EEB401179004A9E0B421109004A712
:1050D200E0FEA3E02430F58274013E803A9003356D
:1050E200E0B402179004A9E0B421109004A7E0FEF6
:1050F200A3E02430F58274013E801C900335E0B4B5
:1051020003259004A9E0B47D1E9004A7E0FEA3E06D
:105112002430F58274013EF583E4F090033404F008
:105122009004A7E4F0A3F0C39004A7E09402400423
:04513200E4F0A3F012
:0B513600D0D0D082D083D0F0D0E03287
:03009300025141D6
:0D514100C0E0C0F0C083C082C0D075D008AF
:10514E00E58420E0030252725384FE9004ACE585A0
:10515E00F0900334E060030252729004ACE0B43C71
:10516E00189003357404F09004AAE4F0A3F01270C2
:10517E00E59004AF121EEA803F900335E07039903F
:10518E0004ACE0FFB424089003357401F08022EFE4
:10519E00B423089003357402F08016EFB47B0890A8
:1051AE0003357403F0800AEFB43C069003357404A3
:1051BE00F09004AAE4F0A3F09004ACE0FF9004AAEF
:1051CE00E475F001121CA9FC743025F0F58274010F
:1051DE003CF583EFF0900335E0FEB40415EF643E2A
:1051EE0070759004AAE0FCA3E02430F58274013CB3
:1051FE008055EEB401179004ACE0B421109004AACF
:10520E00E0FEA3E02430F58274013E803A9003352F
:10521E00E0B402179004ACE0B421109004AAE0FEB2
:10522E00A3E02430F58274013E801C900335E0B477
:10523E0003259004ACE0B47D1E9004AAE0FEA3E02A
:10524E002430F58274013EF583E4F090033404F0CB
:10525E009004AAE4F0A3F0C39004AAE094024004E0
:04526E00E4F0A3F0D5
:0B527200D0D0D082D083D0F0D0E0324A
