:10009E003C5053325F52454430313A233030355064
:1000AE00303630305432303030215E2444535421B7
:1000BE003E003C5053325F52454430323A2330308A
:1000CE003550323430305432303030215E24445387
:1000DE0054213E003C5053325F52454430333A2354
:1000EE0030303450303630305432303030215E249F
:1000FE00445354213E003C5053325F5245443034F9
:10010E003A233030345032343030543230303021A3
:10011E005E24445354213E003C5053325F524544BA
:10012E0030353A2330303250323430305432303071
:10013E0030215E24445354213E003C5053325F52D2
:10014E00454430363A233030335032343030543226
:10015E00303030215E24445354213E003C50533203
:10016E005F52454430373A233030325030363030DB
:10017E005432303030215E24445354213E003C50E2
:10018E0053325F52454430383A2330303350303694
:10019E0030305432303030215E24445354213E00EE
:1001AE003C5053325F52454430393A24444A52212E
:1001BE003E003C5053325F52454431303A24534D49
:1001CE004F44453130213E003C5053325F5245443E
:1001DE0031313A24534D4F44453130213E003C508D
:1001EE0053325F52454431323A244447533A322116
:1001FE003E003C5053325F52454431333A23303047
:10020E003150303630305432303030215E24445349
:10021E0054213E003C5053325F52454431343A2310
:10022E0030303050303630305432303030215E2461
:10023E00445354213E003C5053325F5245443135B5
:10024E003A23303031503234303054323030302165
:10025E005E24445354213E003C5053325F52454479
:10026E0031363A2330303050323430305432303030
:10027E0030215E24445354213E003C5053325F479C
:10028E00524E30313A24534D4F44453130213E00C9
:10029E003C5053325F47524E30323A24534D4F4406
:1002AE00453130213E003C5053325F47524E303381
:1002BE003A24213E003C5053325F47524E30343A7E
:1002CE0024534D4F444536213E003C5053325F4738
:1002DE00524E30353A24534D4F444534213E003C66
:1002EE005053325F47524E30363A24534D4F4445A9
:1002FE0038213E003C5053325F47524E30373A243D
:10030E00534D4F444535213E003C5053325F4752CA
:10031E004E30383A24534D4F444537213E003C5021
:10032E0053325F47524E30393A24444A52213E00EE
:10033E003C5053325F47524E31303A24534D4F4466
:10034E00453130213E003C5053325F47524E3131E1
:10035E003A24534D4F44453130213E003C505332E8
:10036E005F47524E31323A244447533A32213E00CF
:10037E003C5053325F47524E31333A24534D4F4423
:10038E004530213E003C5053325F47524E31343A95
:10039E0024534D4F444533213E003C5053325F476A
:1003AE00524E31353A24534D4F444531213E003C97
:1003BE005053325F47524E31363A24534D4F4445D7
:1003CE0032213E007B4730303030233030305031D8
:1003DE0035303054313030302123303031503135DA
:1003EE0030305431303030212330303250313530CE
:1003FE0030543130303021233030335031353030BD
:10040E005431303030212330303450313530305487
:10041E003130303021233030355031353030543199
:10042E00303030217D007B4730303031233030305A
:10043E005031353030543135303021233030315059
:10044E003135303054313530302123303032503167
:10045E003530305431353030212330303350313552
:10046E003030543135303021233030345031353046
:10047E003054313530302123303035503135303035
:10048E005430303030217D007B47303030322330D5
:10049E00303050313530305431353030212330301A
:1004AE003150323230305431353030212330303209
:1004BE0050323530305431353030212330303350D6
:1004CE0032303030543135303021233030345031E9
:1004DE0035303054313530302123303035503135D0
:1004EE0030305431353030217D007B473030303361
:1004FE0023303030503135303054313030302123CC
:10050E0030303150313530305431303030212330AD
:10051E00303250313530305431303030212330309C
:10052E003350313530305431303030212330303487
:10053E005031353030543130303021233030355059
:10054E00313030305431303030217D007B47303007
:10055E00303423303030503135303054313030304B
:10056E002123303031503131303054313030302160
:10057E002330303250313630305431303030212348
:10058E00303033503231303054313030302123302E
:10059E00303450313530305431303030212330301A
:1005AE003550313030305430303030217D007B4783
:1005BE0030303035233030305031353030543135E5
:1005CE0030302123303031503130353054313530E8
:1005DE0030212330303250313630305431303030DB
:1005EE0021233030335032313030543130303021DD
:1005FE0023303034503135303054313030302123C7
:10060E0030303550323030305430303030217D0083
:10061E007B47303030362330303050313530305427
:10062E003130303021233030315031383030543188
:10063E003030302123303032503138303054313078
:10064E00303021233030335032313030543130306D
:10065E003021233030345031353030543130303059
:10066E00212330303550323030305430303030215C
:10067E007D007B47303030372330303050303830CB
:10068E00305431303030212330303150313530302C
:10069E0054313030302123303032503135303054F7
:1006AE00313030302123303033503231303054310C
:1006BE0030303021233030345031353030543130F9
:1006CE0030302123303035503230303054303030ED
:1006DE0030217D007B473030303823303030503081
:1006EE0038303054313030302123303031503133C6
:1006FE0030305431303030212330303250313830B8
:10070E0030543130303021233030335032313030AC
:10071E005431303030212330303450313530305474
:10072E00313030302123303035503230303054308B
:10073E00303030217D007B4730303039233030303F
:10074E005030383030543130303021233030315049
:10075E00313330305431303030212330303250315B
:10076E003830305431303030212330303350323144
:10077E003030543130303021233030345031353038
:10078E00305431303030212330303550313030302C
:10079E005430303030217D007B47303031302330C3
:1007AE00303050303830305431303030212330300A
:1007BE0031503136303054313030302123303032F8
:1007CE0050313830305431303030212330303350C6
:1007DE0032313030543130303021233030345031DA
:1007EE0035303054313030302123303035503130C7
:1007FE0030305430303030217D007B473030313155
:10080E0023303030503135303054313530302123B3
:10081E003030315032323030543135303021233097
:10082E003032503235303054313530302123303083
:10083E003350323030305431353030212330303473
:10084E005031353030543135303021233030355041
:10085E00313530305431353030217D007B473030EA
:10086E003132233030305031353030543130303039
:10087E002123303031503135303054313030302149
:10088E002330303250313530305431303030212336
:10089E003030335031353030543130303021233018
:1008AE003034503135303054313030302123303007
:1008BE003550313530305431303030217D007B476A
:1008CE0030303133233030305031353230543130D6
:1008DE0030302123303031503131303054323030DD
:1008EE0030212330303250313835305431303030C1
:1008FE0021233030335032313030543130303021CA
:10090E0023303034503135303054313030302123B3
:10091E0030303550313030305430303030217D0071
:10092E007B47303031342330303050313532305413
:10093E00313030302123303031503131303054327B
:10094E003030302123303032503139303054313064
:10095E00303021233030335032313030543130305A
:10096E003021233030345031353030543130303046
:10097E002123303035503230303054303030302149
:10098E007D007B47303031352330303050313532B9
:10099E003054313030302123303031503138303016
:1009AE0054323030302123303032503230303054E7
:1009BE0031303030212330303350323030305431FA
:1009CE0030303021233030345031353030543130E6
:1009DE0030302123303035503230303054313030D9
:1009EE0030217D007B47303031362330303050316E
:1009FE0035323054313030302123303031503131B6
:100A0E0030305432303030212330303250313830A3
:100A1E00305431303030212330303350323030309A
:100A2E005431303030212330303450313530305461
:100A3E003130303021233030355032303030543177
:100A4E00303030217D007B4730303137233030302D
:100A5E005031353230543130303021233030315036
:100A6E003131303054323030302123303032503149
:100A7E003830305431303030212330303350323032
:100A8E003030543130303021233030345031353025
:100A9E003054313030302123303035503130303019
:100AAE005430303030217D007B47303031382330A8
:100ABE0030305031353030543135303021233030F4
:100ACE0031503232303054313530302123303032E3
:100ADE0050323530305431353030212330303350B0
:100AEE0032303030543135303021233030345031C3
:100AFE0035303054313530302123303035503135AA
:100B0E0030305431353030217D007B473030313933
:100B1E0023303030503135303054313030302123A5
:100B2E003030315031353030543130303021233087
:100B3E003032503135303054313030302123303076
:100B4E003350313530305431303030212330303461
:100B5E005031353030543130303021233030355033
:100B6E00313530305431303030217D007B473030DC
:100B7E003230233030305031353230543130303025
:100B8E002123303031503131303054323030302139
:100B9E00233030325031383530543130303021231B
:100BAE003030335032313030543130303021233008
:100BBE0030345031353030543130303021233030F4
:100BCE003550313030305430303030217D007B475D
:100BDE0030303231233030305031353230543130C4
:100BEE0030302123303031503131303054323030CA
:100BFE0030212330303250313930305431303030B2
:100C0E0021233030335032313030543130303021B6
:100C1E0023303034503135303054313030302123A0
:100C2E0030303550323030305430303030217D005D
:100C3E007B47303032322330303050313532305401
:100C4E003130303021233030315031383030543261
:100C5E003030302123303032503230303054313059
:100C6E003030212330303350323030305431303048
:100C7E003021233030345031353030543130303033
:100C8E002123303035503230303054313030302135
:100C9E007D007B47303032332330303050323230AB
:100CAE003054313030302123303031503138303003
:100CBE0054323030302123303032503230303054D4
:100CCE0031303030212330303350323030305431E7
:100CDE0030303021233030345031353030543130D3
:100CEE0030302123303035503230303054313030C6
:100CFE0030217D007B47303032342330303050325B
:100D0E0032303054313030302123303031503132A6
:100D1E003030543230303021233030325032303097
:100D2E003054313030302123303033503230303087
:100D3E00543130303021233030345031353030544E
:100D4E003130303021233030355032303030543164
:100D5E00303030217D007B4730303235233030301B
:100D6E005032323030543130303021233030315027
:100D7E003132303054323030302123303032503234
:100D8E003030305431303030212330303350323027
:100D9E003030543130303021233030345031353012
:100DAE003054313030302123303035503130303006
:100DBE005430303030217D007B4730303236233096
:100DCE0030305032323030543130303021233030E8
:100DDE0031503138303054323030302123303032CF
:100DEE0050323030305431303030212330303350A7
:100DFE0032303030543130303021233030345031B5
:100E0E0035303054313030302123303035503130A0
:100E1E0030305431303030217D007B473030323726
:100E2E00233030305031353030543135303021238D
:100E3E003030315032323030543135303021233071
:100E4E00303250323530305431353030212330305D
:100E5E00335032303030543135303021233030344D
:100E6E00503135303054313530302123303035501B
:100E7E00313530305431353030217D007B473030C4
:100E8E00323823303030503135303054313030300C
:100E9E002123303031503135303054313030302123
:100EAE002330303250313530305431303030212310
:100EBE0030303350313530305431303030212330F2
:100ECE0030345031353030543130303021233030E1
:100EDE003550313530305431303030217D007B4744
:100EEE0030303239233030305031353230543130A9
:100EFE0030302123303031503131303054323030B7
:100F0E00302123303032503138353054313030309A
:100F1E0021233030335032313030543130303021A3
:100F2E00233030345031353030543130303021238D
:100F3E0030303550313030305430303030217D004B
:100F4E007B473030333023303030503135323054EF
:100F5E003130303021233030315031313030543255
:100F6E00303030212330303250313930305431303E
:100F7E003030212330303350323130305431303034
:100F8E003021233030345031353030543130303020
:100F9E002123303035503230303054303030302123
:100FAE007D007B4730303331233030305031353295
:100FBE0030543130303021233030315031383030F0
:100FCE0054323030302123303032503230303054C1
:100FDE0031303030212330303350323030305431D4
:100FEE0030303021233030345031353030543130C0
:100FFE0030302123303035503230303054313030B3
:10100E0030217D007B47303033322330303050304A
:10101E003830305431303030212330303150313887
:10102E003030543230303021233030325032303084
:10103E003054313030302123303033503230303074
:10104E00543130303021233030345031353030543B
:10105E003130303021233030355032303030543151
:10106E00303030217D007B47303033332330303009
:10107E005030383030543130303021233030315010
:10108E003132303054323030302123303032503221
:10109E003030305431303030212330303350323014
:1010AE0030305431303030212330303450313530FF
:1010BE0030543130303021233030355032303030F2
:1010CE005431303030217D007B4730303334233083
:1010DE0030305030383030543130303021233030D1
:1010EE0031503132303054323030302123303032C2
:1010FE005032303030543130303021233030335094
:10110E0032303030543130303021233030345031A1
:10111E00353030543130303021233030355031308D
:10112E0030305430303030217D007B473030333515
:10113E00233030305030383030543130303021237D
:10114E00303031503138303054323030302123305D
:10115E003032503230303054313030302123303054
:10116E00335032303030543130303021233030343F
:10117E00503135303054313030302123303035500D
:10118E00313030305431303030217D007B473030BB
:10119E0033362330303050313530305431353030F5
:1011AE00212330303150323230305431353030210D
:1011BE0023303032503235303054313530302123F7
:1011CE0030303350323030305431353030212330DE
:1011DE0030345031353030543135303021233030C9
:1011EE003550313530305431353030217D00756118
:1011FE0072743120636865636B206F6B21007561BB
:10120E0072743220636865636B206F6B21007561A9
:10121E0072743420636865636B206F6B21005E000F
:10122E0024002300244453542100233235355044E6
:10123E0053542100244453543A00244453543A2521
:10124E00642100232530336450445354210024522A
:10125E0053542100244347503A00244347503A2523
:10126E00642D25642100244445473A002444454713
:10127E003A25642D25642100244447533A00244422
:10128E0047533A25642100244447543A00244447E6
:10129E00543A25642D25642C2564210024444352A0
:1012AE003A00244443523A25642C256421002444F8
:1012BE0057412100244457442100244341525F46A4
:1012CE002100244341525F422100244341525F4C8E
:1012DE002100244341525F522100244341525F5367
:1012EE00544F502100244A58425F5A484921002445
:1012FE004A58425F57414E210024444A522100234E
:10130E0032353550313530305432303030210024C2
:10131E004A58425F53574954434821002447455485
:10132E004121004141410024474554532100677239
:10133E006F75705F646F5F6F6B3D300067726F75B6
:10134E00705F646F5F6F6B3D310024474554494EAB
:10135E00432100696E632564203D202566200D0A19
:10136E0000244442543A00244442543A25642C2525
:10137E006421002444525321000D0A35314D43554A
:10138E002D494150313557344B363153340D0A0007
:10139E0024534D4F44450024534D4F44452564215D
:1013AE000024534D4152545F53544F50210040433B
:1013BE004C454152205052455F434D44204F4B21E6
:1013CE00003C244447543A25642D25642C25642181
:1013DE003E0040534554205052455F434D44204FEC
:1013EE004B2100450041000D0A00404572617365B6
:1013FE00202564204F4B210040446F47726F75705B
:10140E00202564204F4B210D0A004047726F7570E6
:10141E00446F6E65210041542B42415544380D0AEC
:10142E000041542B5350504E414D455A4C2D3531A1
:10143E002D4254322E300D0A0041542B4C454E4154
:10144E004D455A4C2D35312D4254342E300D0A0057
:10145E0041542B4E414D455A4C2D35312D4254326F
:10146E002E300D0A00FF009EFF00C0FF00E2FF01BC
:10147E0004FF0126FF0148FF016AFF018CFF01AE48
:10148E00FF01C0FF01D6FF01ECFF0200FF0222FFA9
:10149E000244FF0266FF0288FF029EFF02B4FF02B3
:1014AE00C3FF02D8FF02EDFF0302FF0317FF032C59
:1014BE00FF033EFF0354FF036AFF037EFF0393FF08
:1014CE0003A8FF03BDFF03D2FF0434FF0496FF04FD
:1014DE00F8FF055AFF05BCFF061EFF0680FF06E259
:1014EE00FF0744FF07A6FF0808FF086AFF08CCFFA6
:1014FE00092EFF0990FF09F2FF0A54FF0AB6FF0BEF
:10150E0018FF0B7AFF0BDCFF0C3EFF0CA0FF0D0249
:10151E00FF0D64FF0DC6FF0E28FF0E8AFF0EECFFB7
:10152E000F4EFF0FB0FF1012FF1074FF10D6FF11F9
:04153E0038FF119AC7
:104A57004204340000420436000041044301440488
:104A67004400000000410448004104490044044A4E
:104A77000000000044044E000000004404520000FF
:104A87000000490456000000000000000000440434
:104A97000E000000004104120041041300440414F6
:104AA70000000BB84404180000000042041C00007A
:104AB70042041E00004204200000420423FFFF417D
:104AC70004290044042A0000000041042E01410487
:094AD7002F00440430000000002F
:1069010012715612715912715C12715F1271621219
:106911005E7F12716512001E1270AE126FBA126F95
:10692100D1126FE812716B1254941270EA127168ED
:10693100127140126B66126C991260501256AC12B1
:1069410048D3126BE91267F6125F1D12004612401E
:036951007680E36A
:037156000269A724
:037159000200260B
:03715C00D2A0229C
:03715F00D2C92270
:0371620002000E1A
:05001E007F07026FFFE7
:105E7F00127120126E4EEF64167003EE64EF600421
:105E8F00C2C980EF7B017A00797090047CE4F0A3A3
:105E9F0074C0F07F007EF07DFF7CFF1266747FF68A
:105EAF007EEE7D337C01900070E0F8A3E0F9A3E073
:105EBF00FAA3E0FBC3121E996017900070121EF632
:105ECF000133EEF6900074121EF600000000126E01
:105EDF00C7900127E07004A3E064386030E49004B9
:105EEF0042F0900442E0FFC394085018EF25E024DD
:105EFF0017F582E43401F583E4F0A3F0900442E057
:0E5F0F0004F080DE900127E4F0A37438F02245
:037165000271397B
:0371680002703D75
:0F70AE007FE87E031268ABE4FDFCFFFE02524D4B
:106FBA007F007EC27D017C001267381271717BFFEF
:076FCA007A1179FC026C262C
:106FD1007F007EC27D017C001267981271467BFFA3
:076FE1007A12790C026EEC3C
:106FE8007F007EC27D017C001266D712714E7BFF46
:076FF8007A12791C026D3DC5
:03716B0002708C23
:106B6600C2C9C2A07F647E00126F31D2C9D2A07F93
:106B7600647E00126F31C2C9C2A07F647E00126FAC
:106B860031D2C9D2A07F647E00126F31C2C9C2A0C1
:106B96007F647E00126F31D2C9D2A07F647E00026C
:026BA6006F314D
:105494007E027F047D007B017A0179301220827BB9
:1054A400017A01793090047C7401F0A3E4F0FF7E6A
:1054B40002FDFC126674900130E0647B7068A3E026
:1054C40064477062900136E06423705A9004427419
:1054D40010F07B017A017930127014900442E0C319
:1054E4009FE49E503EE0FF2430F582E43401F583CE
:1054F4007430F074312FF582E43401F5837430F0A4
:1055040074322FF582E43401F5837430F074332F50
:10551400F582E43401F5837430F0900442E0240F02
:10552400F080AF122CFA900116E06438707978306C
:105534007C017D017B017A007978122065900078E6
:10554400E0B424097B017A00797802213090044286
:105554007410F07B017A017930127014900442E0E7
:10556400C39FE49E503EE0FF2430F582E43401F50D
:10557400837430F074312FF582E43401F583743090
:10558400F074322FF582E43401F5837430F074330F
:105594002FF582E43401F5837430F0900442E02462
:0855A4000FF080AF122CFA2277
:0671400075B810D2AF2269
:106C99001270BD90040EE0F8A3E0F9A3E0FAA3E0B6
:106CA900FBC3EF9BFFEE9AFEED99FDEC98FCE47BAC
:106CB900F47A01F9F8D3121E99500B1270BD9004A1
:066CC9000E121EEAB2A04B
:016CCF0022A2
:10605000900334E0603A900335E0B4010512212A40
:106060008025900335E0B402028007900335E0B448
:106070000305122CFA8010900335E0B404097B016B
:106080007A01793012455EE4900335F0900334F0E4
:106090001270CCC004C005C006C0071270BDD0038A
:1060A000D002D001D000C3EF9BFFEE9AFEED99FD28
:1060B000EC98FCE47B64FAF9F8C3121E9950109036
:1060C0000412E0701BD28ED2AB04F0E4A3F0229055
:1060D0000413E0700BC28EC2AB900412F0A304F064
:0160E000229D
:10004600900448E0B401431270BD900444E0F8A364
:10005600E0F9A3E0FAA3E0FBC3EF9BFFEE9AFEED07
:1000660099FDEC98FC900414E0F8A3E0F9A3E0FAFB
:10007600A3E0FBC3121E995011E4900448F01270DD
:0A008600BD900444121EEA126EC77A
:01009000224D
:106BE9001270BD900418E0F8A3E0F9A3E0FAA3E05D
:106BF900FBC3EF9BFFEE9AFEED99FDEC98FCE47B5D
:106C090014FAF9F8D3121E9950121270BD90041893
:0C6C1900121EEA7B017A047956125D24F9
:016C2500224C
:105F1D00900457E064736003025FB990045EE0FF84
:105F2D00C3747F9FFFE49400FEEF7803C333CE3339
:105F3D00CED8F9FF900461EEF0FCA3EFF0FD9004D4
:105F4D005CE0FFC3747F9FFFE49400FEEF7803C312
:105F5D0033CE33CED8F9FF900463EEF0A3EFF0907B
:105F6D00041CE0B50417A3E0B50512A3E0FEA3E001
:105F7D00FF900463E06E7003A3E06F602F900461E7
:105F8D00E0FEA3E0FFA3E0FCA3E0FD12524D900460
:105F9D0061E0FFA3E090041CCFF0A3EFF090046349
:0C5FAD00E0FFA3E090041ECFF0A3EFF093
:015FB90022C5
:1067F600900457E0FF900422E06F6019EFF0B47345
:106806000690039D74FFF0E4FDFCFFFE12524D90CE
:10681600039E7401F0900459E0FF900420E0B50750
:106826000C90045AE0FF900421E06F601E7B017A11
:10683600047959900457E0FD123D44900459E090C4
:0B6846000420F090045AE0900421F0C0
:016851002224
:053D4400900461EDF0A8
:103D4900E4900463F0900001121BEAFD7C00121B51
:103D5900D1FEE42DFFEC3EFE900425F0A3EFF09098
:103D69000423E0FCA3E0FD6F7002EC6E70030240D7
:103D790075A3E0FEA3E0FFA3EEF0A3EFF0EE5CFE77
:103D8900EF5DFF900425EEF0A3EFF0E4900462F0FC
:103D9900900462E0FFC39410400302405B74017E0B
:103DA90000A807088005C333CE33CED8F9FF9004A5
:103DB90025E05EFCA3E05F4C6003024052900423BF
:103DC900E05EFEA3E05F4E7003023EF87E027F04D0
:103DD9007D007B017A017930122082900461E064D0
:103DE90073702EA3E075F003A42473F582E43414F0
:103DF900F583E493FB740193FA740293F912701436
:103E0900900462E075F003A42473F582E43414800D
:103E190037900461E064416003024052A3E075F009
:103E290003A424A3F582E43414F583E493FB740119
:103E390093FA740293F9127014900462E075F00316
:103E4900A424A3F582E43414F583E493FB74019369
:103E5900FA740293F978307C017D01121BAB90044E
:103E69007474FFF0A37412F0A3742CF07B017A012F
:103E7900793012537B900463EFF0600CE0242FF546
:103E890082E43401F583E4F090047474FFF0A374C0
:103E990012F0A3742EF07B017A01793012537BEF73
:103EA9004E601478377C037D017B017A01793B12DE
:103EB900206512211B802D90047474FFF0A37412E5
:103EC900F0A37430F07B017A01793012537BEF4E05
:103ED900601278377C037D017B017A01793B1220DE
:103EE90065122CEB74FF900423F0A3F00240527E7C
:103EF900027F047D007B017A0179301220829004CF
:103F090061E06473702EA3E075F003A42473F58255
:103F1900E43414F583E493FB740193FA740293F97E
:103F2900127014900462E075F003A42473F582E41E
:103F390034148037900461E064416003024052A365
:103F4900E075F003A424A3F582E43414F583E49323
:103F5900FB740193FA740293F9127014900462E0ED
:103F690075F003A424A3F582E43414F583E493FBE8
:103F7900740193FA740293F978307C017D01121B64
:103F8900AB90047474FFF0A37412F0A3742CF07B4B
:103F9900017A01793012537B900463EFF0700302C8
:103FA9004052E07E002430F9EE3401FA7B0190049E
:103FB9007474FFF0A37412F0A3742EF012537BEF04
:103FC9004E6032900463E07E002430F9EE3401FA49
:103FD9007B0178377C037D011220657B017A0379A7
:103FE9003712701474362FF58274033EF583E4F0AA
:103FF90012211B8054900463E07E002430F9EE34D2
:1040090001FA7B0190047474FFF0A37412F0A37495
:1040190030F012537BEF4E6030900463E07E002451
:1040290030F9EE3401FA7B0178377C037D011220E7
:10403900657B017A03793712701474362FF582740F
:10404900033EF583E4F0122CEB900462E004F002E5
:104059003D99900427E0FFA3E0900423CFF0A3EF5C
:0C406900F0C2C97F327E00126F31D2C954
:014075002228
:01009100224C
:10211B0078307C017D017B017A0379371220657B56
:05212B00017A0179308A
:0B213000900464EBF0A3EAF0A3E9F0D8
:10213B00126C2690047474FFF0A37412F0A3743223
:10214B00F0900464E0FBA3E0FAA3E0F912537B9058
:10215B000467EEF0A3EFF04E700302220190039E92
:10216B007401F0E4900469F0A3F0900469E0FAA321
:10217B00E0FBC39408EA9400506490000875F00EDD
:10218B00EB121F27EA75F00EA42583F583121EF6BA
:10219B000000000090000475F00EEB121F27EA758B
:1021AB00F00EA42583F583E0FCA3E0FDA3E0FEA3E2
:1021BB00E0FF900469E0FAA3E090000075F00E12C6
:1021CB001F27EA75F00EA42583F583121EEA9004EF
:1021DB006AE004F07094900469E004F0808C7BFF5B
:1021EB007A127938126CD0E4FDFCFFFE12524D903E
:1021FB00039D740AF02290047474FFF0A37412F020
:10220B00A37442F0900464E0FBA3E0FAA3E0F9129C
:10221B00537B900467EEF0A3EFF04E70030222E4C1
:10222B0090047474FFF0A37412F0A37448F0A374B9
:10223B0001F0A37404F0A3746BF0900464E0FBA3AF
:10224B00E0FAA3E0F9123A73EF4E7003022CEA9016
:10225B00046BE0FAA3E0FB90000875F00E121F2749
:10226B00EA75F00EA42583F583121EF6000000001C
:10227B0090000475F00EEB121F27EA75F00EA425E3
:10228B0083F583E0FCA3E0FDA3E0FEA3E0FF900455
:10229B006BE0FAA3E090000075F00E121F27EA75B1
:1022AB00F00EA42583F583121EEA90047874FFF0D8
:1022BB00A37412F0A37451F090046BE0FFA3E090B1
:1022CB00047BCFF0A3EFF07B017A0379371235CC87
:1022DB007B017A037937026CD090047474FFF0A3FE
:1022EB007412F0A3745CF0900464E0FBA3E0FAA317
:1022FB00E0F912537B900467EEF0A3EFF04E60030E
:10230B0002009690047474FFF0A37412F0A374622D
:10231B00F0900464E0FBA3E0FAA3E0F912537B9086
:10232B000467EEF0A3EFF04E604C90047474FFF072
:10233B00A37412F0A37468F0A37401F0A37404F0F7
:10234B00A3746DF0A37401F0A37404F0A3746FF085
:10235B00900464E0FBA3E0FAA3E0F9123A73EF4EAA
:10236B007003022CEA90046DE0FEA3E0FFA3E0FCF7
:10237B00A3E0FD025DD490047474FFF0A37412F01B
:10238B00A37474F0900464E0FBA3E0FAA3E0F912E9
:10239B00537B900467EEF0A3EFF04E604C90047407
:1023AB0074FFF0A37412F0A3747AF0A37401F0A37A
:1023BB007404F0A3746DF0A37401F0A37404F0A380
:1023CB00746FF0900464E0FBA3E0FAA3E0F9123A17
:1023DB0073EF4E7003022CEA90046DE0FEA3E0FF56
:1023EB00A3E0FCA3E0FD025A4090047474FFF0A339
:1023FB007412F0A37486F0900464E0FBA3E0FAA3DC
:10240B00E0F912537B900467EEF0A3EFF04E6041BE
:10241B0090047474FFF0A37412F0A3748CF0A37483
:10242B0001F0A37404F0A3746DF0900464E0FBA3BB
:10243B00E0FAA3E0F9123A73EF4E7003022CEA9024
:10244B00046DE0FEA3E0FF12654290039E7401F061
:10245B002290047474FFF0A37412F0A37495F0909F
:10246B000464E0FBA3E0FAA3E0F912537B9004674A
:10247B00EEF0A3EFF04E700302250A90047474FF84
:10248B00F0A37412F0A3749BF0A37401F0A3740473
:10249B00F0A3743CF0A37401F0A37404F0A3743E96
:1024AB00F0A37401F0A37404F0A37440F0900464DF
:1024BB00E0FBA3E0FAA3E0F9123A73EF4E700302CC
:1024CB002CEA90043EE0FCA3E0FD90043CE0FEA36C
:1024DB00E0FF6D7002EE6C601D900438EEF0A3EF20
:1024EB00F0900440E0FDA3E090043ACDF0A3EDF0B2
:1024FB00E490039EF02290039E7401F0022BFB905C
:10250B00047474FFF0A37412F0A374AAF090046423
:10251B00E0FBA3E0FAA3E0F912537B900467EEF023
:10252B00A3EFF04E604C90047474FFF0A37412F0A0
:10253B00A374B0F0A37401F0A37404F0A3746DF052
:10254B00A37401F0A37404F0A3746FF0900464E01F
:10255B00FBA3E0FAA3E0F9123A73EF4E7003022CDF
:10256B00EA90046DE0FEA3E0FFA3E0FCA3E0FD0214
:10257B002CE790047474FFF0A37412F0A374BCF0F6
:10258B00900464E0FBA3E0FAA3E0F912537B900400
:10259B0067EEF0A3EFF04E600D900443E014F0E013
:1025AB00703804F0803490047474FFF0A37412F04C
:1025BB00A374C2F0900464E0FBA3E0FAA3E0F91269
:1025CB00537B900467EEF0A3EFF04E601990044339
:1025DB00E004F0E0B404037403F0C2C97F647E002E
:1025EB00126F31D2C92290047474FFF0A37412F0ED
:1025FB00A374C8F0900464E0FBA3E0FAA3E0F91223
:10260B00537B900467EEF0A3EFF04E600B7DE87CFC
:10261B00037FE87E03022CE790047474FFF0A3742D
:10262B0012F0A374D0F0900464E0FBA3E0FAA3E0F3
:10263B00F912537B900467EEF0A3EFF04E600B7D25
:10264B00187CFC7F187EFC022CE790047474FFF05E
:10265B00A37412F0A374D8F0900464E0FBA3E0FA27
:10266B00A3E0F912537B900467EEF0A3EFF04E60FA
:10267B000B7DE87C037F187EFC022CE790047474BE
:10268B00FFF0A37412F0A374E0F0900464E0FBA3DA
:10269B00E0FAA3E0F912537B900467EEF0A3EFF09E
:1026AB004E600B7D187CFC7FE87E03022CE79004C8
:1026BB007474FFF0A37412F0A374E8F0900464E058
:1026CB00FBA3E0FAA3E0F912537B900467EEF0A3AF
:1026DB00EFF04E6008E4FDFCFFFE022CE790047463
:1026EB0074FFF0A37412F0A374F3F0900464E0FB96
:1026FB00A3E0FAA3E0F912537B900467EEF0A3EF8B
:10270B00F04E60077F017E00022BFB90047474FF78
:10271B00F0A37412F0A374FDF0900464E0FBA3E04B
:10272B00FAA3E0F912537B900467EEF0A3EFF04E9F
:10273B0060077F027E00022BFB90047474FFF0A3F2
:10274B007413F0A37407F0900464E0FBA3E0FAA306
:10275B00E0F912537B900467EEF0A3EFF04E700399
:10276B000228777BFF7A13790D126CD0E490046901
:10277B00F0A3F0900469E0FAA3E0FBC39408EA9499
:10278B00004003022CEA90000075F00EEB121F279D
:10279B00EA75F00EA42583F583121EF644BB800068
:1027AB0090000C75F00EEB121F27EA75F00EA425A6
:1027BB0083F5837407F0A374D0F0900469E0FEA353
:1027CB00E090000C75F00E121F27EE75F00EA4258D
:1027DB0083F583E0FCA3E0FDEC12186FE4FBFA79C0
:1027EB00A07841121743C004C005C006C00790046F
:1027FB0069E0FEA3E0FF90000475F00E121F27EEB8
:10280B0075F00EA42583F583E0F8A3E0F9A3E0FAB5
:10281B00A3E0FB90000075F00EEF121F27EE75F092
:10282B000EA42583F583E0FCA3E0FDA3E0FEA3E06B
:10283B00FF121545D003D002D001D00012174390E0
:10284B000469E0FAA3E090000875F00E121F27EA66
:10285B0075F00EA42583F583121EEA90046AE0043A
:10286B00F07006900469E004F002277E9004747403
:10287B00FFF0A37413F0A3741DF0900464E0FBA3AA
:10288B00E0FAA3E0F912537B900467EEF0A3EFF0AC
:10289B004E70030229CD7BFF7A13790D126CD0E4B5
:1028AB00900469F0A3F0900469E0FAA3E0FBC394F1
:1028BB0008EA940040030229AA90000075F00EEB81
:1028CB00121F27EA75F00EA42583F583121EF6441A
:1028DB00BB800090000C75F00EEB121F27EA75F011
:1028EB000EA42583F5837407F0A374D0F0900469CC
:1028FB00E0FEA3E090000C75F00E121F27EE75F0B2
:10290B000EA42583F583E0FCA3E0FDEC12186FE425
:10291B00FBFA79A07841121743C004C005C006C06A
:10292B0007900469E0FEA3E0FF90000475F00E121F
:10293B001F27EE75F00EA42583F583E0F8A3E0F9CD
:10294B00A3E0FAA3E0FB90000075F00EEF121F2737
:10295B00EE75F00EA42583F583E0FCA3E0FDA3E068
:10296B00FEA3E0FF121545D003D002D001D0001218
:10297B001743900469E0FAA3E090000875F00E127B
:10298B001F27EA75F00EA42583F583121EEA900427
:10299B006AE004F07006900469E004F00228B1903C
:1029AB000429E060047F0180027F027E00126542F1
:1029BB00900429E070047F0180027F00900429EFCE
:1029CB00F02290047474FFF0A37413F0A3742AF034
:1029DB00900464E0FBA3E0FAA3E0F912537B9004AC
:1029EB0067EEF0A3EFF04E60097BFF7A13793102AB
:1029FB002C2B90047474FFF0A37413F0A37435F0B4
:102A0B00900464E0FBA3E0FAA3E0F912537B90047B
:102A1B0067EEF0A3EFF04E601690039EE07BFF7025
:102A2B00077A13793C022C2B7A13794A022C2B90C0
:102A3B00047474FFF0A37413F0A37458F09004643F
:102A4B00E0FBA3E0FAA3E0F912537B900467EEF0EE
:102A5B00A3EFF04E6076E4A3F0A3F090047874FF3C
:102A6B00F0A37413F0A37461F0900469E0FEA3E08B
:102A7B00FD90047BEEF0A3EDF090000875F00E12C4
:102A8B001F27EE75F00EA42583F583E0FCA3E0FD74
:102A9B00A3E0FEA3E0FF90047D121EEA7B017A0304
:102AAB0079371235CC7B017A037937126C26900477
:102ABB006AE004F07006900469E004F0C390046AC5
:102ACB00E09408900469E0940040902290047474A0
:102ADB00FFF0A37413F0A3746FF07B017A017930CC
:102AEB0012537B900467EEF0A3EFF04E7003022BB2
:102AFB00FE90047474FFF0A37413F0A37475F0A329
:102B0B007401F0A37404F0A3746DF0A37401F0A32B
:102B1B007404F0A3746FF07B017A017930123A736D
:102B2B00EF4E7003022CEA90046DE0FEA3E0FF640D
:102B3B00014E700F90043CF0A304F0A3E4F0A374D7
:102B4B000A8031EF64024E701090043CF0A3740BBA
:102B5B00F0A3E4F0A37414804190046DE0FEA3E0B5
:102B6B00FF64034E702090043CF0A37415F0A3E4B3
:102B7B00F0A3741EF090046FE0FDA3E0900440CD31
:102B8B00F0A3EDF08031EF64044E702090043CF024
:102B9B00A3741FF0A3E4F0A37428F090046FE0FF7C
:102BAB00A3E0900440CFF0A3EFF0800BE490043C43
:102BBB00F0A3F0A3F0A3F090043EE0FCA3E0FD90A3
:102BCB00043CE0FEA3E0FF6D7002EE6C602290040B
:102BDB0038EEF0A3EFF0900440E0FDA3E090043A50
:102BEB00CDF0A3EDF0E490039EF090044904F022A5
:102BFB0002654290047474FFF0A37413F0A3748104
:102C0B00F0900464E0FBA3E0FAA3E0F912537B908D
:102C1B000467EEF0A3EFF04E60097BFF7A13798720
:102C2B00026C2690047474FFF0A37413F0A3749ECB
:102C3B00F0900464E0FBA3E0FAA3E0F912537B905D
:102C4B000467EEF0A3EFF04E605590047474FFF040
:102C5B00A37413F0A374A5F0A37401F0A37404F090
:102C6B00A3746DF0900464E0FBA3E0FAA3E0F91207
:102C7B003A73EF4E606990046DE0FEA3E0FFC394DE
:102C8B000AEE64809480505790039DEFF07D647C36
:102C9B00007F017E00126852E4FDFCFFFE803D9038
:102CAB00047474FFF0A37413F0A374AFF090046476
:102CBB00E0FBA3E0FAA3E0F912537B900467EEF07C
:102CCB00A3EFF04E601990039D740AF07D647C00B5
:0F2CDB007F017E00126852E4FDFCFFFE12524D95
:012CEA0022C7
:0B455E00900461EBF0A3EAF0A3E9F089
:10456900E4A3F0A3F0900461E0FBA3E0FAA3E0F96F
:10457900900001121BEAB4241A900002121BEAB43B
:104589002111E4900116F0126EC77BFF7A1379BCF2
:1045990002473A900461E0FBA3E0FAA3E0F9900036
:1045A90001121BEA6424600302467190047474FFCB
:1045B900F0A37413F0A374CFF0A37401F0A37404EF
:1045C900F0A3743CF0A37401F0A37404F0A3743E47
:1045D900F0A37401F0A37404F0A37440F0123A73C9
:1045E900EF4E700302473D90043EE0FEA3E0FF90CA
:1045F900043CE0B5061EA3E0B507197B017A0079F2
:10460900787F00FEE4FCFD90047C04F0A3E4F01242
:10461900667480427E007F9F7D007B017A007978F5
:10462900122082900461E0FBA3E0FAA3E02401F9DF
:10463900E43AFA78787C007D01122065900461E003
:10464900FBA3E0FAA3E0F912701474762FF58274D3
:10465900003EF583E4F09001167438F0126EC77BC2
:10466900FF7A1379E002473A900461E0FBA3E0FA8C
:10467900A3E0F91260E1900464EEF0A3EFF0F470A6
:1046890002EEF46015900461E0FBA3E0FAA3E0F9FF
:10469900900006121BEA642360097BFF7A1379F103
:1046A90002473A900465E07B00FA7C107D007F00A8
:1046B900FE121C5DED4C70127C10FDFFAE02121C47
:1046C9005DEE3395E0FDFC1264DA900461E0FBA332
:1046D900E0FAA3E0F990046A747BF07D3C126F89DB
:1046E900900461E0FBA3E0FAA3E0F990046A747D09
:1046F900F07D3E126F89900461E0FBA3E0FAA3E02C
:10470900F9127014EF2401FFE43E90046DF0A3EF59
:10471900F0900461E0FBA3E0FAA3E0F9900465E0FE
:104729007F00FE3395E0FDFC1257987BFF7A1379E1
:04473900F3126C26E5
:01473D002259
:0B60E100900466EBF0A3EAF0A3E9F0E6
:1060EC00E4A3F0A3F0900466E0FBA3E0FAA3E0F9CC
:1060FC00121BD1606764477057900467804190040D
:10610C0066E0FBA3E0FAA3E0F9121BD1FF64236065
:10611C0036EF64246031EFFB7A00900469E0FEA353
:10612C00E0FF7C007D0A121C4BEF2BFFEA3ECF24D4
:10613C00D0CF34FF900469F0A3EFF0900467E475BE
:10614C00F001121C9380B7900469E0FEA3E0FF22DB
:10615C00900467E475F001121C9380897EFF7FFF29
:01616C002210
:105DD400900471EEF0A3EFF0A3ECF0A3EDF09004C7
:105DE40073E0FEA3E0FFD3900472E09FEE6480F8BA
:105DF400900471E064809840179004787401F0A3D3
:105E04007404F0A37473F07B017A047971126B2328
:105E1400900473E0FEA3E0FFD3900472E09FEE646D
:105E240080F8900471E0648098504F7E027F047D76
:105E3400007B017A0179301220827B017A0179306A
:105E4400900472E07F00FE3395E0FDFC90047C74C6
:105E540001F0A3E4F01266747B017A017930126CCC
:105E6400267BFF7A1379F5126C26900472E004F015
:0B5E7400709E900471E004F080962204
:0B6B2300900475EBF0A3EAF0A3E9F08A
:106B2E00121CBFFFAEF0900478E0FBA3E0FAA3E0E6
:106B3E00F9121CBFFD900475E0FBA3E0FAA3E0F987
:106B4E00E5F08DF0121D22900478E0FBA3E0FAA38D
:086B5E00E0F9EE8FF0021D22A8
:105A4000900471EEF0A3EFF0A3ECF0A3EDF090045E
:105A500073E0FEA3E0FFD3900472E09FEE6480F851
:105A6000900471E064809840179004787401F0A36A
:105A70007404F0A37473F07B017A047971126B23C0
:105A8000C3900474E0947F900473E0648094804039
:105A900006E4F0A3747FF0900473E0FCA3E0FD90B3
:105AA0000471E0FEA3E0FFD39DEC6480F8EE648017
:105AB000985048EE3395E0FDFC1264DA9004787457
:105AC000FFF0A37413F0A374F8F0900471E0FFA347
:105AD000E090047BCFF0A3EFF07B017A03793712DB
:105AE00035CC7B017A037937126C26900472E0047E
:105AF000F070A4900471E004F0809C900452121E97
:065B0000F6000000002287
:10654200900471EEF0A3EFF07E027F047D007B01E8
:106552007A0179301220827B017A017930900472BB
:10656200E07F00FE3395E0FDFC90047C7401F0A313
:10657200E4F0126674122CFA90047874FFF0A3749B
:1065820014F0A37406F0900471E0FFA3E090047B82
:10659200CFF0A3EFF07B017A0379371235CC7B0180
:0765A2007A037937026C2631
:106BA800900464121EEAE4FFFEFDFC900464E0F821
:106BB800A3E0F9A3E0FAA3E0FB1217E06011400F8D
:106BC800900464E0FCA3E0FDA3E0FEA3E0FF2290B4
:106BD8000464E0FCA3E0FDA3E0FEA3E0FF12185963
:016BE800228A
:054BCB00900461EFF011
:104BD00075F00EA42408F582E43400F583E0FCA30C
:104BE000E0FDA3E0FEA3E0FFE4FBFAF9F81217E012
:104BF0007003024D3B900461E075F00EA42400F5B3
:104C000082E43400F583E0FCA3E0FDA3E0FEA3E032
:104C1000FF1218A8900462EEF0A3EFF0D394C4EE54
:104C200064809489400C9004627409F0A374C4F009
:104C30008018C3900463E094F4900462E06480946C
:104C40008150077401F0A374F4F0900462E0FCA3B7
:104C5000E0FDEC12186F900461E075F00EA42404DE
:104C6000F582E43400F583E0F8A3E0F9A3E0FAA3C9
:104C7000E0FB121545126BA8C004C005C006C007B2
:104C8000900461E075F00EA42408F582E43400F588
:104C900083E0FCA3E0FDA3E0FEA3E0FFA804A905D8
:104CA000AA06FB121549126BA8A804A905AA06AB0F
:104CB00007D007D006D005D0041217E04037900483
:104CC00062E0FCA3E0FDEC12186F900461E0FB755C
:104CD000F00EA42404F582E43400F583121EEAEBFE
:104CE00075F00EA42408F582E43400F583121EF654
:104CF0000000000022900461E075F00EA42404F589
:104D000082E43400F583C083C082E0FCA3E0FDA30D
:104D1000E0FEA3E0FF900461E075F00EA42408F526
:104D200082E43400F583E0F8A3E0F9A3E0FAA3E01D
:0B4D3000FB121549D082D083121EEA4E
:014D3B002255
:1056AC0090039BE0600D90039CE0FF124BCBE490C9
:1056BC00039BF0126954EF600302579790039EE02E
:1056CC006003025797900438E0FEA3E0FF12654296
:1056DC0090043EE0FEA3E0FF90043CE0FCA3E0FD60
:1056EC00C39FEC9E5047900438E0B50631A3E0B55B
:1056FC00072C900438ECF0A3EDF0900440E070021D
:10570C00A3E0700302579790043BE024FFF0900451
:10571C003AE034FFF0E07002A3E0706F8051900427
:10572C0039E004F07065900438E004F02290043EF7
:10573C00E0FEA3E0FF900438E06E7003A3E06F700E
:10574C003C90043CE0FFA3E0900438CFF0A3EFF0D2
:10575C00900440E07002A3E0603190043BE024FF31
:10576C00F090043AE034FFF0E07002A3E0701C907B
:10577C00039E04F07BFF7A147918026C269004398E
:0C578C00E024FFF0900438E034FFF0222D
:10695400E4900461F0A3F0900461E0FEA3E0FFC3BF
:106964009408EE64809480503790000875F00EEF20
:10697400121F27EE75F00EA42583F583E0FCA3E037
:10698400FDA3E0FEA3E0FFEC4D4E4F60037F012228
:10699400900462E004F070BF900461E004F080B7FA
:0269A4007F0072
:0169A60022CE
:102CEB0078307C017D017B017A0379371220657B7B
:052CFB00017A017930AF
:0B2D0000900473EBF0A3EAF0A3E9F0ED
:102D0B00126CD07BFF7A1379F5126CD0900473E0C0
:102D1B00FBA3E0FAA3E0F9121BD164236003022F9B
:102D2B00C9900004121BEA64506003022FC9900083
:102D3B0005121BEA64536003022FC9900006121B95
:102D4B00EA64436003022FC9900007121BEA644B2D
:102D5B006003022FC990000C121BEA64216003026E
:102D6B002FC9900002121BEA24D0FFE434FFFE7C33
:102D7B00007D0A121C4BC006C007900001121BEA13
:102D8B0024D0FFE434FFFE7D64121C4BD0E02FFFF8
:102D9B00D0E03EFE900003121BEA24D0FDEC34FF82
:102DAB00CD2FFFED3E900476F0A3EFF090000A12CA
:102DBB001BEA24D0FFE434FFFE7D0A121C4BC00635
:102DCB00C007900009121BEA24D0FFE434FFFE7DFC
:102DDB0064121C4BD0E02FFFD0E03EFE90000B1294
:102DEB001BEA24D0FDEC34FFCD2FFFED3EFE90040B
:102DFB0080F0A3EFF0C3940CEE6480947E5003023A
:102E0B003566900480E0FEA3E0FFD394F4EE64807B
:102E1B0094814003023566C3900477E094089004D4
:102E2B0076E094004003023566900008121BEAFD21
:102E3B00642B6011EDB42D0DC3E49FFFE49E900451
:102E4B0080F0A3EFF0900476E0FEA3E09000047511
:102E5B00F00E121F27EE75F00EA42583F583E0FC10
:102E6B00A3E0FDA3E0FEA3E0FF7B637AF07930786B
:102E7B003D121549C004C005C006C007900477E099
:102E8B0025E0FF900476E033FE74172FF582740172
:102E9B003EF583E0FCA3E0FDEC12186FA804A90536
:102EAB00AA06AB07D007D006D005D004121545C033
:102EBB0004C005C006C007900480E0FCA3E0FDEC55
:102ECB0012186FD003D002D001D000121549900414
:102EDB0086121EEA900480E0FCA3E0FD900477E0EC
:102EEB0025E0FF900476E033FE74172FF582740112
:102EFB003EF583ECF0A3EDF07F007E107D1C7C454E
:102F0B00900486E0F8A3E0F9A3E0FAA3E0FB121724
:102F1B00E0600E400C900486121EF6451C100080DB
:102F2B0024E4FFFE7DFA7C43900486E0F8A3E0F9ED
:102F3B00A3E0FAA3E0FB1217E0500A900486121EDE
:102F4B00F643FA0000900486E0FCA3E0FDA3E0FE4C
:102F5B00A3E0FF900476E0FAA3E0FB90000075F08D
:102F6B000E121F27EA75F00EA42583F583121EEAB5
:102F7B00900486E0FCA3E0FDA3E0FEA3E0FF90003D
:102F8B000475F00EEB121F27EA75F00EA42583F5DE
:102F9B0083121EEA90000875F00EEB121F27EA75DC
:102FAB00F00EA42583F583121EF6000000001270AC
:102FBB00BD900444121EEA9004487401F022900460
:102FCB0073E0FBA3E0FAA3E0F9121BD164236003C7
:102FDB000230C4900004121BEA645060030230C438
:102FEB00900005121BEA644460030230C490000693
:102FFB00121BEA645360030230C4900007121BEAF1
:10300B00645460030230C4900002121BEA24D0FF08
:10301B00E434FFFE7C007D0A121C4BC006C00790F7
:10302B000001121BEA24D0FFE434FFFE7D64121C66
:10303B004BD0E02FFFD0E03EFE900003121BEA24A2
:10304B00D0FDEC34FFCD2FFFED3EFE900476F0A3C8
:10305B00EFF0C39408EE94004003023566900476BB
:10306B00E0FAA3E0FB90000475F00E121F27EA753F
:10307B00F00EA42583F583E0FCA3E0FDA3E0FEA303
:10308B00E0FF90000075F00EEB121F27EA75F00EB3
:10309B00A42583F583121EEA900476E0FEA3E0904C
:1030AB00000875F00E121F27EE75F00EA42583F5A0
:1030BB0083121EF60000000022E490047AF0A3F0C5
:1030CB0090047EF0A3F0900473E0FBA3E0FAA3E07E
:1030DB00F990047AE0FEA3E0F5828E83121BEAFFDF
:1030EB0070030235666423707690047AA3E0FFA325
:1030FB00EEF0A3EFF0E4900476F0A3F090047BE005
:10310B0004F0700690047AE004F0900473E0FBA3E3
:10311B00E0FAA3E0F990047AE0FEA3E0F5828E8357
:10312B00121BEAFF60A06450609CEFFB7A009004D6
:10313B0076E0FEA3E0FF7C007D0A121C4BEF2BFF19
:10314B00EA3ECF24D0CF34FF900476F0A3EFF0907B
:10315B00047BE004F070B390047AE004F080AB9051
:10316B000473E0FBA3E0FAA3E0F990047AE0FEA37A
:10317B00E0F5828E83121BEA6450600302322590C5
:10318B000482121EF60000000090047BE004F07035
:10319B000690047AE004F0900473E0FBA3E0FAA33A
:1031AB00E0F990047AE0FEA3E0F5828E83121BEA2D
:1031BB00FF70030230D1645470030230D190047A53
:1031CB00A3E0F5828E83121BEAFCE4121874C00490
:1031DB00C005C006C007E4FFFE7D207C4190048241
:1031EB00E0F8A3E0F9A3E0FAA3E0FB12163AD00350
:1031FB00D002D001D000121549E4FBFA794078C215
:10320B00121549900482121EEA90047BE004F070C0
:10321B008690047AE004F00231A2900473E0FBA3E1
:10322B00E0FAA3E0F990047AE0FEA3E0F5828E8346
:10323B00121BEA64546003023555900478F0A3F036
:10324B0090047BE004F0700690047AE004F09004A4
:10325B0073E0FBA3E0FAA3E0F990047AE0FEA3E0AD
:10326B00F5828E83121BEAFF603964216035EFFB18
:10327B007A00900478E0FEA3E0FF7C007D0A121C2C
:10328B004BEF2BFFEA3ECF24D0CF34FF900478F0E6
:10329B00A3EFF090047BE004F070B390047AE004A9
:1032AB00F080ABC3900477E09408900476E0940030
:1032BB0040030230D17F007E407D1C7C4590048210
:1032CB00E0F8A3E0F9A3E0FAA3E0FB1217E0600536
:1032DB0040030230D1E4FFFE7DFA7C43900482E090
:1032EB00F8A3E0F9A3E0FAA3E0FB1217E050030206
:1032FB0030D1900479E09410900478E09427400347
:10330B000230D1900476E0FEA3E090000475F00E3D
:10331B00121F27EE75F00EA42583F583E0FCA3E0C6
:10332B00FDA3E0FEA3E0FF900482E0F8A3E0F9A385
:10333B00E0FAA3E0FB1217E0701F900482E0FCA3FD
:10334B00E0FDA3E0FEA3E0FF7B5F7A29794B783B9E
:10335B00121549900482121EEA900482E0F8A3E051
:10336B00F9A3E0FAA3E0FBC000C001C002C00390C8
:10337B000477E025E0FF900476E033FE74172FF519
:10338B008274013EF583E0FCA3E0FDEC12186FD0D4
:10339B0003D002D001D000121549900482121EEA0C
:1033AB007F007E107D1C7C45900482E0F8A3E0F941
:1033BB00A3E0FAA3E0FB1217E0600C400A90048232
:1033CB00121EF6451C1000E4FFFE7DFA7C439004B0
:1033DB0082E0F8A3E0F9A3E0FAA3E0FB1217E050B8
:1033EB000A900482121EF643FA0000C3900479E09F
:1033FB009414900478E09400900482E0FC5067A34E
:10340B00E0FDA3E0FEA3E0FF900476E0FAA3E0FB6F
:10341B0090000075F00E121F27EA75F00EA425839D
:10342B00F583121EEA900482E0FCA3E0FDA3E0FE0C
:10343B00A3E0FF90000475F00EEB121F27EA75F066
:10344B000EA42583F583121EEA90000875F00EEB8F
:10345B00121F27EA75F00EA42583F583121EF600C2
:10346B000000000230D1A3E0FDA3E0FEA3E0FF903B
:10347B000476E0FAA3E0FB90000075F00E121F2714
:10348B00EA75F00EA42583F583121EEA900478E00A
:10349B00FEA3E0FF90000C75F00EEB121F27EA75F0
:1034AB00F00EA42583F583EEF0A3EFF090000C75DE
:1034BB00F00EEB121F27EA75F00EA42583F583E0BF
:1034CB00FCA3E0FDEC12186FE4FBFA79A078411233
:1034DB001743C004C005C006C007900476E0FEA3E6
:1034EB00E0FF90000475F00E121F27EE75F00EA48E
:1034FB002583F583E0F8A3E0F9A3E0FAA3E0FB90C2
:10350B00000075F00EEF121F27EE75F00EA4258349
:10351B00F583E0FCA3E0FDA3E0FEA3E0FF1215455D
:10352B00D003D002D001D000121743900476E0FAFA
:10353B00A3E090000875F00E121F27EA75F00EA499
:10354B002583F583121EEA0230D190047BE004F050
:0B355B00700690047AE004F00230D10A
:013566002242
:106F8900121BD16013B5050790046AE0121C17742F
:096F99000129F9E43AFA80E8222A
:106610001270BD90042AE0F8A3E0F9A3E0FAA3E029
:10662000FBC3EF9BFFEE9AFEED99FDEC98FCE47B3B
:10663000F47A01F9F8D3121E9950381270BD900403
:106640002A121EEA7F07126E78900434EEF0A3EF50
:10665000F0FDAC06E412186F7B007AC0797F7844B5
:10666000121743E4FBFA79A0784112163A90044AD3
:03667000121EEA0D
:016673002204
:106EC7007FFF7EFF7DFF7CFF1264DA7B017A00790A
:106ED7007090046DE4F0A374C0F07F007EF07DFF36
:056EE7007CFF0257983A
:1048D30090042EE07003024A561270BD900430E03B
:1048E300F8A3E0F9A3E0FAA3E0FBC3EF9BFFEE9A82
:1048F300FEED99FDEC98FCE47BF47A01F9F8C31220
:104903001E99502690042FE070201270BD90043041
:10491300121EEA7F807E257D007C001266D712710D
:104923004E7BFF7A1479240249B71270BD9004308C
:10493300E0F8A3E0F9A3E0FAA3E0FBC3EF9BFFEEEB
:104943009AFEED99FDEC98FCE47BF47A01F9F8C347
:10495300121E99501E90042FE0B401171270BD90DF
:104963000430121EEA7F007EC27D017C001266D7EE
:10497300024A001270BD900430E0F8A3E0F9A3E00E
:10498300FAA3E0FBC3EF9BFFEE9AFEED99FDEC98D3
:10499300FCE47BF47A01F9F8C3121E99501B9004CE
:1049A3002FE0B402141270BD900430121EEA7BFF94
:1049B3007A14792F126D3D80441270BD900430E05B
:1049C300F8A3E0F9A3E0FAA3E0FBC3EF9BFFEE9AA1
:1049D300FEED99FDEC98FCE47BF47A01F9F8C3123F
:1049E3001E99502090042FE0B403191270BD900457
:1049F30030121EEA7BFF7A147947126D3D90042F23
:104A0300E004F0221270BD900430E0F8A3E0F9A3B3
:104A1300E0FAA3E0FBC3EF9BFFEE9AFEED99FDECFA
:104A230098FCE47BF47A01F9F8C3121E99502490A0
:104A3300042FE0B4041D1270BD900430121EEA7BF3
:104A4300FF7A14795E126D3D90042FE004F0E49038
:034A5300042EF03E
:014A5600223D
:0400960075C76022A8
:106FFF007401A807088002C333D8FCF59DE4F5BDE2
:05700F0075BC80FF22AA
:106E7800AE07126FFFEE4488F5BC00000000E5BCC9
:106E880030E4FB53BCEFAFBDEF75F004A4ADBE7C9E
:086E9800002DFFEC35F0FE2295
:0B70F600EF1FAC0670011E4C70F6226C
:10707900EF1FAA0670011E4A60087D031DED60F02E
:0270890080FA8B
:01708B0022E2
:106F3100E4FDFCC3ED9FEC9E5015E4FBFA0BBB0096
:0F6F4100010ABA03F8BBE8F50DBD00010C80E4AE
:016F5000221E
:104AE00041039B0041039C0041039DFF41039E0144
:054AF00042039F0000DD
:1069A700E4FBEB75F00EA42400F582E43400F583D4
:1069B700121EF644BBA000EB75F00EA42404F5826A
:1069C700E43400F583121EF644BBA000EB75F00E0D
:1069D700A42408F582E43400F583121EF6000000B3
:0F69E700000BEBB408BCE4900334F0A3F0A3F072
:0169F600227E
:0B537B00900471EBF0A3EAF0A3E9F04E
:10538600900477EBF0A3EAF0A3E9F0900474E0F957
:10539600A3E0FAA3E090047AC9F0A3EAF0A3E9F047
:1053A600900477E0FBA3E0FAA3E0F9121BD1FF70AB
:1053B6000302549090047AE0FBA3E0FAA3E0F9120A
:1053C6001BD16F600302548390047AE0FBA3E0FADA
:1053D600A3E0F9121BD1607890047AA3E475F0017A
:1053E600121CA9A9F0FA121BD1FF900477E0FBA3C7
:1053F600E475F001121CA9A9F0FA121BD16F60C85E
:10540600900474A3E0FAA3E0AE02FF90047AA3E04E
:10541600FAA3E0C39FFFEA9EFE900477E0FBA3E0B9
:10542600FAA3E0C39FF9EA9EFAE92401F9E43AFAFD
:10543600900477EBF0A3EAF0A3E9F0900474E0F9A6
:10544600A3E0FAA3E090047AC9F0A3EAF0A3E9F096
:1054560090047AE0FBA3E0FAA3E0F9121BD1600303
:105466000253A6900471A3E0FAA3E0AE02FF9004F3
:1054760077A3E0FAA3E0C39FFFEA9EFE229004789A
:0D548600E475F001121C930253A6E4FEFF32
:0154930022F6
:084E9600900461ECF0A3EDF0C3
:104E9E00E4A3F0A3F0900462E024FFFF900461E02D
:104EAE0034FFFEC3900464E09FEE6480F8900463C8
:104EBE00E06480984003024FD4E0FEA3E0FF90042C
:104ECE0067EEF0A3EFF02401FFE43E900465F0A33B
:104EDE00EFF0900461E0FEA3E0FF900465E0FCA318
:104EEE00E0FDC39FEE6480F8EC648098504DED2594
:104EFE00E0FFEC338F82F583121CEAFDACF09004D8
:104F0E0068E025E0FF900467E0338F82F583121C82
:104F1E00EAD39DEC6480F8E5F0648098400D90042F
:104F2E0065E0FFA3E0A3CFF0A3EFF0900466E004EA
:104F3E00F0709F900465E004F08097900463E0FEAB
:104F4E00A3E0FF900467E0FCA3E0FD6F7002EC6E3F
:104F5E006060ED25E0FFEC338F82F583121CEAFFD3
:104F6E00900469E5F0F0A3EFF0900464E025E0FF13
:104F7E00900463E0338F82F583121CEAFD9004687F
:104F8E00E025E0FF900467E0338F82F583E5F08D36
:104F9E00F0121D41900469E0FCA3E0FD900464E072
:104FAE0025E0FF900463E0338F82F583EC8DF012E1
:104FBE001D41900464E004F06003024EA39004636C
:064FCE00E004F0024EA316
:014FD40022BA
:10702900D3EF9400EE64809480400122C3E49FFF73
:04703900E49EFE22B1
:10002600E4F593759430F591F592F59575961EF570
:0D003600B175B290F5B3F5B4D280D2C422FA
:0D000E00D2C8D2B4D284D2CBD285D2CA22BD
:106C6100EF14601614601914601C14601F14602264
:106C710024057023ED24FF92C822ED24FF92B42253
:106C8100ED24FF928422ED24FF92CB22ED24FF928A
:086C91008522ED24FF92CA22C6
:0E685200900471EEF0A3EFF0A3ECF0A3EDF0D4
:10686000E4A3F0A3F0900471E0FEA3E0FFC3900462
:1068700076E09FEE6480F8900475E0648098502A7A
:10688000C2C9900473E0FEA3E0FF126F31D2C99039
:106890000473E0FEA3E0FF126F31900476E004F091
:0A68A00070C3900475E004F080BBA3
:0168AA0022CB
:07713900D2A7D2C5D2A622A5
:09638400F9EF121C29121BD1FFD4
:10638D00900465EFF0E4900464F0900466F09004DE
:10639D0066E0FFC39408505574017E00A80708807D
:1063AD0005C333CE33CED8F9FF900465E0FDEF5D24
:1063BD0024FF92C5D2A6C2A67F0A7E001270F6D225
:1063CD00A630C21A900464E0FF900466E0FE7401EA
:1063DD00A806088002C333D8FC4F900464F07F0AEE
:1063ED007E001270F6900466E004F080A1900464C3
:0263FD00E0FFBF
:0163FF00227B
:105D2400900461EBF0A3EAF0A3E9F0C2A77F0112AB
:105D3400638D900461E0FBA3E0FAA3E0F9EF121C89
:105D4400177F4212638D900461E0FBA3E0FAA3E0A5
:105D5400900001126384900461E0FBA3E0FAA3E0E5
:105D6400900002126384900461E0FBA3E0FAA3E0D4
:105D7400F9900003126385900461E0FBA3E0FAA3A9
:105D8400E0F9900004126385900461E0FBA3E0FA5B
:105D9400A3E0F9900005126385900461E0FBA3E0A1
:105DA400FAA3E0F9900006126385900461E0FBA376
:105DB400E0FAA3E0F9900007126385900461E0FB28
:105DC400A3E0FAA3E0F9900008EF121C29D2A7225D
:10524D00900473ECF0A3EDF0900471EEF0A3EFF089
:10525D00C394E8EE64809483400C9004717403F061
:10526D00A374E7F08029900471E0FEA3E0FFD394CE
:10527D0018EE6480947C500C90047174FCF0A3744F
:10528D0019F0800BEF4E7007900471F0A304F090AD
:10529D000473E0FEA3E0FFC394E8EE6480948340C2
:1052AD000C9004737403F0A374E7F08022D3EF9491
:1052BD0018EE6480947C500C90047374FCF0A3740D
:1052CD0019F0800BEF4E7007900473F0A304F0906B
:1052DD000471E0FEA3E0FFC3E49FFFE49E90047120
:1052ED00F0A3EFF0A3E0FEA3E0FFC3E49FFFE49E75
:1052FD00FE900473F0A3EFF0D39400EE64809480DD
:10530D004014E024FFFF900473E034FFFE126DCDD6
:10531D007F017E0080177F017E00126DCD9004739A
:10532D00E0FEA3E0FFC374019FFFE49EFE126DA299
:10533D00900471E0FEA3E0FFD39400EE64809480AE
:10534D004011EF24FFFFEE34FFFE126DF87F017E5A
:10535D000080177F017E00126DF8900471E0FEA3AE
:0E536D00E0FFC374019FFFE49EFE126E232238
:1068AB0043BA8090FFF2741FF090FFF0EEF0A3EF6D
:1068BB00F090FF00E4F0A304F0A3E4F0A3F0A3F046
:1068CB0090FF10F0A304F0A3E4F0A3F0A3F090FF6B
:1068DB0020F0A304F0A3E4F0A3F0A3F090FF30F0BA
:1068EB00A304F0A3E4F0A3F0A3F0F5F175F50F43C7
:0668FB00F58053BA7F2274
:106DA200EF4E700653F5FEC2B722C3EF94E8EE949D
:106DB20003400653F5FED2B72243BA8090FF00EE9D
:0B6DC200F0A3EFF053BA7F43F501226D
:106DCD00EF4E700653F5FDC2A122C3EF94E8EE9489
:106DDD0003400653F5FDD2A12243BA8090FF10EE79
:0B6DED00F0A3EFF053BA7F43F5022241
:106DF800EF4E700653F5FBC2A222C3EF94E8EE945F
:106E080003400653F5FBD2A22243BA8090FF20EE3E
:0B6E1800F0A3EFF053BA7F43F5042213
:106E2300EF4E700653F5F7C2A322C3EF94E8EE9436
:106E330003400653F5F7D2A32243BA8090FF30EE06
:0B6E4300F0A3EFF053BA7F43F50822E4
:106471004E6F20436F6C6F72210047657420436F2C
:106481006C6F722100726564203D20256420677263
:106491006E203D20256420626C75203D2025640D11
:1064A1000A00244447543A332D31312C3121002440
:1064B1004447543A31322D31382C3121002444479C
:1064C100543A31392D32372C312100244447543A82
:0964D10032382D33362C31210044
:104AF5004A03A1000000000000000000004A03ABCB
:104B0500000000000000000000004203B500004A5C
:104B150003B9000000000000000000004403C500C8
:104B25000000004403C9000000004403CD0000005C
:104B3500004403D1000000004103D5004103D60025
:104B45004103D7004403D9000000004403DD000001
:104B550000004103E3004403E4000000004403E8CF
:104B6500000000004203EC00004403EE00000000DA
:104B75004403F2000000324103F6004103F700410F
:104B850003F9004403FA000000004403FE0000009E
:084B95000044040200000000CE
:01009200224B
:01009A002243
:03716E00026FA20B
:105BBE007F02126FFF900129E0642960257429F09D
:105BCE00900408E4F0A37484F0A3E4F0A374A8F0A6
:105BDE00A3E4F0A374B4F0126EC77BFF7A647971FC
:105BEE00803390012AE0FFA3E0900408CFF0A3EFEA
:105BFE00F090012CE0FFA3E090040ACFF0A3EFF0A9
:105C0E0090012EE0FFA3E090040CCFF0A3EFF07B09
:105C1E00FF7A64797B126C2690047874FFF0A3747B
:105C2E0064F0A37486F0900408E0FFA3E090047B78
:105C3E00CFF0A3EFF090040AE0FFA3E090047DCF35
:105C4E00F0A3EFF090040CE0FFA3E090047FCFF000
:105C5E00A3EFF07B017A0179301235CC7B017A010A
:055C6E007930026C26F4
:0C70EA0012009212009A12716E025BBE3E
:1064000090039DE070030269F790039DE0B40103DF
:106410000255AC90039DE0B402030265A990039D70
:10642000E0B4030302407690039DE0B404030263EA
:106430000690039DE0B40503025FBA90039DE0B4AB
:106440000603026A9090039DE0B4070302430F9095
:10645000039DE0B40803025B0690039DE0B40903CA
:1064600002473E90039DE0B40A0690039E7401F03B
:016470002209
:105C73007F02126E78AC06AD079003B6E025E0FF15
:105C83009003B5E033FE74A12FF58274033EF583D0
:105C9300ECF0A3EDF074A12FF58274033EF583E0DD
:105CA300FCA3E0FD74AB2FF58274033EF583ECF0A7
:105CB300A3EDF09003B6E004F070069003B5E004A2
:105CC300F09003B5E07004A3E0640570069003B59B
:105CD300F0A3F07B017A0379A17D057C00124E9637
:105CE3009003A5E0FFA3E09003B7CFF0A3EFF0E4A8
:105CF300FFEF25E024ABF582E43403F583E0FCA356
:105D0300E0FDEF25E024A1F582E43403F583ECF014
:105D1300A3EDF00FEFB405D99003B7E0FEA3E0FFC6
:015D2300225D
:1061F900E4FFFEFDFC7B7890039FF0A3F0F58BF59F
:106209008DD296AA031BEA70FAC2963091FDD28EFE
:106219002091FDC28E90039FE0FEA3E0FFE4FCFD08
:10622900FBFA7901F8121D6EA804A905AA06AB07A5
:10623900AF8DEFFEAD8B7C00E42DFFEC3EFEE4FD5F
:10624900EB2FFFEA3EFEED39FDEC38FC12186A7BB4
:10625900687A2F7939783D12163A1218A8AD07AC29
:1062690006E412186F7B7B7A14792E783E12163A5F
:0A627900E4F58BF58DC28F1218A812
:0162830022F8
:036ADA00121EEA9F
:106ADD00E49004D5F01261F99004D5E025E024B9D5
:106AED00F582E43403F583EEF0A3EFF09004D5E0E6
:106AFD0004F0E0C3940540DD7B017A0379B97D058F
:106B0D007C00124E969003BDE0FEA3E0FF9003C300
:056B1D00EEF0A3EFF013
:016B22002250
:1069F7009004CF7401F0A374F4F02086133087104D
:106A0700E024C8FF9004CFE03400FEE4FDFC802AB8
:106A170030861030870D9004CFE0FCA3E0FDFFAE79
:106A27000480173086172087149004D0E024C8FD0F
:0D6A37009004CFE03400FCE4FFFE12524D4D
:016A4400222F
:106A90001270BD9003C5E0F8A3E0F9A3E0FAA3E00B
:106AA000FBC3EF9BFFEE9AFEED99FDEC98FCE47BB7
:106AB00032FAF9F8C3121E99501F1270BD9003C527
:106AC000126ADAC3EF94FAEE648094805008E4FD11
:096AD000FCFFFE02524D1269F7B1
:016AD900229A
:105FBA009004C77402F0A37458F01270BD9003C91C
:105FCA00E0F8A3E0F9A3E0FAA3E0FBC3EF9BFFEE3E
:105FDA009AFEED99FDEC98FCE47B14FAF9F8C312E9
:105FEA001E9950611270BD9003C9126ADA9004C9F1
:105FFA00EEF0A3EFF0D3942CEE64809481401AE083
:10600A0094BC9004C9E064809482500D9004C7E067
:10601A00FCA3E0FDFFAE048029C39004CAE094C843
:10602A009004C9E06480948050139004C7E0FEA3F2
:10603A00E0FFC3E49FFDE49EFCAF058004E4FDFCA1
:05604A00FFFE12524DA3
:01604F00222E
:1065A9009004D17403F0A37484F01270BD9003CDEC
:1065B900E0F8A3E0F9A3E0FAA3E0FBC3EF9BFFEE49
:1065C9009AFEED99FDEC98FCE47B64FAF9F8C312A4
:1065D9001E9950321270BD9003CD121EEA126ADD67
:1065E900C3EF94F4EE648094819004D1E0500DFEE1
:1065F900A3E0FFC3E49FFDE49EFC8007FCA3E0FD4C
:06660900FFAE0412524D29
:01660F002268
:1063060090039EE060779003D5E0600CE4F07DE8B2
:106316007C037F01FE1268521270BD9003D1E0F833
:10632600A3E0F9A3E0FAA3E0FBC3EF9BFFEE9AFE1E
:10633600ED99FDEC98FCE47B14FAF9F8C3121E996A
:10634600503B1270BD9003D1121EEA126ADDD3EFE4
:106356009482EE648094804024EF94AAEE64809444
:1063660080501A7BFF7A6479A31221307D647C0009
:0D6376007F017E001268529003D57401F083
:0163830022F7
:1040760090039EE0700302430E126954EF60030240
:10408600430E1270BD9003DDE0F8A3E0F9A3E0FA59
:10409600A3E0FBC3EF9BFFEE9AFEED99FDEC98FCC7
:1040A600E47B14FAF9F8C3121E9950281270BD90D9
:1040B60003DD121EEA9003D6E004F0125C7390034F
:1040C600E1EEF0A3EFF09003D6E0C394054005E4DB
:1040D600F0A304F01270BD9003D9E0F8A3E0F9A3B1
:1040E600E0FAA3E0FBC3EF9BFFEE9AFEED99FDEC31
:1040F60098FCE47B64FAF9F8C3121E994003024364
:104106000E9003D7E06401600302430E1270BD9067
:1041160003D9121EEAE49003D7F0900408E0FEA348
:10412600E0FF24F6FDEE34FFFC9003E1E0FAA3E0A5
:10413600FBD39DEC6480F8EA64809850030241C387
:10414600EF240AFFE43EFEC3EB9FEE6480F8EA64C8
:1041560080985069E49003D8F0125C739003E1EE06
:10416600F0A3EFF07F147E00126F319003D8E004C5
:10417600F0E0C3940540E2900408E0FEA3E0FF24CB
:10418600F6FDEE34FFFC9003E1E0FAA3E0FBD39DDD
:10419600EC6480F8EA648098500302430EEF240A28
:1041A600FFE43EFEC3EB9FEE6480F8EA648098402D
:1041B6000302430E7BFF7A6479B002430090040A3F
:1041C600E0FEA3E0FF24F6FDEE34FFFC9003E1E001
:1041D600FAA3E0FBD39DEC6480F8EA648098500370
:1041E600024266EF240AFFE43EFEC3EB9FEE6480C4
:1041F600F8EA6480985069E49003D8F0125C7390F2
:1042060003E1EEF0A3EFF07F147E00126F3190030E
:10421600D8E004F0E0C3940540E290040AE0FEA36F
:10422600E0FF24F6FDEE34FFFC9003E1E0FAA3E0A4
:10423600FBD39DEC6480F8EA648098500302430E39
:10424600EF240AFFE43EFEC3EB9FEE6480F8EA64C7
:104256008098400302430E7BFF7A6479BE024300D6
:1042660090040CE0FEA3E0FF24F6FDEE34FFFC9084
:1042760003E1E0FAA3E0FBD39DEC6480F8EA6480F6
:1042860098500302430EEF240AFFE43EFEC3EB9F61
:10429600EE6480F8EA648098506EE49003D8F012D9
:1042A6005C739003E1EEF0A3EFF07F147E00126FD3
:1042B600319003D8E004F0E0C3940540E290040C8A
:1042C600E0FEA3E0FF24F6FDEE34FFFC9003E1E000
:1042D600FAA3E0FBD39DEC6480F8EA64809840285A
:1042E600EF240AFFE43EFEC3EB9FEE6480F8EA6427
:1042F600809850147BFF7A6479CC1221307D647CDF
:08430600007F017E00126852E5
:01430E00228C
:1055AC0090039EE070030256AB9003E3E0600CE4C2
:1055BC00F07DE87C037F01FE1268521270BD9003EF
:1055CC00E4E0F8A3E0F9A3E0FAA3E0FBC3EF9BFF50
:1055DC00EE9AFEED99FDEC98FCE47B0AFAF9F8C31F
:1055EC00121E9950321270BD9003E4121EEA2090E4
:1055FC00269003EDE004F070069003ECE004F0302C
:10560C0090FD9003ECE07004A3E06401700912704B
:10561C00BD9003E8121EEA1270BD9003E8E0F8A3F7
:10562C00E0F9A3E0FAA3E0FBC3EF9BFFEE9AFEEDDB
:10563C0099FDEC98FCE47BE87A03F9F8C3121E9907
:10564C00505D1270BD9003E8121EEAD39003EDE09A
:10565C0094019003ECE06480948040117BFF7A64A9
:10566C0079CC1221307D647C007F028020D39003A2
:10567C00EDE094009003ECE064809480401A7BFF92
:10568C007A6479BE1221307D647C007F017E001229
:0F569C0068529003E37401F0E49003ECF0A3F084
:0156AB0022DC
:105B060090039EE07003025BBD126ADD9004D3EE43
:105B1600F0A3EFF01270BD9003EEE0F8A3E0F9A356
:105B2600E0FAA3E0FBC3EF9BFFEE9AFEED99FDECD6
:105B360098FCA3E0F8A3E0F9A3E0FAA3E0FBC31204
:105B46001E9950731270BD9003EE121EEAE47FD0C8
:105B56007E07FDFC9003F2E0F8A3E0F9A3E0FAA3C8
:105B6600E0FBD3121E99400B7D2C7C017F017E0049
:105B76001268529004D3E0FEA3E0FFD39455EE647E
:105B86008094804025EF9473EE64809480501BE4EB
:105B9600FDFCFFFE12524D9003F2121EF600002786
:105BA600107BFF7A6479A30221301269F79003F221
:075BB600121EF60000003290
:015BBD0022C5
:10430F0090039EE0700302455D1270BD9003FEE0C6
:10431F00F8A3E0F9A3E0FAA3E0FBC3EF9BFFEE9A4B
:10432F00FEED99FDEC98FCE47B14FAF9F8C3121E2C
:10433F009950281270BD9003FE121EEA9003F6E00A
:10434F0004F0125C73900406EEF0A3EFF09003F606
:10435F00E0C394054005E4F0A304F01270BD900390
:10436F00FAE0F8A3E0F9A3E0FAA3E0FBC3EF9BFFA9
:10437F00EE9AFEED99FDEC98FCE47B64FAF9F8C334
:10438F00121E9940030245219003F7E06401600378
:10439F000245211270BD9003FA121EEAE49003F752
:1043AF00F0900408E0FEA3E0FF24F6FDEE34FFFCDE
:1043BF00900406E0FAA3E0FBD39DEC6480F8EA6476
:1043CF0080985003024461EF240AFFE43EFEC3EBE2
:1043DF009FEE6480F8EA6480985077E4FDFCFFFE5E
:1043EF0012524DE49003F8F0125C73900406EEF055
:1043FF00A3EFF07F147E00126F319003F8E004F00A
:10440F00E0C3940540E2900408E0FEA3E0FF24F629
:10441F00FDEE34FFFC900406E0FAA3E0FBD39DEC25
:10442F006480F8EA6480985003024521EF240AFF64
:10443F00E43EFEC3EB9FEE6480F8EA64809840038D
:10444F000245219003F97401F07BFF7A6479BE0273
:10445F00450C90040CE0FEA3E0FF24F6FDEE34FFC4
:10446F00FC900406E0FAA3E0FBD39DEC6480F8EA2D
:10447F00648098500302451CEF240AFFE43EFEC3FC
:10448F00EB9FEE6480F8EA648098400302451CE4D9
:10449F00FDFCFFFE12524DE49003F8F0125C739096
:1044AF000406EEF0A3EFF07F147E00126F3190033D
:1044BF00F8E004F0E0C3940540E290040CE0FEA3A2
:1044CF00E0FF24F6FDEE34FFFC900406E0FAA3E0D3
:1044DF00FBD39DEC6480F8EA6480984035EF240AA2
:1044EF00FFE43EFEC3EB9FEE6480F8EA64809850D1
:1044FF00219003F97401F07BFF7A6479CC1221309B
:10450F007D647C007F017E001268528005E4900379
:10451F00F9F09003F9E070361270BD900402E0F8E4
:10452F00A3E0F9A3E0FAA3E0FBC3EF9BFFEE9AFE33
:10453F00ED99FDEC98FCE47B32FAF9F8C3121E9961
:0E454F00500C1270BD900402121EEA1269F7A1
:01455D00223B
:10473E007DE87C037F017E00126852E49004CDF088
:10474E00A3F0125C739004CBEEF0A3EFF07F0A7E21
:10475E0000126F319004CEE004F070069004CDE0AC
:10476E0004F0C39004CEE094F49004CDE0940140A4
:10477E00D19004CBE0FFA3E0900408CFF0A3EFF0BC
:10478E007DE87C037F017E001268527D2C7C017FC8
:10479E00027E00126852E49004CDF0A3F0125C7316
:1047AE009004CBEEF0A3EFF07F0A7E00126F3190F3
:1047BE0004CEE004F070069004CDE004F0C3900443
:1047CE00CEE094F49004CDE0940140D19004CBE07F
:1047DE00FFA3E090040ACFF0A3EFF07DE87C037F07
:1047EE00017E001268527DC87C007F037E00126835
:1047FE0052E49004CDF0A3F0125C739004CBEEF073
:10480E00A3EFF07F0A7E00126F319004CEE004F029
:10481E0070069004CDE004F0C39004CEE094F490C2
:10482E0004CDE0940140D19004CBE0FFA3E09004CE
:10483E000CCFF0A3EFF07DE87C037F017E001268C1
:10484E0052900408E0FFA3E090012ACFF0A3EFF00E
:10485E0090040AE0FFA3E090012CCFF0A3EFF090BC
:10486E00040CE0FFA3E090012ECFF0A3EFF0126E48
:10487E00C790047874FFF0A37464F0A37486F0906C
:10488E000408E0FFA3E090047BCFF0A3EFF09004C8
:10489E000AE0FFA3E090047DCFF0A3EFF090040CAC
:1048AE00E0FFA3E090047FCFF0A3EFF07B017A014D
:1048BE0079301235CC7B017A017930126C26900357
:0448CE009D740AF0DB
:0148D20022C3
:0B4B9D004404C3000000004104C200FB
:106FA200438E805389F0438901758AAA758CAAC2DF
:086FB2008DD28CD2A9D2AF22CE
:10703D00438E4053890FE4F58BF58DC28FD28ED2DE
:04704D00ABD2AF22F1
:10708C0043D10275D59A75D4A943D10843AF20D208
:02709C00AF2221
:106D070090045FEEF0A3EFF0FDAC06EC12186FE411
:106D1700FBFA79A4784112163AA804A905AA06AB8A
:106D2700077F007EFF7D7F7C471215451218A88FCD
:066D37008AEEFF8F8C22A2
:0F70BD009004C3E0FCA3E0FDA3E0FEA3E0FF22EC
:03000B000259682F
:10596800C0E0C0F0C083C082C0D075D000C000C005
:0D59780001C002C003C004C005C006C00786
:1059850090039CE0C394084002E4F09004C2E070E8
:105995003490039CE075F00EA42404F582E43400F1
:1059A500F583E0FCA3E0FDA3E0FEA3E0FF1218A849
:1059B500126D0790039CE0FF7D01126C6190039BC3
:1059C5007401F0804A90039CE075F00EA42404F560
:1059D50082E43400F583E0FCA3E0FDA3E0FEA3E050
:1059E500FF1218A8C374C49FFF74099EFEC3EF94E9
:1059F50014EE6480948050047E007F14126D07902D
:105A0500039CE0FFE4FD126C6190039CE004F090C0
:105A150004C2E070047F0180027F009004C2EFF0B1
:105A2500D007D006D005D004D003D002D001D000D5
:0B5A3500D0D0D082D083D0F0D0E0327F
:03009B00026A45B1
:106A4500C0E0C0F0C083C082C0D075D000C000C017
:106A550004C005C006C0079004C3E0FCA3E0FDA385
:106A6500E0FEA3E02401FFE43EFEE43DFDE43CFC42
:106A75009004C3121EEAD007D006D005D004D0007A
:0B6A8500D0D0D082D083D0F0D0E0321F
:03001B00026F1061
:106F1000C0E0C083C082758B00758D009003A0E037
:106F200004F0700690039FE004F0D082D083D0E09C
:016F3000322E
:104BA8004104AF004104B0004404B10000000042D9
:104BB80004A500004104A8004204A900004204AC76
:024BC8000000EB
:0F70CC009004B1E0FCA3E0FDA3E0FEA3E0FF22EF
:10673800900461121EEA439850900461E0F8A3E0C7
:10674800F9A3E0FAA3E0FB7F007E607D547C001291
:106758001DF9EFF404F5D7900461E0F8A3E0F9A37C
:10676800E0FAA3E0FB7F007E607D547C00121DF9F7
:10677800C3E49FFFE49EFE74019DFDE49CFC780841
:10678800121EAA8FD6438E15E4F587D2AFD2AC225B
:10679800900461121EEA759A50900461E0F8A3E033
:1067A800F9A3E0FAA3E0FB7F007E607D547C001231
:1067B8001DF9EFF404F5D7900461E0F8A3E0F9A31C
:1067C800E0FAA3E0FB7F007E607D547C00121DF997
:1067D800C3E49FFFE49EFE74019DFDE49CFC7808E1
:0E67E800121EAA8FD675AF0143BA01D2AF229E
:1066D700900461121EEA53BAFB758410900461E0BE
:1066E700F8A3E0F9A3E0FAA3E0FB7F007E607D5406
:1066F7007C00121DF9EFF404F5D7900461E0F8A3CC
:10670700E0F9A3E0FAA3E0FB7F007E607D547C0004
:10671700121DF9C3E49FFFE49EFE74019DFDE49CF6
:10672700FC7808121EAA8FD6438E1443AF10D2AF3F
:01673700223F
:03717100D2AC227B
:03717400C2AC2288
:0471460043AF012230
:04714A0053AFFE221F
:04714E0043AF102219
:0471520053AFEF2226
:080003008F993099FDC299228A
:0F6F6F00A3E475F001121CA9A9F0FA121BD1FFBF
:0B6F7E008F9BE59A30E1FB539AFD2247
:0B7101008F85E58430E1FB5384FD2204
:106C2600900475EBF0A3EAF0A3E9F0C28CC2A99038
:106C36000475E0FBA3E0FAA3E0F9121BD1601790FC
:106C46000475A3E475F001121CA9A9F0FA121BD170
:0B6C5600FF12000380D9D28CD2A922CB
:106EEC00900461EBF0A3EAF0A3E9F0900461E0FBFD
:106EFC00A3E0FAA3E0F9121BD16008900461126FB1
:046F0C006F80E82288
:106D3D00900461EBF0A3EAF0A3E9F0900461E0FBAD
:106D4D00A3E0FAA3E0F9121BD16017900461A3E44C
:106D5D0075F001121CA9A9F0FA121BD1FF127101D5
:036D6D0080D922A8
:106CD00090048AEBF0A3EAF0A3E9F0C28CC2A99079
:106CE00003347401F090048AE0FBA3E0FAA3E0F916
:106CF000121BD1600890048A126F6F80E8E4900341
:076D000034F0D28CD2A9226D
:03002300024D3C4F
:0D4D3C00C0E0C0F0C083C082C0D075D008B8
:104D4900209803024E8BC2989004A7E599F0E0FFE2
:104D5900700FA3E004F0E0C3940F400A75C76080A8
:104D6900059004A8E4F0900334E06003024E8BEF51
:104D7900B43C189003357404F09004A5E4F0A3F052
:104D89001270BD9004B1121EEA804B900335E07099
:104D9900459004A7E0FFB424089003357401F0801E
:104DA9002EEFB423089003357402F08022EFB47B10
:104DB900119003357403F01270BD9004B1121EEA0C
:104DC900800D9004A7E0B43C069003357404F0907C
:104DD90004A5E4F0A3F09004A7E0FF9004A5E4750E
:104DE900F001121CA9FC743025F0F58274013CF520
:104DF90083EFF0900335E0FEB40415EF643E70755F
:104E09009004A5E0FCA3E02430F58274013C8055B0
:104E1900EEB401179004A7E0B421109004A5E0FEB8
:104E2900A3E02430F58274013E803A900335E0B462
:104E390002179004A7E0B421109004A5E0FEA3E0B6
:104E49002430F58274013E801C900335E0B40325BB
:104E59009004A7E0B47D1E9004A5E0FEA3E02430F1
:104E6900F58274013EF583E4F090033404F0900474
:104E7900A5E4F0A3F0C39004A5E094024004E4F093
:024E8900A3F094
:0B4E8B00D0D0D082D083D0F0D0E03235
:03004300024FD594
:0D4FD500C0E0C0F0C083C082C0D075D0081D
:104FE200E59A20E0030251069004ABE59BF0539A48
:104FF200FE900334E060030251069004ABE0B43C3F
:10500200189003357404F09004A9E4F0A3F0127030
:10501200BD9004B1121EEA803F900335E0703990D2
:1050220004ABE0FFB424089003357401F08022EF52
:10503200B423089003357402F08016EFB47B089015
:1050420003357403F0800AEFB43C06900335740410
:10505200F09004A9E4F0A3F09004ABE0FF9004A95F
:10506200E475F001121CA9FC743025F0F58274017C
:105072003CF583EFF0900335E0FEB40415EF643E97
:1050820070759004A9E0FCA3E02430F58274013C21
:105092008055EEB401179004ABE0B421109004A93E
:1050A200E0FEA3E02430F58274013E803A9003359D
:1050B200E0B402179004ABE0B421109004A9E0FE22
:1050C200A3E02430F58274013E801C900335E0B4E5
:1050D20003259004ABE0B47D1E9004A9E0FEA3E09A
:1050E2002430F58274013EF583E4F090033404F039
:1050F2009004A9E4F0A3F0C39004A9E09402400450
:04510200E4F0A3F042
:0B510600D0D0D082D083D0F0D0E032B7
:0300930002511106
:0D511100C0E0C0F0C083C082C0D075D008DF
:10511E00E58420E0030252425384FE9004AEE585FE
:10512E00F0900334E060030252429004AEE0B43CCF
:10513E00189003357404F09004ACE4F0A3F01270F0
:10514E00BD9004B1121EEA803F900335E070399095
:10515E0004AEE0FFB424089003357401F08022EF12
:10516E00B423089003357402F08016EFB47B0890D8
:10517E0003357403F0800AEFB43C069003357404D3
:10518E00F09004ACE4F0A3F09004AEE0FF9004AC19
:10519E00E475F001121CA9FC743025F0F58274013F
:1051AE003CF583EFF0900335E0FEB40415EF643E5A
:1051BE0070759004ACE0FCA3E02430F58274013CE1
:1051CE008055EEB401179004AEE0B421109004ACFB
:1051DE00E0FEA3E02430F58274013E803A90033560
:1051EE00E0B402179004AEE0B421109004ACE0FEDF
:1051FE00A3E02430F58274013E801C900335E0B4A8
:10520E0003259004AEE0B47D1E9004ACE0FEA3E056
:10521E002430F58274013EF583E4F090033404F0FB
:10522E009004ACE4F0A3F0C39004ACE0940240040C
:04523E00E4F0A3F005
:0B524200D0D0D082D083D0F0D0E0327A
:10709E005391FB439204E4F5CF75CDC075CED0224B
:106F5100900478E0FCA3E0FDA3E0FEA3E0FF121E95
:016F6100AA85
